{
  "address": "0xAB985854cBD237128a205e8e4E8d6fb1E7688D96",
  "abi": [
    {
      "inputs": [
        {
          "internalType": "address",
          "name": "owner",
          "type": "address"
        },
        {
          "internalType": "contract IRootChannel",
          "name": "_channel",
          "type": "address"
        },
        {
          "internalType": "address",
          "name": "_valuationToken",
          "type": "address"
        },
        {
          "internalType": "address",
          "name": "_buyBackReceiver",
          "type": "address"
        },
        {
          "internalType": "contract IUniswapV2Router02",
          "name": "_routerV2",
          "type": "address"
        },
        {
          "internalType": "uint256",
          "name": "_price",
          "type": "uint256"
        }
      ],
      "stateMutability": "nonpayable",
      "type": "constructor"
    },
    {
      "anonymous": false,
      "inputs": [
        {
          "indexed": true,
          "internalType": "address",
          "name": "buyer",
          "type": "address"
        },
        {
          "indexed": false,
          "internalType": "uint256",
          "name": "amount",
          "type": "uint256"
        },
        {
          "indexed": false,
          "internalType": "uint256",
          "name": "value",
          "type": "uint256"
        }
      ],
      "name": "Bought",
      "type": "event"
    },
    {
      "anonymous": false,
      "inputs": [
        {
          "indexed": true,
          "internalType": "address",
          "name": "previousOwner",
          "type": "address"
        },
        {
          "indexed": true,
          "internalType": "address",
          "name": "newOwner",
          "type": "address"
        }
      ],
      "name": "OwnershipTransferred",
      "type": "event"
    },
    {
      "anonymous": false,
      "inputs": [
        {
          "indexed": true,
          "internalType": "address",
          "name": "buyer",
          "type": "address"
        },
        {
          "indexed": false,
          "internalType": "uint256",
          "name": "amount",
          "type": "uint256"
        }
      ],
      "name": "Spent",
      "type": "event"
    },
    {
      "inputs": [
        {
          "internalType": "address",
          "name": "",
          "type": "address"
        }
      ],
      "name": "balances",
      "outputs": [
        {
          "internalType": "uint256",
          "name": "",
          "type": "uint256"
        }
      ],
      "stateMutability": "view",
      "type": "function"
    },
    {
      "inputs": [],
      "name": "beneficiary",
      "outputs": [
        {
          "internalType": "address",
          "name": "",
          "type": "address"
        }
      ],
      "stateMutability": "view",
      "type": "function"
    },
    {
      "inputs": [
        {
          "internalType": "address",
          "name": "buyer",
          "type": "address"
        },
        {
          "internalType": "uint256",
          "name": "amount",
          "type": "uint256"
        },
        {
          "internalType": "uint256",
          "name": "value",
          "type": "uint256"
        }
      ],
      "name": "buy",
      "outputs": [],
      "stateMutability": "nonpayable",
      "type": "function"
    },
    {
      "inputs": [
        {
          "internalType": "address[]",
          "name": "path",
          "type": "address[]"
        },
        {
          "internalType": "uint256",
          "name": "value",
          "type": "uint256"
        },
        {
          "internalType": "uint256",
          "name": "amountOutMin",
          "type": "uint256"
        },
        {
          "internalType": "uint256",
          "name": "deadline",
          "type": "uint256"
        }
      ],
      "name": "buyBack",
      "outputs": [],
      "stateMutability": "nonpayable",
      "type": "function"
    },
    {
      "inputs": [],
      "name": "buyBackReceiver",
      "outputs": [
        {
          "internalType": "address",
          "name": "",
          "type": "address"
        }
      ],
      "stateMutability": "view",
      "type": "function"
    },
    {
      "inputs": [],
      "name": "channel",
      "outputs": [
        {
          "internalType": "contract IRootChannel",
          "name": "",
          "type": "address"
        }
      ],
      "stateMutability": "view",
      "type": "function"
    },
    {
      "inputs": [],
      "name": "childBuy",
      "outputs": [
        {
          "internalType": "bytes4",
          "name": "",
          "type": "bytes4"
        }
      ],
      "stateMutability": "view",
      "type": "function"
    },
    {
      "inputs": [
        {
          "internalType": "uint256",
          "name": "value",
          "type": "uint256"
        }
      ],
      "name": "getAmount",
      "outputs": [
        {
          "internalType": "uint256",
          "name": "",
          "type": "uint256"
        }
      ],
      "stateMutability": "view",
      "type": "function"
    },
    {
      "inputs": [
        {
          "internalType": "uint256",
          "name": "amount",
          "type": "uint256"
        }
      ],
      "name": "getValue",
      "outputs": [
        {
          "internalType": "uint256",
          "name": "",
          "type": "uint256"
        }
      ],
      "stateMutability": "view",
      "type": "function"
    },
    {
      "inputs": [],
      "name": "owner",
      "outputs": [
        {
          "internalType": "address",
          "name": "",
          "type": "address"
        }
      ],
      "stateMutability": "view",
      "type": "function"
    },
    {
      "inputs": [
        {
          "internalType": "address",
          "name": "permitter",
          "type": "address"
        },
        {
          "internalType": "bool",
          "name": "isPermit",
          "type": "bool"
        }
      ],
      "name": "permit",
      "outputs": [],
      "stateMutability": "nonpayable",
      "type": "function"
    },
    {
      "inputs": [
        {
          "internalType": "address",
          "name": "",
          "type": "address"
        }
      ],
      "name": "permits",
      "outputs": [
        {
          "internalType": "bool",
          "name": "",
          "type": "bool"
        }
      ],
      "stateMutability": "view",
      "type": "function"
    },
    {
      "inputs": [],
      "name": "price",
      "outputs": [
        {
          "internalType": "uint256",
          "name": "",
          "type": "uint256"
        }
      ],
      "stateMutability": "view",
      "type": "function"
    },
    {
      "inputs": [],
      "name": "renounceOwnership",
      "outputs": [],
      "stateMutability": "nonpayable",
      "type": "function"
    },
    {
      "inputs": [],
      "name": "routerV2",
      "outputs": [
        {
          "internalType": "contract IUniswapV2Router02",
          "name": "",
          "type": "address"
        }
      ],
      "stateMutability": "view",
      "type": "function"
    },
    {
      "inputs": [
        {
          "internalType": "uint256",
          "name": "_price",
          "type": "uint256"
        }
      ],
      "name": "setPrice",
      "outputs": [],
      "stateMutability": "nonpayable",
      "type": "function"
    },
    {
      "inputs": [
        {
          "internalType": "uint256",
          "name": "key",
          "type": "uint256"
        },
        {
          "internalType": "bytes",
          "name": "value",
          "type": "bytes"
        }
      ],
      "name": "setSlot",
      "outputs": [],
      "stateMutability": "nonpayable",
      "type": "function"
    },
    {
      "inputs": [
        {
          "internalType": "uint256",
          "name": "",
          "type": "uint256"
        }
      ],
      "name": "slots",
      "outputs": [
        {
          "internalType": "bytes",
          "name": "",
          "type": "bytes"
        }
      ],
      "stateMutability": "view",
      "type": "function"
    },
    {
      "inputs": [
        {
          "internalType": "address",
          "name": "buyer",
          "type": "address"
        },
        {
          "internalType": "uint256",
          "name": "amount",
          "type": "uint256"
        }
      ],
      "name": "spend",
      "outputs": [],
      "stateMutability": "nonpayable",
      "type": "function"
    },
    {
      "inputs": [
        {
          "internalType": "address",
          "name": "newReceiver",
          "type": "address"
        }
      ],
      "name": "transferBuyBackReceiver",
      "outputs": [],
      "stateMutability": "nonpayable",
      "type": "function"
    },
    {
      "inputs": [
        {
          "internalType": "address",
          "name": "newOwner",
          "type": "address"
        }
      ],
      "name": "transferOwnership",
      "outputs": [],
      "stateMutability": "nonpayable",
      "type": "function"
    },
    {
      "inputs": [
        {
          "internalType": "contract IRootChannel",
          "name": "_channel",
          "type": "address"
        }
      ],
      "name": "transferRootChannel",
      "outputs": [],
      "stateMutability": "nonpayable",
      "type": "function"
    },
    {
      "inputs": [],
      "name": "valuationToken",
      "outputs": [
        {
          "internalType": "address",
          "name": "",
          "type": "address"
        }
      ],
      "stateMutability": "view",
      "type": "function"
    }
  ],
  "transactionHash": "0x493dabdfc71960cd187f1ebae96912727b4ebbf8852bd4cbd79a15ff1340e65a",
  "args": [
    "0xa995AE28b9cFf206C3971D1887cc934FC48e3a0F",
    "0xC5ecd33fE985F90102b6Bf7843B1d48a0D68eB86",
    "0xE437E9a5fd870aF20a779A5fBA83bc53cC7C837A",
    "0x1d1B1b329bA09f0124F9B26edAA29c80F0275263",
    "0x7a250d5630B4cF539739dF2C5dAcb4c659F2488D",
    "1000000000000000000"
  ],
  "bytecode": "0x6080604052600a805463ffffffff191663153e66e61790553480156200002457600080fd5b5060405162001ae838038062001ae8833981810160405260c08110156200004a57600080fd5b508051602082015160408301516060840151608085015160a09095015193949293919290918460006200007c6200013c565b600080546001600160a01b0319166001600160a01b03831690811782556040519293509160008051602062001ac8833981519152908290a350600280546001600160a01b0319166001600160a01b0392909216919091179055620000e08662000140565b600380546001600160a01b039586166001600160a01b0319918216179091556007805494861694821694909417909355600680549290941691831691909117909255600591909155600480549091163017905550620002599050565b3390565b6200014a6200013c565b6001600160a01b03166200015d6200024a565b6001600160a01b031614620001b9576040805162461bcd60e51b815260206004820181905260248201527f4f776e61626c653a2063616c6c6572206973206e6f7420746865206f776e6572604482015290519081900360640190fd5b6001600160a01b038116620002005760405162461bcd60e51b815260040180806020018281038252602681526020018062001aa26026913960400191505060405180910390fd5b600080546040516001600160a01b038085169392169160008051602062001ac883398151915291a3600080546001600160a01b0319166001600160a01b0392909216919091179055565b6000546001600160a01b031690565b61183980620002696000396000f3fe608060405234801561001057600080fd5b506004361061014c5760003560e01c80637bbdb96e116100c3578063af7d6ca31161007c578063af7d6ca314610387578063b004a46e146103b3578063ca48666e14610460578063d6fa8abc1461050e578063f186c67f14610534578063f2fde38b146105625761014c565b80637bbdb96e146103035780638da5cb5b1461030b57806391b7f5ed146103135780639980ec8614610330578063a035b1fe1461034d578063a59ac6dd146103555761014c565b80633dd21f8a116101155780633dd21f8a14610296578063502f74461461029e5780636c6ce063146102a6578063715018a6146102cb57806374d1f2f2146102d557806377e6bfa6146102fb5761014c565b80628009a3146101515780630ff4c9161461018b57806327e235e3146101ba578063387dd9e9146101e057806338af3eed14610272575b600080fd5b6101776004803603602081101561016757600080fd5b50356001600160a01b0316610588565b604080519115158252519081900360200190f35b6101a8600480360360208110156101a157600080fd5b503561059d565b60408051918252519081900360200190f35b6101a8600480360360208110156101d057600080fd5b50356001600160a01b03166105ba565b6101fd600480360360208110156101f657600080fd5b50356105cc565b6040805160208082528351818301528351919283929083019185019080838360005b8381101561023757818101518382015260200161021f565b50505050905090810190601f1680156102645780820380516001836020036101000a031916815260200191505b509250505060405180910390f35b61027a610667565b604080516001600160a01b039092168252519081900360200190f35b61027a610676565b61027a610685565b6102ae610694565b604080516001600160e01b03199092168252519081900360200190f35b6102d361069d565b005b6102d3600480360360208110156102eb57600080fd5b50356001600160a01b0316610749565b61027a6107cd565b61027a6107dc565b61027a6107eb565b6102d36004803603602081101561032957600080fd5b50356107fa565b6101a86004803603602081101561034657600080fd5b5035610861565b6101a8610878565b6102d36004803603606081101561036b57600080fd5b506001600160a01b03813516906020810135906040013561087e565b6102d36004803603604081101561039d57600080fd5b506001600160a01b0381351690602001356109b4565b6102d3600480360360408110156103c957600080fd5b813591908101906040810160208201356401000000008111156103eb57600080fd5b8201836020820111156103fd57600080fd5b8035906020019184600183028401116401000000008311171561041f57600080fd5b91908080601f016020809104026020016040519081016040528093929190818152602001838380828437600092019190915250929550610acd945050505050565b6102d36004803603608081101561047657600080fd5b81019060208101813564010000000081111561049157600080fd5b8201836020820111156104a357600080fd5b803590602001918460208302840111640100000000831117156104c557600080fd5b9190808060200260200160405190810160405280939291908181526020018383602002808284376000920191909152509295505082359350505060208101359060400135610b53565b6102d36004803603602081101561052457600080fd5b50356001600160a01b0316610dcc565b6102d36004803603604081101561054a57600080fd5b506001600160a01b0381351690602001351515610e50565b6102d36004803603602081101561057857600080fd5b50356001600160a01b0316610edd565b60016020526000908152604090205460ff1681565b60006105b460055483610fdf90919063ffffffff16565b92915050565b60086020526000908152604090205481565b60096020908152600091825260409182902080548351601f60026000196101006001861615020190931692909204918201849004840281018401909452808452909183018282801561065f5780601f106106345761010080835404028352916020019161065f565b820191906000526020600020905b81548152906001019060200180831161064257829003601f168201915b505050505081565b6004546001600160a01b031681565b6007546001600160a01b031681565b6006546001600160a01b031681565b600a5460e01b81565b6106a561103f565b6001600160a01b03166106b66107eb565b6001600160a01b0316146106ff576040805162461bcd60e51b81526020600482018190526024820152600080516020611705833981519152604482015290519081900360640190fd5b600080546040516001600160a01b03909116907f8be0079c531659141344cd1fd0a4f28419497f9722a3daafe3b4186f6b6457e0908390a3600080546001600160a01b0319169055565b61075161103f565b6001600160a01b03166107626107eb565b6001600160a01b0316146107ab576040805162461bcd60e51b81526020600482018190526024820152600080516020611705833981519152604482015290519081900360640190fd5b600780546001600160a01b0319166001600160a01b0392909216919091179055565b6003546001600160a01b031681565b6002546001600160a01b031681565b6000546001600160a01b031690565b61080261103f565b6001600160a01b03166108136107eb565b6001600160a01b03161461085c576040805162461bcd60e51b81526020600482018190526024820152600080516020611705833981519152604482015290519081900360640190fd5b600555565b60006105b46005548361104390919063ffffffff16565b60055481565b3360009081526001602052604090205460ff166108cc5760405162461bcd60e51b81526004018080602001828103825260248152602001806117aa6024913960400191505060405180910390fd5b6001600160a01b0383166000908152600860205260409020546108ef90836110aa565b6001600160a01b03841660008181526008602090815260409182902093909355600a54815130602482015260448101939093526064808401879052825180850390910181526084909301909152918101805160e09390931b6001600160e01b0319166001600160e01b039093169290921790915261096c90611104565b604080518381526020810183905281516001600160a01b038616927fa9a40dec7a304e5915d11358b968c1e8d365992abf20f82285d1df1b30c8e24c928290030190a2505050565b6002546001600160a01b031633146109fd5760405162461bcd60e51b81526004018080602001828103825260338152602001806117256033913960400191505060405180910390fd5b6001600160a01b038216600090815260086020526040902054811115610a545760405162461bcd60e51b81526004018080602001828103825260288152602001806117826028913960400191505060405180910390fd5b6001600160a01b038216600090815260086020526040902054610a7790826111cb565b6001600160a01b038316600081815260086020908152604091829020939093558051848152905191927fd3eec71143c45f28685b24760ea218d476917aa0ac0392a55e5304cef40bd2b692918290030190a25050565b610ad561103f565b6001600160a01b0316610ae66107eb565b6001600160a01b031614610b2f576040805162461bcd60e51b81526020600482018190526024820152600080516020611705833981519152604482015290519081900360640190fd5b60008281526009602090815260409091208251610b4e92840190611604565b505050565b610b5b61103f565b6001600160a01b0316610b6c6107eb565b6001600160a01b031614610bb5576040805162461bcd60e51b81526020600482018190526024820152600080516020611705833981519152604482015290519081900360640190fd5b6001845111610c04576040805162461bcd60e51b8152602060048201526016602482015275213abca130b1b59d103830ba341034b73b30b634b21760511b604482015290519081900360640190fd5b6006548451610c44916001600160a01b03169085908790600090610c2457fe5b60200260200101516001600160a01b03166112289092919063ffffffff16565b6006546007546040516338ed173960e01b815260048101868152602482018690526001600160a01b03928316606483018190526084830186905260a060448401908152895160a4850152895194909516946338ed173994899489948c94938a939192909160c4909101906020808801910280838360005b83811015610cd3578181015183820152602001610cbb565b505050509050019650505050505050600060405180830381600087803b158015610cfc57600080fd5b505af1158015610d10573d6000803e3d6000fd5b505050506040513d6000823e601f3d908101601f191682016040526020811015610d3957600080fd5b8101908080516040519392919084640100000000821115610d5957600080fd5b908301906020820185811115610d6e57600080fd5b8251866020820283011164010000000082111715610d8b57600080fd5b82525081516020918201928201910280838360005b83811015610db8578181015183820152602001610da0565b505050509050016040525050505050505050565b610dd461103f565b6001600160a01b0316610de56107eb565b6001600160a01b031614610e2e576040805162461bcd60e51b81526020600482018190526024820152600080516020611705833981519152604482015290519081900360640190fd5b600280546001600160a01b0319166001600160a01b0392909216919091179055565b610e5861103f565b6001600160a01b0316610e696107eb565b6001600160a01b031614610eb2576040805162461bcd60e51b81526020600482018190526024820152600080516020611705833981519152604482015290519081900360640190fd5b6001600160a01b03919091166000908152600160205260409020805460ff1916911515919091179055565b610ee561103f565b6001600160a01b0316610ef66107eb565b6001600160a01b031614610f3f576040805162461bcd60e51b81526020600482018190526024820152600080516020611705833981519152604482015290519081900360640190fd5b6001600160a01b038116610f845760405162461bcd60e51b81526004018080602001828103825260268152602001806116986026913960400191505060405180910390fd5b600080546040516001600160a01b03808516939216917f8be0079c531659141344cd1fd0a4f28419497f9722a3daafe3b4186f6b6457e091a3600080546001600160a01b0319166001600160a01b0392909216919091179055565b600082610fee575060006105b4565b82820282848281610ffb57fe5b04146110385760405162461bcd60e51b81526004018080602001828103825260218152602001806116e46021913960400191505060405180910390fd5b9392505050565b3390565b6000808211611099576040805162461bcd60e51b815260206004820152601a60248201527f536166654d6174683a206469766973696f6e206279207a65726f000000000000604482015290519081900360640190fd5b8183816110a257fe5b049392505050565b600082820183811015611038576040805162461bcd60e51b815260206004820152601b60248201527f536166654d6174683a206164646974696f6e206f766572666c6f770000000000604482015290519081900360640190fd5b6002546040516309813cdd60e31b81526020600482018181528451602484015284516001600160a01b0390941693634c09e6e893869383926044909201919085019080838360005b8381101561116457818101518382015260200161114c565b50505050905090810190601f1680156111915780820380516001836020036101000a031916815260200191505b5092505050600060405180830381600087803b1580156111b057600080fd5b505af11580156111c4573d6000803e3d6000fd5b5050505050565b600082821115611222576040805162461bcd60e51b815260206004820152601e60248201527f536166654d6174683a207375627472616374696f6e206f766572666c6f770000604482015290519081900360640190fd5b50900390565b8015806112ae575060408051636eb1769f60e11b81523060048201526001600160a01b03848116602483015291519185169163dd62ed3e91604480820192602092909190829003018186803b15801561128057600080fd5b505afa158015611294573d6000803e3d6000fd5b505050506040513d60208110156112aa57600080fd5b5051155b6112e95760405162461bcd60e51b81526004018080602001828103825260368152602001806117ce6036913960400191505060405180910390fd5b604080516001600160a01b038416602482015260448082018490528251808303909101815260649091019091526020810180516001600160e01b031663095ea7b360e01b179052610b4e908490606061138b826040518060400160405280602081526020017f5361666545524332303a206c6f772d6c6576656c2063616c6c206661696c6564815250856001600160a01b03166113e79092919063ffffffff16565b805190915015610b4e578080602001905160208110156113aa57600080fd5b5051610b4e5760405162461bcd60e51b815260040180806020018281038252602a815260200180611758602a913960400191505060405180910390fd5b60606113f684846000856113fe565b949350505050565b60608247101561143f5760405162461bcd60e51b81526004018080602001828103825260268152602001806116be6026913960400191505060405180910390fd5b6114488561155a565b611499576040805162461bcd60e51b815260206004820152601d60248201527f416464726573733a2063616c6c20746f206e6f6e2d636f6e7472616374000000604482015290519081900360640190fd5b60006060866001600160a01b031685876040518082805190602001908083835b602083106114d85780518252601f1990920191602091820191016114b9565b6001836020036101000a03801982511681845116808217855250505050505090500191505060006040518083038185875af1925050503d806000811461153a576040519150601f19603f3d011682016040523d82523d6000602084013e61153f565b606091505b509150915061154f828286611560565b979650505050505050565b3b151590565b6060831561156f575081611038565b82511561157f5782518084602001fd5b8160405162461bcd60e51b81526004018080602001828103825283818151815260200191508051906020019080838360005b838110156115c95781810151838201526020016115b1565b50505050905090810190601f1680156115f65780820380516001836020036101000a031916815260200191505b509250505060405180910390fd5b828054600181600116156101000203166002900490600052602060002090601f016020900481019282601f1061164557805160ff1916838001178555611672565b82800160010185558215611672579182015b82811115611672578251825591602001919060010190611657565b5061167e929150611682565b5090565b5b8082111561167e576000815560010161168356fe4f776e61626c653a206e6577206f776e657220697320746865207a65726f2061646472657373416464726573733a20696e73756666696369656e742062616c616e636520666f722063616c6c536166654d6174683a206d756c7469706c69636174696f6e206f766572666c6f774f776e61626c653a2063616c6c6572206973206e6f7420746865206f776e65725265736f75726365576974684368616e6e656c3a2043616e2062652063616c6c6564206279206368616e6e656c206f6e6c792e5361666545524332303a204552433230206f7065726174696f6e20646964206e6f7420737563636565645265736f757263653a206e6f7420656e6f756768207265736f757263657320746f207370656e642e5065726d697461626c653a2063616c6c6572206973206e6f74207065726d69747465642e5361666545524332303a20617070726f76652066726f6d206e6f6e2d7a65726f20746f206e6f6e2d7a65726f20616c6c6f77616e6365a26469706673582212208a99069a515d27aac43fe0c1446ffe1c0aca3536c22c5e3760bd4cb8380729d464736f6c634300070300334f776e61626c653a206e6577206f776e657220697320746865207a65726f20616464726573738be0079c531659141344cd1fd0a4f28419497f9722a3daafe3b4186f6b6457e0"
}