{
  "address": "0x5d8C81EBc42910c586F115AB228AeCbBe0994268",
  "abi": [
    {
      "inputs": [
        {
          "internalType": "address",
          "name": "owner",
          "type": "address"
        },
        {
          "internalType": "contract IRootChannel",
          "name": "_channel",
          "type": "address"
        },
        {
          "internalType": "address",
          "name": "_valuationToken",
          "type": "address"
        },
        {
          "internalType": "address",
          "name": "_swapToken",
          "type": "address"
        },
        {
          "internalType": "address",
          "name": "_swapReceiver",
          "type": "address"
        },
        {
          "internalType": "contract IUniswapV2Router02",
          "name": "_routerV2",
          "type": "address"
        },
        {
          "internalType": "uint256",
          "name": "_price",
          "type": "uint256"
        }
      ],
      "stateMutability": "nonpayable",
      "type": "constructor"
    },
    {
      "anonymous": false,
      "inputs": [
        {
          "indexed": true,
          "internalType": "address",
          "name": "buyer",
          "type": "address"
        },
        {
          "indexed": false,
          "internalType": "uint256",
          "name": "amount",
          "type": "uint256"
        },
        {
          "indexed": false,
          "internalType": "uint256",
          "name": "value",
          "type": "uint256"
        }
      ],
      "name": "Bought",
      "type": "event"
    },
    {
      "anonymous": false,
      "inputs": [
        {
          "indexed": true,
          "internalType": "address",
          "name": "previousOwner",
          "type": "address"
        },
        {
          "indexed": true,
          "internalType": "address",
          "name": "newOwner",
          "type": "address"
        }
      ],
      "name": "OwnershipTransferred",
      "type": "event"
    },
    {
      "anonymous": false,
      "inputs": [
        {
          "indexed": true,
          "internalType": "address",
          "name": "buyer",
          "type": "address"
        },
        {
          "indexed": false,
          "internalType": "uint256",
          "name": "amount",
          "type": "uint256"
        }
      ],
      "name": "Spent",
      "type": "event"
    },
    {
      "inputs": [
        {
          "internalType": "address",
          "name": "",
          "type": "address"
        }
      ],
      "name": "balances",
      "outputs": [
        {
          "internalType": "uint256",
          "name": "",
          "type": "uint256"
        }
      ],
      "stateMutability": "view",
      "type": "function"
    },
    {
      "inputs": [],
      "name": "beneficiary",
      "outputs": [
        {
          "internalType": "address",
          "name": "",
          "type": "address"
        }
      ],
      "stateMutability": "view",
      "type": "function"
    },
    {
      "inputs": [
        {
          "internalType": "address",
          "name": "buyer",
          "type": "address"
        },
        {
          "internalType": "uint256",
          "name": "amount",
          "type": "uint256"
        },
        {
          "internalType": "uint256",
          "name": "value",
          "type": "uint256"
        }
      ],
      "name": "buy",
      "outputs": [],
      "stateMutability": "nonpayable",
      "type": "function"
    },
    {
      "inputs": [],
      "name": "channel",
      "outputs": [
        {
          "internalType": "contract IRootChannel",
          "name": "",
          "type": "address"
        }
      ],
      "stateMutability": "view",
      "type": "function"
    },
    {
      "inputs": [],
      "name": "childBuy",
      "outputs": [
        {
          "internalType": "bytes4",
          "name": "",
          "type": "bytes4"
        }
      ],
      "stateMutability": "view",
      "type": "function"
    },
    {
      "inputs": [
        {
          "internalType": "uint256",
          "name": "value",
          "type": "uint256"
        }
      ],
      "name": "getAmount",
      "outputs": [
        {
          "internalType": "uint256",
          "name": "",
          "type": "uint256"
        }
      ],
      "stateMutability": "view",
      "type": "function"
    },
    {
      "inputs": [
        {
          "internalType": "uint256",
          "name": "amount",
          "type": "uint256"
        }
      ],
      "name": "getValue",
      "outputs": [
        {
          "internalType": "uint256",
          "name": "",
          "type": "uint256"
        }
      ],
      "stateMutability": "view",
      "type": "function"
    },
    {
      "inputs": [],
      "name": "owner",
      "outputs": [
        {
          "internalType": "address",
          "name": "",
          "type": "address"
        }
      ],
      "stateMutability": "view",
      "type": "function"
    },
    {
      "inputs": [
        {
          "internalType": "address",
          "name": "permitter",
          "type": "address"
        },
        {
          "internalType": "bool",
          "name": "isPermit",
          "type": "bool"
        }
      ],
      "name": "permit",
      "outputs": [],
      "stateMutability": "nonpayable",
      "type": "function"
    },
    {
      "inputs": [
        {
          "internalType": "address",
          "name": "",
          "type": "address"
        }
      ],
      "name": "permits",
      "outputs": [
        {
          "internalType": "bool",
          "name": "",
          "type": "bool"
        }
      ],
      "stateMutability": "view",
      "type": "function"
    },
    {
      "inputs": [],
      "name": "price",
      "outputs": [
        {
          "internalType": "uint256",
          "name": "",
          "type": "uint256"
        }
      ],
      "stateMutability": "view",
      "type": "function"
    },
    {
      "inputs": [],
      "name": "renounceOwnership",
      "outputs": [],
      "stateMutability": "nonpayable",
      "type": "function"
    },
    {
      "inputs": [],
      "name": "routerV2",
      "outputs": [
        {
          "internalType": "contract IUniswapV2Router02",
          "name": "",
          "type": "address"
        }
      ],
      "stateMutability": "view",
      "type": "function"
    },
    {
      "inputs": [
        {
          "internalType": "uint256",
          "name": "_price",
          "type": "uint256"
        }
      ],
      "name": "setPrice",
      "outputs": [],
      "stateMutability": "nonpayable",
      "type": "function"
    },
    {
      "inputs": [
        {
          "internalType": "uint256",
          "name": "key",
          "type": "uint256"
        },
        {
          "internalType": "bytes",
          "name": "value",
          "type": "bytes"
        }
      ],
      "name": "setSlot",
      "outputs": [],
      "stateMutability": "nonpayable",
      "type": "function"
    },
    {
      "inputs": [
        {
          "internalType": "uint256",
          "name": "",
          "type": "uint256"
        }
      ],
      "name": "slots",
      "outputs": [
        {
          "internalType": "bytes",
          "name": "",
          "type": "bytes"
        }
      ],
      "stateMutability": "view",
      "type": "function"
    },
    {
      "inputs": [
        {
          "internalType": "address",
          "name": "buyer",
          "type": "address"
        },
        {
          "internalType": "uint256",
          "name": "amount",
          "type": "uint256"
        }
      ],
      "name": "spend",
      "outputs": [],
      "stateMutability": "nonpayable",
      "type": "function"
    },
    {
      "inputs": [],
      "name": "swapPath",
      "outputs": [
        {
          "internalType": "address[]",
          "name": "path",
          "type": "address[]"
        }
      ],
      "stateMutability": "view",
      "type": "function"
    },
    {
      "inputs": [],
      "name": "swapReceiver",
      "outputs": [
        {
          "internalType": "address",
          "name": "",
          "type": "address"
        }
      ],
      "stateMutability": "view",
      "type": "function"
    },
    {
      "inputs": [],
      "name": "swapToken",
      "outputs": [
        {
          "internalType": "address",
          "name": "",
          "type": "address"
        }
      ],
      "stateMutability": "view",
      "type": "function"
    },
    {
      "inputs": [
        {
          "internalType": "address",
          "name": "newOwner",
          "type": "address"
        }
      ],
      "name": "transferOwnership",
      "outputs": [],
      "stateMutability": "nonpayable",
      "type": "function"
    },
    {
      "inputs": [
        {
          "internalType": "contract IRootChannel",
          "name": "_channel",
          "type": "address"
        }
      ],
      "name": "transferRootChannel",
      "outputs": [],
      "stateMutability": "nonpayable",
      "type": "function"
    },
    {
      "inputs": [],
      "name": "valuationToken",
      "outputs": [
        {
          "internalType": "address",
          "name": "",
          "type": "address"
        }
      ],
      "stateMutability": "view",
      "type": "function"
    }
  ],
  "transactionHash": "0xdab00d49c57dcba75a75fbed095674d9c05a5b2d352d7baa232ecf8d5fc2c14b",
  "args": [
    "0xa995AE28b9cFf206C3971D1887cc934FC48e3a0F",
    "0xC5ecd33fE985F90102b6Bf7843B1d48a0D68eB86",
    "0xE437E9a5fd870aF20a779A5fBA83bc53cC7C837A",
    "0xc0D05413823E6ebeA748285d468295eB384057A9",
    "0x1d1B1b329bA09f0124F9B26edAA29c80F0275263",
    "0x7a250d5630B4cF539739dF2C5dAcb4c659F2488D",
    "1000000000000000000"
  ],
  "bytecode": "0x6080604052600b805463ffffffff191663153e66e61790553480156200002457600080fd5b50604051620019db380380620019db833981810160405260e08110156200004a57600080fd5b508051602082015160408301516060840151608085015160a086015160c09096015194959394929391929091908560006200008462000151565b600080546001600160a01b0319166001600160a01b038316908117825560405192935091600080516020620019bb833981519152908290a350600280546001600160a01b0319166001600160a01b0392909216919091179055620000e88762000155565b600380546001600160a01b03199081166001600160a01b03978816179091556007805482169587169590951790945560088054851693861693909317909255600680548416919094161790925560059190915560048054309216919091179055506200026e9050565b3390565b6200015f62000151565b6001600160a01b0316620001726200025f565b6001600160a01b031614620001ce576040805162461bcd60e51b815260206004820181905260248201527f4f776e61626c653a2063616c6c6572206973206e6f7420746865206f776e6572604482015290519081900360640190fd5b6001600160a01b038116620002155760405162461bcd60e51b8152600401808060200182810382526026815260200180620019956026913960400191505060405180910390fd5b600080546040516001600160a01b0380851693921691600080516020620019bb83398151915291a3600080546001600160a01b0319166001600160a01b0392909216919091179055565b6000546001600160a01b031690565b611717806200027e6000396000f3fe608060405234801561001057600080fd5b506004361061014c5760003560e01c80638da5cb5b116100c3578063b004a46e1161007c578063b004a46e1461038d578063d6fa8abc1461043a578063dc73e49c14610460578063df5af13f14610468578063f186c67f146104c0578063f2fde38b146104ee5761014c565b80638da5cb5b146102e557806391b7f5ed146102ed5780639980ec861461030a578063a035b1fe14610327578063a59ac6dd1461032f578063af7d6ca3146103615761014c565b806338af3eed1161011557806338af3eed14610296578063502f74461461029e5780636c6ce063146102a6578063715018a6146102cb57806377e6bfa6146102d55780637bbdb96e146102dd5761014c565b80628009a3146101515780630ff4c9161461018b57806327e235e3146101ba5780632c712797146101e0578063387dd9e914610204575b600080fd5b6101776004803603602081101561016757600080fd5b50356001600160a01b0316610514565b604080519115158252519081900360200190f35b6101a8600480360360208110156101a157600080fd5b5035610529565b60408051918252519081900360200190f35b6101a8600480360360208110156101d057600080fd5b50356001600160a01b0316610546565b6101e8610558565b604080516001600160a01b039092168252519081900360200190f35b6102216004803603602081101561021a57600080fd5b5035610567565b6040805160208082528351818301528351919283929083019185019080838360005b8381101561025b578181015183820152602001610243565b50505050905090810190601f1680156102885780820380516001836020036101000a031916815260200191505b509250505060405180910390f35b6101e8610602565b6101e8610611565b6102ae610620565b604080516001600160e01b03199092168252519081900360200190f35b6102d3610629565b005b6101e86106d5565b6101e86106e4565b6101e86106f3565b6102d36004803603602081101561030357600080fd5b5035610702565b6101a86004803603602081101561032057600080fd5b5035610769565b6101a8610780565b6102d36004803603606081101561034557600080fd5b506001600160a01b038135169060208101359060400135610786565b6102d36004803603604081101561037757600080fd5b506001600160a01b038135169060200135610a6f565b6102d3600480360360408110156103a357600080fd5b813591908101906040810160208201356401000000008111156103c557600080fd5b8201836020820111156103d757600080fd5b803590602001918460018302840111640100000000831117156103f957600080fd5b91908080601f016020809104026020016040519081016040528093929190818152602001838380828437600092019190915250929550610b88945050505050565b6102d36004803603602081101561045057600080fd5b50356001600160a01b0316610c0e565b6101e8610c92565b610470610ca1565b60408051602080825283518183015283519192839290830191858101910280838360005b838110156104ac578181015183820152602001610494565b505050509050019250505060405180910390f35b6102d3600480360360408110156104d657600080fd5b506001600160a01b0381351690602001351515610d29565b6102d36004803603602081101561050457600080fd5b50356001600160a01b0316610db6565b60016020526000908152604090205460ff1681565b600061054060055483610eb890919063ffffffff16565b92915050565b60096020526000908152604090205481565b6008546001600160a01b031681565b600a6020908152600091825260409182902080548351601f6002600019610100600186161502019093169290920491820184900484028101840190945280845290918301828280156105fa5780601f106105cf576101008083540402835291602001916105fa565b820191906000526020600020905b8154815290600101906020018083116105dd57829003601f168201915b505050505081565b6004546001600160a01b031681565b6006546001600160a01b031681565b600b5460e01b81565b610631610f18565b6001600160a01b03166106426106f3565b6001600160a01b03161461068b576040805162461bcd60e51b815260206004820181905260248201526000805160206115e3833981519152604482015290519081900360640190fd5b600080546040516001600160a01b03909116907f8be0079c531659141344cd1fd0a4f28419497f9722a3daafe3b4186f6b6457e0908390a3600080546001600160a01b0319169055565b6003546001600160a01b031681565b6002546001600160a01b031681565b6000546001600160a01b031690565b61070a610f18565b6001600160a01b031661071b6106f3565b6001600160a01b031614610764576040805162461bcd60e51b815260206004820181905260248201526000805160206115e3833981519152604482015290519081900360640190fd5b600555565b600061054060055483610f1c90919063ffffffff16565b60055481565b3360009081526001602052604090205460ff166107d45760405162461bcd60e51b81526004018080602001828103825260248152602001806116886024913960400191505060405180910390fd5b6001600160a01b0383166000908152600960205260409020546107f79083610f83565b6001600160a01b0380851660009081526009602052604090209190915560065460035461082992908116911683610fdd565b6006546001600160a01b03166338ed1739826000610845610ca1565b6008546001600160a01b031661085c42600a610f83565b6040518663ffffffff1660e01b81526004018086815260200185815260200180602001846001600160a01b03168152602001838152602001828103825285818151815260200191508051906020019060200280838360005b838110156108cc5781810151838201526020016108b4565b505050509050019650505050505050600060405180830381600087803b1580156108f557600080fd5b505af1158015610909573d6000803e3d6000fd5b505050506040513d6000823e601f3d908101601f19168201604052602081101561093257600080fd5b810190808051604051939291908464010000000082111561095257600080fd5b90830190602082018581111561096757600080fd5b825186602082028301116401000000008211171561098457600080fd5b82525081516020918201928201910280838360005b838110156109b1578181015183820152602001610999565b50505050919091016040818152600b543060248401526001600160a01b038b16604484015260648084018b905282518085039091018152608490930190915260208201805160e09290921b6001600160e01b0319166001600160e01b03909216919091179052610a27955093506110f092505050565b604080518381526020810183905281516001600160a01b038616927fa9a40dec7a304e5915d11358b968c1e8d365992abf20f82285d1df1b30c8e24c928290030190a2505050565b6002546001600160a01b03163314610ab85760405162461bcd60e51b81526004018080602001828103825260338152602001806116036033913960400191505060405180910390fd5b6001600160a01b038216600090815260096020526040902054811115610b0f5760405162461bcd60e51b81526004018080602001828103825260288152602001806116606028913960400191505060405180910390fd5b6001600160a01b038216600090815260096020526040902054610b3290826111b7565b6001600160a01b038316600081815260096020908152604091829020939093558051848152905191927fd3eec71143c45f28685b24760ea218d476917aa0ac0392a55e5304cef40bd2b692918290030190a25050565b610b90610f18565b6001600160a01b0316610ba16106f3565b6001600160a01b031614610bea576040805162461bcd60e51b815260206004820181905260248201526000805160206115e3833981519152604482015290519081900360640190fd5b6000828152600a602090815260409091208251610c09928401906114e2565b505050565b610c16610f18565b6001600160a01b0316610c276106f3565b6001600160a01b031614610c70576040805162461bcd60e51b815260206004820181905260248201526000805160206115e3833981519152604482015290519081900360640190fd5b600280546001600160a01b0319166001600160a01b0392909216919091179055565b6007546001600160a01b031681565b6040805160028082526060808301845292602083019080368337505060035482519293506001600160a01b031691839150600090610cdb57fe5b6001600160a01b039283166020918202929092010152600754825191169082906001908110610d0657fe5b60200260200101906001600160a01b031690816001600160a01b03168152505090565b610d31610f18565b6001600160a01b0316610d426106f3565b6001600160a01b031614610d8b576040805162461bcd60e51b815260206004820181905260248201526000805160206115e3833981519152604482015290519081900360640190fd5b6001600160a01b03919091166000908152600160205260409020805460ff1916911515919091179055565b610dbe610f18565b6001600160a01b0316610dcf6106f3565b6001600160a01b031614610e18576040805162461bcd60e51b815260206004820181905260248201526000805160206115e3833981519152604482015290519081900360640190fd5b6001600160a01b038116610e5d5760405162461bcd60e51b81526004018080602001828103825260268152602001806115766026913960400191505060405180910390fd5b600080546040516001600160a01b03808516939216917f8be0079c531659141344cd1fd0a4f28419497f9722a3daafe3b4186f6b6457e091a3600080546001600160a01b0319166001600160a01b0392909216919091179055565b600082610ec757506000610540565b82820282848281610ed457fe5b0414610f115760405162461bcd60e51b81526004018080602001828103825260218152602001806115c26021913960400191505060405180910390fd5b9392505050565b3390565b6000808211610f72576040805162461bcd60e51b815260206004820152601a60248201527f536166654d6174683a206469766973696f6e206279207a65726f000000000000604482015290519081900360640190fd5b818381610f7b57fe5b049392505050565b600082820183811015610f11576040805162461bcd60e51b815260206004820152601b60248201527f536166654d6174683a206164646974696f6e206f766572666c6f770000000000604482015290519081900360640190fd5b801580611063575060408051636eb1769f60e11b81523060048201526001600160a01b03848116602483015291519185169163dd62ed3e91604480820192602092909190829003018186803b15801561103557600080fd5b505afa158015611049573d6000803e3d6000fd5b505050506040513d602081101561105f57600080fd5b5051155b61109e5760405162461bcd60e51b81526004018080602001828103825260368152602001806116ac6036913960400191505060405180910390fd5b604080516001600160a01b038416602482015260448082018490528251808303909101815260649091019091526020810180516001600160e01b031663095ea7b360e01b179052610c09908490611214565b6002546040516309813cdd60e31b81526020600482018181528451602484015284516001600160a01b0390941693634c09e6e893869383926044909201919085019080838360005b83811015611150578181015183820152602001611138565b50505050905090810190601f16801561117d5780820380516001836020036101000a031916815260200191505b5092505050600060405180830381600087803b15801561119c57600080fd5b505af11580156111b0573d6000803e3d6000fd5b5050505050565b60008282111561120e576040805162461bcd60e51b815260206004820152601e60248201527f536166654d6174683a207375627472616374696f6e206f766572666c6f770000604482015290519081900360640190fd5b50900390565b6060611269826040518060400160405280602081526020017f5361666545524332303a206c6f772d6c6576656c2063616c6c206661696c6564815250856001600160a01b03166112c59092919063ffffffff16565b805190915015610c095780806020019051602081101561128857600080fd5b5051610c095760405162461bcd60e51b815260040180806020018281038252602a815260200180611636602a913960400191505060405180910390fd5b60606112d484846000856112dc565b949350505050565b60608247101561131d5760405162461bcd60e51b815260040180806020018281038252602681526020018061159c6026913960400191505060405180910390fd5b61132685611438565b611377576040805162461bcd60e51b815260206004820152601d60248201527f416464726573733a2063616c6c20746f206e6f6e2d636f6e7472616374000000604482015290519081900360640190fd5b60006060866001600160a01b031685876040518082805190602001908083835b602083106113b65780518252601f199092019160209182019101611397565b6001836020036101000a03801982511681845116808217855250505050505090500191505060006040518083038185875af1925050503d8060008114611418576040519150601f19603f3d011682016040523d82523d6000602084013e61141d565b606091505b509150915061142d82828661143e565b979650505050505050565b3b151590565b6060831561144d575081610f11565b82511561145d5782518084602001fd5b8160405162461bcd60e51b81526004018080602001828103825283818151815260200191508051906020019080838360005b838110156114a757818101518382015260200161148f565b50505050905090810190601f1680156114d45780820380516001836020036101000a031916815260200191505b509250505060405180910390fd5b828054600181600116156101000203166002900490600052602060002090601f016020900481019282601f1061152357805160ff1916838001178555611550565b82800160010185558215611550579182015b82811115611550578251825591602001919060010190611535565b5061155c929150611560565b5090565b5b8082111561155c576000815560010161156156fe4f776e61626c653a206e6577206f776e657220697320746865207a65726f2061646472657373416464726573733a20696e73756666696369656e742062616c616e636520666f722063616c6c536166654d6174683a206d756c7469706c69636174696f6e206f766572666c6f774f776e61626c653a2063616c6c6572206973206e6f7420746865206f776e65725265736f75726365576974684368616e6e656c3a2043616e2062652063616c6c6564206279206368616e6e656c206f6e6c792e5361666545524332303a204552433230206f7065726174696f6e20646964206e6f7420737563636565645265736f757263653a206e6f7420656e6f756768207265736f757263657320746f207370656e642e5065726d697461626c653a2063616c6c6572206973206e6f74207065726d69747465642e5361666545524332303a20617070726f76652066726f6d206e6f6e2d7a65726f20746f206e6f6e2d7a65726f20616c6c6f77616e6365a2646970667358221220a2ac40804f92d6b40ffa3381ad412d3499603aee8dfd32ff8f9f8e203918716464736f6c634300070300334f776e61626c653a206e6577206f776e657220697320746865207a65726f20616464726573738be0079c531659141344cd1fd0a4f28419497f9722a3daafe3b4186f6b6457e0"
}