{
  "address": "0xF6aaA5e56e88381085cAAd7Ce801716d1A34411E",
  "abi": [
    {
      "inputs": [
        {
          "internalType": "address",
          "name": "owner",
          "type": "address"
        }
      ],
      "stateMutability": "nonpayable",
      "type": "constructor"
    },
    {
      "anonymous": false,
      "inputs": [
        {
          "indexed": true,
          "internalType": "address",
          "name": "resource",
          "type": "address"
        },
        {
          "indexed": true,
          "internalType": "address",
          "name": "from",
          "type": "address"
        },
        {
          "indexed": false,
          "internalType": "uint256",
          "name": "amount",
          "type": "uint256"
        }
      ],
      "name": "Bought",
      "type": "event"
    },
    {
      "anonymous": false,
      "inputs": [
        {
          "indexed": true,
          "internalType": "address",
          "name": "previousOwner",
          "type": "address"
        },
        {
          "indexed": true,
          "internalType": "address",
          "name": "newOwner",
          "type": "address"
        }
      ],
      "name": "OwnershipTransferred",
      "type": "event"
    },
    {
      "anonymous": false,
      "inputs": [
        {
          "indexed": true,
          "internalType": "address",
          "name": "childChannel",
          "type": "address"
        }
      ],
      "name": "SetChildChannel",
      "type": "event"
    },
    {
      "anonymous": false,
      "inputs": [
        {
          "indexed": true,
          "internalType": "address",
          "name": "rootChannel",
          "type": "address"
        }
      ],
      "name": "SetRootChannel",
      "type": "event"
    },
    {
      "anonymous": false,
      "inputs": [
        {
          "indexed": true,
          "internalType": "address",
          "name": "resource",
          "type": "address"
        },
        {
          "indexed": true,
          "internalType": "address",
          "name": "from",
          "type": "address"
        },
        {
          "indexed": false,
          "internalType": "uint256",
          "name": "amount",
          "type": "uint256"
        }
      ],
      "name": "Spent",
      "type": "event"
    },
    {
      "anonymous": false,
      "inputs": [
        {
          "indexed": true,
          "internalType": "address",
          "name": "resource",
          "type": "address"
        },
        {
          "indexed": true,
          "internalType": "address",
          "name": "from",
          "type": "address"
        },
        {
          "indexed": false,
          "internalType": "uint256",
          "name": "amount",
          "type": "uint256"
        }
      ],
      "name": "SpentRollUp",
      "type": "event"
    },
    {
      "inputs": [
        {
          "internalType": "address",
          "name": "",
          "type": "address"
        },
        {
          "internalType": "address",
          "name": "",
          "type": "address"
        }
      ],
      "name": "balances",
      "outputs": [
        {
          "internalType": "uint256",
          "name": "total",
          "type": "uint256"
        },
        {
          "internalType": "uint256",
          "name": "left",
          "type": "uint256"
        },
        {
          "internalType": "uint256",
          "name": "spent",
          "type": "uint256"
        }
      ],
      "stateMutability": "view",
      "type": "function"
    },
    {
      "inputs": [
        {
          "internalType": "address",
          "name": "resource",
          "type": "address"
        },
        {
          "internalType": "address",
          "name": "buyer",
          "type": "address"
        },
        {
          "internalType": "uint256",
          "name": "amount",
          "type": "uint256"
        }
      ],
      "name": "buy",
      "outputs": [],
      "stateMutability": "nonpayable",
      "type": "function"
    },
    {
      "inputs": [],
      "name": "channel",
      "outputs": [
        {
          "internalType": "contract IChildChannel",
          "name": "",
          "type": "address"
        }
      ],
      "stateMutability": "view",
      "type": "function"
    },
    {
      "inputs": [],
      "name": "owner",
      "outputs": [
        {
          "internalType": "address",
          "name": "",
          "type": "address"
        }
      ],
      "stateMutability": "view",
      "type": "function"
    },
    {
      "inputs": [],
      "name": "renounceOwnership",
      "outputs": [],
      "stateMutability": "nonpayable",
      "type": "function"
    },
    {
      "inputs": [],
      "name": "rootSpendRollUp",
      "outputs": [
        {
          "internalType": "bytes4",
          "name": "",
          "type": "bytes4"
        }
      ],
      "stateMutability": "view",
      "type": "function"
    },
    {
      "inputs": [
        {
          "internalType": "contract IChildChannel",
          "name": "_channel",
          "type": "address"
        }
      ],
      "name": "setChildChannel",
      "outputs": [],
      "stateMutability": "nonpayable",
      "type": "function"
    },
    {
      "inputs": [
        {
          "internalType": "address",
          "name": "_rootChannel",
          "type": "address"
        }
      ],
      "name": "setRootChannel",
      "outputs": [],
      "stateMutability": "nonpayable",
      "type": "function"
    },
    {
      "inputs": [
        {
          "internalType": "address",
          "name": "resource",
          "type": "address"
        },
        {
          "internalType": "address",
          "name": "buyer",
          "type": "address"
        },
        {
          "internalType": "uint256",
          "name": "amount",
          "type": "uint256"
        }
      ],
      "name": "spend",
      "outputs": [],
      "stateMutability": "nonpayable",
      "type": "function"
    },
    {
      "inputs": [
        {
          "internalType": "address",
          "name": "resource",
          "type": "address"
        },
        {
          "internalType": "address",
          "name": "buyer",
          "type": "address"
        }
      ],
      "name": "spendRollUp",
      "outputs": [],
      "stateMutability": "nonpayable",
      "type": "function"
    },
    {
      "inputs": [
        {
          "internalType": "address",
          "name": "newOwner",
          "type": "address"
        }
      ],
      "name": "transferOwnership",
      "outputs": [],
      "stateMutability": "nonpayable",
      "type": "function"
    }
  ],
  "transactionHash": "0x027e9ba8d619ad0085abd44a6e95b2490c6c8d2c765c6f742569bd861bcfd9df",
  "args": [
    "0xa995AE28b9cFf206C3971D1887cc934FC48e3a0F"
  ],
  "bytecode": "0x60806040526001805463ffffffff60a01b191663af7d6ca360a01b17905534801561002957600080fd5b50604051610f03380380610f038339818101604052602081101561004c57600080fd5b5051600061005861009f565b600080546001600160a01b0319166001600160a01b038316908117825560405192935091600080516020610ee3833981519152908290a350610099816100a3565b506101b4565b3390565b6100ab61009f565b6001600160a01b03166100bc6101a5565b6001600160a01b031614610117576040805162461bcd60e51b815260206004820181905260248201527f4f776e61626c653a2063616c6c6572206973206e6f7420746865206f776e6572604482015290519081900360640190fd5b6001600160a01b03811661015c5760405162461bcd60e51b8152600401808060200182810382526026815260200180610ebd6026913960400191505060405180910390fd5b600080546040516001600160a01b0380851693921691600080516020610ee383398151915291a3600080546001600160a01b0319166001600160a01b0392909216919091179055565b6000546001600160a01b031690565b610cfa806101c36000396000f3fe608060405234801561001057600080fd5b50600436106100a95760003560e01c80638da5cb5b116100715780638da5cb5b1461016e5780638f890b361461017657806392079dc51461019b578063b818198d146101c1578063c23f001f146101ef578063f2fde38b1461023b576100a9565b8063153e66e6146100ae5780632c76b3c2146100e6578063715018a61461010c578063791c27ef146101145780637bbdb96e1461014a575b600080fd5b6100e4600480360360608110156100c457600080fd5b506001600160a01b03813581169160208101359091169060400135610261565b005b6100e4600480360360208110156100fc57600080fd5b50356001600160a01b031661037b565b6100e4610427565b6100e46004803603606081101561012a57600080fd5b506001600160a01b038135811691602081013590911690604001356104d3565b610152610675565b604080516001600160a01b039092168252519081900360200190f35b610152610684565b61017e610693565b604080516001600160e01b03199092168252519081900360200190f35b6100e4600480360360208110156101b157600080fd5b50356001600160a01b03166106a3565b6100e4600480360360408110156101d757600080fd5b506001600160a01b03813581169160200135166107a2565b61021d6004803603604081101561020557600080fd5b506001600160a01b038135811691602001351661096a565b60408051938452602084019290925282820152519081900360600190f35b6100e46004803603602081101561025157600080fd5b50356001600160a01b0316610992565b6001546001600160a01b031633146102aa5760405162461bcd60e51b8152600401808060200182810382526033815260200180610c646033913960400191505060405180910390fd5b6001600160a01b038084166000908152600260209081526040808320938616835292905220546102da9082610a94565b6001600160a01b038481166000908152600260209081526040808320938716835292905220908155600101546103109082610a94565b6001600160a01b038085166000818152600260209081526040808320948816808452948252918290206001019490945580518581529051929391927f0a553f03004ca54c18763b68c9ef162311a3c847d15f2d2e12a39cdf28e966ce929181900390910190a3505050565b610383610af5565b6001600160a01b0316610394610684565b6001600160a01b0316146103dd576040805162461bcd60e51b81526020600482018190526024820152600080516020610c44833981519152604482015290519081900360640190fd5b600180546001600160a01b0319166001600160a01b0383169081179091556040517fe54b19c181b769fe92eecce1051e5d0dde17a8b319992db9dbf3d6aab0fa247690600090a250565b61042f610af5565b6001600160a01b0316610440610684565b6001600160a01b031614610489576040805162461bcd60e51b81526020600482018190526024820152600080516020610c44833981519152604482015290519081900360640190fd5b600080546040516001600160a01b03909116907f8be0079c531659141344cd1fd0a4f28419497f9722a3daafe3b4186f6b6457e0908390a3600080546001600160a01b0319169055565b6104db610af5565b6001600160a01b03166104ec610684565b6001600160a01b031614610535576040805162461bcd60e51b81526020600482018190526024820152600080516020610c44833981519152604482015290519081900360640190fd5b6001600160a01b0380841660009081526002602090815260408083209386168352929052206001015481111561059c5760405162461bcd60e51b815260040180806020018281038252602e815260200180610c97602e913960400191505060405180910390fd5b6001600160a01b038084166000908152600260209081526040808320938616835292905220600101546105cf9082610af9565b6001600160a01b03848116600090815260026020818152604080842094881684529390529190206001810192909255015461060a9082610a94565b6001600160a01b038085166000818152600260208181526040808420958916808552958252928390209091019490945580518581529051929391927fc18352ae46a2296c951b2256c5ebc5b4546e6222fea2e4f36e824db9d44eb7ec929181900390910190a3505050565b6001546001600160a01b031681565b6000546001600160a01b031690565b600154600160a01b900460e01b81565b6106ab610af5565b6001600160a01b03166106bc610684565b6001600160a01b031614610705576040805162461bcd60e51b81526020600482018190526024820152600080516020610c44833981519152604482015290519081900360640190fd5b600154604080516392079dc560e01b81526001600160a01b038481166004830152915191909216916392079dc591602480830192600092919082900301818387803b15801561075357600080fd5b505af1158015610767573d6000803e3d6000fd5b50506040516001600160a01b03841692507f100f8c3e1ccb621715219a08019952cd61ec92c46113d94f52f39df38db7daf29150600090a250565b6107aa610af5565b6001600160a01b03166107bb610684565b6001600160a01b031614610804576040805162461bcd60e51b81526020600482018190526024820152600080516020610c44833981519152604482015290519081900360640190fd5b6001600160a01b03828116600081815260026020818152604080842095871680855295825280842090920180549084905560015483516024810197909752604480880183905284518089039091018152606490970184528683018051600160a01b90920460e01b6001600160e01b0319166001600160e01b039092169190911781528351928301958652828401938452865160608401528651919695610919958a95889592949093608090930192918190849084905b838110156108d25781810151838201526020016108ba565b50505050905090810190601f1680156108ff5780820380516001836020036101000a031916815260200191505b509350505050604051602081830303815290604052610b56565b826001600160a01b0316846001600160a01b03167fb5d1c89a97b6a1f801b801cdc891e9612906aec91595dc7907c7d79036901427846040518082815260200191505060405180910390a350505050565b6002602081815260009384526040808520909152918352912080546001820154919092015483565b61099a610af5565b6001600160a01b03166109ab610684565b6001600160a01b0316146109f4576040805162461bcd60e51b81526020600482018190526024820152600080516020610c44833981519152604482015290519081900360640190fd5b6001600160a01b038116610a395760405162461bcd60e51b8152600401808060200182810382526026815260200180610c1e6026913960400191505060405180910390fd5b600080546040516001600160a01b03808516939216917f8be0079c531659141344cd1fd0a4f28419497f9722a3daafe3b4186f6b6457e091a3600080546001600160a01b0319166001600160a01b0392909216919091179055565b600082820183811015610aee576040805162461bcd60e51b815260206004820152601b60248201527f536166654d6174683a206164646974696f6e206f766572666c6f770000000000604482015290519081900360640190fd5b9392505050565b3390565b600082821115610b50576040805162461bcd60e51b815260206004820152601e60248201527f536166654d6174683a207375627472616374696f6e206f766572666c6f770000604482015290519081900360640190fd5b50900390565b600154604051634d089f7160e11b81526020600482018181528451602484015284516001600160a01b0390941693639a113ee293869383926044909201919085019080838360005b83811015610bb6578181015183820152602001610b9e565b50505050905090810190601f168015610be35780820380516001836020036101000a031916815260200191505b5092505050600060405180830381600087803b158015610c0257600080fd5b505af1158015610c16573d6000803e3d6000fd5b505050505056fe4f776e61626c653a206e6577206f776e657220697320746865207a65726f20616464726573734f776e61626c653a2063616c6c6572206973206e6f7420746865206f776e65725265736f75726365576974684368616e6e656c3a2043616e2062652063616c6c6564206279206368616e6e656c206f6e6c792e5265736f757263654d616e616765723a204e6f7420656e6f756768207265736f7572636520746f207370656e642ea2646970667358221220086ed9f7865b6cc9fb53b12f1b8dbda7d238c1baff7fc67083c411d9523af86364736f6c634300070300334f776e61626c653a206e6577206f776e657220697320746865207a65726f20616464726573738be0079c531659141344cd1fd0a4f28419497f9722a3daafe3b4186f6b6457e0"
}