{
  "address": "0xf413ee041D57D972657E98D20E41f575616a068f",
  "abi": [
    {
      "inputs": [
        {
          "internalType": "address",
          "name": "owner",
          "type": "address"
        }
      ],
      "stateMutability": "nonpayable",
      "type": "constructor"
    },
    {
      "anonymous": false,
      "inputs": [
        {
          "indexed": true,
          "internalType": "address",
          "name": "buyer",
          "type": "address"
        },
        {
          "indexed": false,
          "internalType": "uint256",
          "name": "amount",
          "type": "uint256"
        },
        {
          "indexed": false,
          "internalType": "uint256",
          "name": "deadline",
          "type": "uint256"
        }
      ],
      "name": "MintStorage",
      "type": "event"
    },
    {
      "anonymous": false,
      "inputs": [
        {
          "indexed": true,
          "internalType": "address",
          "name": "previousOwner",
          "type": "address"
        },
        {
          "indexed": true,
          "internalType": "address",
          "name": "newOwner",
          "type": "address"
        }
      ],
      "name": "OwnershipTransferred",
      "type": "event"
    },
    {
      "anonymous": false,
      "inputs": [
        {
          "indexed": true,
          "internalType": "address",
          "name": "buyer",
          "type": "address"
        },
        {
          "indexed": true,
          "internalType": "uint8",
          "name": "operation",
          "type": "uint8"
        },
        {
          "indexed": true,
          "internalType": "bytes32",
          "name": "key",
          "type": "bytes32"
        },
        {
          "indexed": false,
          "internalType": "bytes",
          "name": "cid",
          "type": "bytes"
        },
        {
          "indexed": false,
          "internalType": "uint256",
          "name": "size",
          "type": "uint256"
        }
      ],
      "name": "Pin",
      "type": "event"
    },
    {
      "anonymous": false,
      "inputs": [
        {
          "indexed": true,
          "internalType": "address",
          "name": "childChannel",
          "type": "address"
        }
      ],
      "name": "SetChildChannel",
      "type": "event"
    },
    {
      "anonymous": false,
      "inputs": [
        {
          "indexed": true,
          "internalType": "address",
          "name": "rootChannel",
          "type": "address"
        }
      ],
      "name": "SetRootChannel",
      "type": "event"
    },
    {
      "inputs": [
        {
          "internalType": "uint256",
          "name": "index",
          "type": "uint256"
        }
      ],
      "name": "accountAt",
      "outputs": [
        {
          "internalType": "address",
          "name": "account",
          "type": "address"
        }
      ],
      "stateMutability": "view",
      "type": "function"
    },
    {
      "inputs": [],
      "name": "accountsLength",
      "outputs": [
        {
          "internalType": "uint256",
          "name": "",
          "type": "uint256"
        }
      ],
      "stateMutability": "view",
      "type": "function"
    },
    {
      "inputs": [],
      "name": "channel",
      "outputs": [
        {
          "internalType": "contract IChildChannel",
          "name": "",
          "type": "address"
        }
      ],
      "stateMutability": "view",
      "type": "function"
    },
    {
      "inputs": [
        {
          "internalType": "address",
          "name": "buyer",
          "type": "address"
        },
        {
          "internalType": "uint256",
          "name": "index",
          "type": "uint256"
        }
      ],
      "name": "cidAt",
      "outputs": [
        {
          "components": [
            {
              "internalType": "uint256",
              "name": "size",
              "type": "uint256"
            },
            {
              "internalType": "bytes",
              "name": "data",
              "type": "bytes"
            }
          ],
          "internalType": "struct EnumerableCID.CID",
          "name": "cid",
          "type": "tuple"
        }
      ],
      "stateMutability": "view",
      "type": "function"
    },
    {
      "inputs": [
        {
          "internalType": "address",
          "name": "buyer",
          "type": "address"
        }
      ],
      "name": "cidLength",
      "outputs": [
        {
          "internalType": "uint256",
          "name": "",
          "type": "uint256"
        }
      ],
      "stateMutability": "view",
      "type": "function"
    },
    {
      "inputs": [
        {
          "internalType": "uint256",
          "name": "offset",
          "type": "uint256"
        },
        {
          "internalType": "uint256",
          "name": "limit",
          "type": "uint256"
        }
      ],
      "name": "getAccounts",
      "outputs": [
        {
          "internalType": "address[]",
          "name": "accounts",
          "type": "address[]"
        }
      ],
      "stateMutability": "view",
      "type": "function"
    },
    {
      "inputs": [
        {
          "internalType": "address",
          "name": "buyer",
          "type": "address"
        },
        {
          "internalType": "uint256",
          "name": "offset",
          "type": "uint256"
        },
        {
          "internalType": "uint256",
          "name": "limit",
          "type": "uint256"
        }
      ],
      "name": "getCIDs",
      "outputs": [
        {
          "components": [
            {
              "internalType": "uint256",
              "name": "size",
              "type": "uint256"
            },
            {
              "internalType": "bytes",
              "name": "data",
              "type": "bytes"
            }
          ],
          "internalType": "struct EnumerableCID.CID[]",
          "name": "cids",
          "type": "tuple[]"
        }
      ],
      "stateMutability": "view",
      "type": "function"
    },
    {
      "inputs": [
        {
          "internalType": "address",
          "name": "_storageResource",
          "type": "address"
        },
        {
          "internalType": "address",
          "name": "buyer",
          "type": "address"
        },
        {
          "internalType": "uint256",
          "name": "amount",
          "type": "uint256"
        },
        {
          "internalType": "uint256",
          "name": "deadline",
          "type": "uint256"
        }
      ],
      "name": "mintStorage",
      "outputs": [],
      "stateMutability": "nonpayable",
      "type": "function"
    },
    {
      "inputs": [],
      "name": "owner",
      "outputs": [
        {
          "internalType": "address",
          "name": "",
          "type": "address"
        }
      ],
      "stateMutability": "view",
      "type": "function"
    },
    {
      "inputs": [
        {
          "internalType": "address",
          "name": "pinManager",
          "type": "address"
        },
        {
          "internalType": "bool",
          "name": "isPermit",
          "type": "bool"
        }
      ],
      "name": "permitPin",
      "outputs": [],
      "stateMutability": "nonpayable",
      "type": "function"
    },
    {
      "inputs": [
        {
          "internalType": "address",
          "name": "",
          "type": "address"
        }
      ],
      "name": "permittedPinManagers",
      "outputs": [
        {
          "internalType": "bool",
          "name": "",
          "type": "bool"
        }
      ],
      "stateMutability": "view",
      "type": "function"
    },
    {
      "inputs": [
        {
          "internalType": "address",
          "name": "buyer",
          "type": "address"
        },
        {
          "internalType": "bytes",
          "name": "cid",
          "type": "bytes"
        },
        {
          "internalType": "uint256",
          "name": "size",
          "type": "uint256"
        }
      ],
      "name": "pinAdd",
      "outputs": [],
      "stateMutability": "nonpayable",
      "type": "function"
    },
    {
      "inputs": [
        {
          "internalType": "address",
          "name": "buyer",
          "type": "address"
        },
        {
          "internalType": "bytes",
          "name": "cid",
          "type": "bytes"
        }
      ],
      "name": "pinRemove",
      "outputs": [],
      "stateMutability": "nonpayable",
      "type": "function"
    },
    {
      "inputs": [],
      "name": "renounceOwnership",
      "outputs": [],
      "stateMutability": "nonpayable",
      "type": "function"
    },
    {
      "inputs": [],
      "name": "rootStorageSpend",
      "outputs": [
        {
          "internalType": "bytes4",
          "name": "",
          "type": "bytes4"
        }
      ],
      "stateMutability": "view",
      "type": "function"
    },
    {
      "inputs": [
        {
          "internalType": "contract IChildChannel",
          "name": "_channel",
          "type": "address"
        }
      ],
      "name": "setChildChannel",
      "outputs": [],
      "stateMutability": "nonpayable",
      "type": "function"
    },
    {
      "inputs": [
        {
          "internalType": "address",
          "name": "_rootChannel",
          "type": "address"
        }
      ],
      "name": "setRootChannel",
      "outputs": [],
      "stateMutability": "nonpayable",
      "type": "function"
    },
    {
      "inputs": [
        {
          "internalType": "address",
          "name": "buyer",
          "type": "address"
        }
      ],
      "name": "spendStorage",
      "outputs": [],
      "stateMutability": "nonpayable",
      "type": "function"
    },
    {
      "inputs": [
        {
          "internalType": "address",
          "name": "",
          "type": "address"
        }
      ],
      "name": "storageBalances",
      "outputs": [
        {
          "internalType": "uint256",
          "name": "total",
          "type": "uint256"
        },
        {
          "internalType": "uint256",
          "name": "left",
          "type": "uint256"
        },
        {
          "internalType": "uint256",
          "name": "deadline",
          "type": "uint256"
        }
      ],
      "stateMutability": "view",
      "type": "function"
    },
    {
      "inputs": [],
      "name": "storageResource",
      "outputs": [
        {
          "internalType": "address",
          "name": "",
          "type": "address"
        }
      ],
      "stateMutability": "view",
      "type": "function"
    },
    {
      "inputs": [
        {
          "internalType": "address",
          "name": "newOwner",
          "type": "address"
        }
      ],
      "name": "transferOwnership",
      "outputs": [],
      "stateMutability": "nonpayable",
      "type": "function"
    }
  ],
  "transactionHash": "0xebd803ce2c62f1f094c94f84ffa39933e06340f2cb671abf3d6344a41b710447",
  "args": [
    "0xa995AE28b9cFf206C3971D1887cc934FC48e3a0F"
  ],
  "bytecode": "0x60806040526004805463ffffffff191663af7d6ca31790553480156200002457600080fd5b5060405162001eb938038062001eb9833981016040819052620000479162000156565b6200005b620000556200006d565b62000071565b6200006681620000c1565b5062000201565b3390565b600080546001600160a01b038381166001600160a01b0319831681178455604051919092169283917f8be0079c531659141344cd1fd0a4f28419497f9722a3daafe3b4186f6b6457e09190a35050565b620000cb6200006d565b6001600160a01b0316620000de62000147565b6001600160a01b031614620001105760405162461bcd60e51b81526004016200010790620001cc565b60405180910390fd5b6001600160a01b038116620001395760405162461bcd60e51b8152600401620001079062000186565b620001448162000071565b50565b6000546001600160a01b031690565b60006020828403121562000168578081fd5b81516001600160a01b03811681146200017f578182fd5b9392505050565b60208082526026908201527f4f776e61626c653a206e6577206f776e657220697320746865207a65726f206160408201526564647265737360d01b606082015260800190565b6020808252818101527f4f776e61626c653a2063616c6c6572206973206e6f7420746865206f776e6572604082015260600190565b611ca880620002116000396000f3fe608060405234801561001057600080fd5b50600436106101365760003560e01c80638eb4f090116100b8578063b7e823041161007c578063b7e8230414610264578063dd5dc73b14610284578063e51442e314610297578063e68a7c3b146102aa578063f2fde38b146102ca578063fda7f7ab146102dd57610136565b80638eb4f0901461020357806392079dc5146102235780639e30713e14610236578063a2cbca5614610249578063afc840791461025157610136565b8063715018a6116100ff578063715018a6146101b657806371a97745146101be5780637a8caa02146101d35780637bbdb96e146101e65780638da5cb5b146101fb57610136565b8062aa7b571461013b57806306bd04d2146101505780630b9c181f1461017b5780632c76b3c2146101905780634898bcf8146101a3575b600080fd5b61014e6101493660046115b0565b6102fd565b005b61016361015e366004611594565b610378565b60405161017293929190611b96565b60405180910390f35b610183610399565b60405161017291906118fe565b61014e61019e366004611594565b6103a2565b61014e6101b136600461167f565b61042b565b61014e6106a4565b6101c66106ef565b6040516101729190611b7f565b6101c66101e1366004611594565b610700565b6101ee610727565b60405161017291906117f5565b6101ee610736565b6102166102113660046116d6565b610745565b6040516101729190611b6c565b61014e610231366004611594565b610777565b61014e6102443660046115f5565b61084f565b6101ee6108b9565b61014e61025f366004611631565b6108c8565b610277610272366004611594565b610a4b565b60405161017291906118f3565b61014e610292366004611594565b610a60565b6101ee6102a5366004611735565b610b82565b6102bd6102b836600461174d565b610b96565b6040516101729190611846565b61014e6102d8366004611594565b610c54565b6102f06102eb366004611701565b610cc5565b6040516101729190611893565b6001546001600160a01b031633146103305760405162461bcd60e51b815260040161032790611b19565b60405180910390fd5b6103658360405160200161034491906117d8565b60408051601f19818403018152919052805160209091012060059085610d89565b5061037284848484610dbc565b50505050565b60036020526000908152604090208054600182015460029092015490919083565b60045460e01b81565b6103aa610e9d565b6001600160a01b03166103bb610736565b6001600160a01b0316146103e15760405162461bcd60e51b815260040161032790611a33565b600180546001600160a01b0319166001600160a01b0383169081179091556040517fe54b19c181b769fe92eecce1051e5d0dde17a8b319992db9dbf3d6aab0fa247690600090a250565b818051602e1461044d5760405162461bcd60e51b815260040161032790611a68565b816000811161046e5760405162461bcd60e51b8152600401610327906119fc565b3360009081526009602052604090205460ff1661049d5760405162461bcd60e51b81526004016103279061198e565b6001600160a01b0385166000908152600360205260409020600101548311156104d85760405162461bcd60e51b815260040161032790611a9f565b83516020808601919091206001600160a01b0387166000908152600890925260409091206105069082610ea1565b156105e65760006105178783610ead565b5190508481116000816105335761052e8784610ed7565b61053d565b61053d8388610ed7565b90508161056f576001600160a01b03891660009081526003602052604090206001015461056a9082610ed7565b610595565b6001600160a01b0389166000908152600360205260409020600101546105959082610ee3565b6001600160a01b038a16600081815260036020908152604080832060010194909455835180850185528b81528082018d905292825260089052919091206105dd918690610eef565b50505050610656565b6001600160a01b03861660009081526003602052604090206001015461060c9085610ed7565b6001600160a01b038716600081815260036020908152604080832060010194909455835180850185528881528082018a90529282526008905291909120610654918390610eef565b505b806000876001600160a01b03167f9fe62b32d7b5558e0f55106987ea0da9870abe66e7b3a14fdc3d482bc2f01fbe8888604051610694929190611926565b60405180910390a4505050505050565b6106ac610e9d565b6001600160a01b03166106bd610736565b6001600160a01b0316146106e35760405162461bcd60e51b815260040161032790611a33565b6106ed6000610f2d565b565b60006106fb6005610f7d565b905090565b6001600160a01b038116600090815260086020526040812061072190610f7d565b92915050565b6001546001600160a01b031681565b6000546001600160a01b031690565b61074d611428565b6001600160a01b038316600090815260086020526040902061076f9083610f88565b949350505050565b61077f610e9d565b6001600160a01b0316610790610736565b6001600160a01b0316146107b65760405162461bcd60e51b815260040161032790611a33565b6001546040516392079dc560e01b81526001600160a01b03909116906392079dc5906107e69084906004016117f5565b600060405180830381600087803b15801561080057600080fd5b505af1158015610814573d6000803e3d6000fd5b50506040516001600160a01b03841692507f100f8c3e1ccb621715219a08019952cd61ec92c46113d94f52f39df38db7daf29150600090a250565b610857610e9d565b6001600160a01b0316610868610736565b6001600160a01b03161461088e5760405162461bcd60e51b815260040161032790611a33565b6001600160a01b03919091166000908152600960205260409020805460ff1916911515919091179055565b6002546001600160a01b031681565b808051602e146108ea5760405162461bcd60e51b815260040161032790611a68565b3360009081526009602052604090205460ff166109195760405162461bcd60e51b81526004016103279061198e565b81516020808401919091206001600160a01b0385166000908152600890925260409091206109479082610ea1565b15610372576001600160a01b038416600090815260086020526040812061096e908361106c565b516001600160a01b038616600090815260036020526040812060010154919250906109999083610ee3565b6001600160a01b03871660009081526003602052604090205490915081116109c157806109db565b6001600160a01b0386166000908152600360205260409020545b6001600160a01b0387166000908152600360209081526040808320600101939093556008905220610a0c908461116a565b50826001876001600160a01b03167f9fe62b32d7b5558e0f55106987ea0da9870abe66e7b3a14fdc3d482bc2f01fbe8886604051610694929190611926565b60096020526000908152604090205460ff1681565b610a68610e9d565b6001600160a01b0316610a79610736565b6001600160a01b031614610a9f5760405162461bcd60e51b815260040161032790611a33565b6002546001600160a01b0316610ac75760405162461bcd60e51b8152600401610327906119c5565b6001600160a01b038116600090815260036020526040812060018101549054610aef91610ed7565b60045460405191925060009160e09190911b90610b12908590859060240161182d565b60408051601f19818403018152918152602080830180516001600160e01b03166001600160e01b0319909516949094179093526002549051919350610b7d92610b69926001600160a01b0390921691859101611809565b604051602081830303815290604052611198565b505050565b6000610b8f6005836111fd565b9392505050565b60608167ffffffffffffffff811115610bbf57634e487b7160e01b600052604160045260246000fd5b604051908082528060200260200182016040528015610be8578160200160208202803683370190505b50905060005b82811015610c4d57610c036102a58583610ee3565b828281518110610c2357634e487b7160e01b600052603260045260246000fd5b6001600160a01b039092166020928302919091019091015280610c4581611c16565b915050610bee565b5092915050565b610c5c610e9d565b6001600160a01b0316610c6d610736565b6001600160a01b031614610c935760405162461bcd60e51b815260040161032790611a33565b6001600160a01b038116610cb95760405162461bcd60e51b815260040161032790611948565b610cc281610f2d565b50565b60608167ffffffffffffffff811115610cee57634e487b7160e01b600052604160045260246000fd5b604051908082528060200260200182016040528015610d2757816020015b610d14611428565b815260200190600190039081610d0c5790505b50905060005b82811015610d8157610d43856102118684610ee3565b828281518110610d6357634e487b7160e01b600052603260045260246000fd5b60200260200101819052508080610d7990611c16565b915050610d2d565b509392505050565b6000828152600284016020526040812080546001600160a01b0319166001600160a01b03841617905561076f8484611232565b6002546001600160a01b0316610de857600280546001600160a01b0319166001600160a01b0386161790555b6001600160a01b038316600090815260036020526040902054610e0b9083610ee3565b6001600160a01b038416600090815260036020526040902090815560010154610e349083610ee3565b6001600160a01b038416600081815260036020526040908190206001810193909355600290920183905590517fd682007e3c7b8d3011178c2d262fde683d36194368cef75883ae8962194bce8b90610e8f9085908590611b88565b60405180910390a250505050565b3390565b6000610b8f838361123e565b610eb5611428565b6001600160a01b0383166000908152600860205260409020610b8f908361106c565b6000610b8f8284611bc4565b6000610b8f8284611bac565b600082815260028401602090815260408220835181558184015180518593610f1e926001850192910190611442565b5061076f915085905084611232565b600080546001600160a01b038381166001600160a01b0319831681178455604051919092169283917f8be0079c531659141344cd1fd0a4f28419497f9722a3daafe3b4186f6b6457e09190a35050565b60006107218261124a565b6000610f92611428565b6000610f9e8585611255565b9050808560020160008381526020019081526020016000208060405180604001604052908160008201548152602001600182018054610fdc90611bdb565b80601f016020809104026020016040519081016040528092919081815260200182805461100890611bdb565b80156110555780601f1061102a57610100808354040283529160200191611055565b820191906000526020600020905b81548152906001019060200180831161103857829003601f168201915b505050505081525050905092509250509250929050565b611074611428565b6000836002016000848152602001908152602001600020604051806040016040529081600082015481526020016001820180546110b090611bdb565b80601f01602080910402602001604051908101604052809291908181526020018280546110dc90611bdb565b80156111295780601f106110fe57610100808354040283529160200191611129565b820191906000526020600020905b81548152906001019060200180831161110c57829003601f168201915b5050505050815250509050806020015151600014158061114e575061114e8484610ea1565b610b8f5760405162461bcd60e51b815260040161032790611ae2565b600081815260028301602052604081208181558161118b60018301826114c6565b50610b8f90508383611261565b600154604051634d089f7160e11b81526001600160a01b0390911690639a113ee2906111c8908490600401611913565b600060405180830381600087803b1580156111e257600080fd5b505af11580156111f6573d6000803e3d6000fd5b5050505050565b6000808061120b8585611255565b60008181526002870160205260409020549093506001600160a01b03169150509250929050565b6000610b8f838361126d565b6000610b8f83836112b7565b6000610721826112cf565b6000610b8f83836112d3565b6000610b8f838361130b565b600061127983836112b7565b6112af57508154600181810184556000848152602080822090930184905584548482528286019093526040902091909155610721565b506000610721565b60009081526001919091016020526040902054151590565b5490565b60008260000182815481106112f857634e487b7160e01b600052603260045260246000fd5b9060005260206000200154905092915050565b6000818152600183016020526040812054801561141e57600061132f600183611bc4565b855490915060009061134390600190611bc4565b90508181146113c457600086600001828154811061137157634e487b7160e01b600052603260045260246000fd5b90600052602060002001549050808760000184815481106113a257634e487b7160e01b600052603260045260246000fd5b6000918252602080832090910192909255918252600188019052604090208390555b85548690806113e357634e487b7160e01b600052603160045260246000fd5b600190038181906000526020600020016000905590558560010160008681526020019081526020016000206000905560019350505050610721565b6000915050610721565b604051806040016040528060008152602001606081525090565b82805461144e90611bdb565b90600052602060002090601f01602090048101928261147057600085556114b6565b82601f1061148957805160ff19168380011785556114b6565b828001600101855582156114b6579182015b828111156114b657825182559160200191906001019061149b565b506114c29291506114fe565b5090565b5080546114d290611bdb565b6000825580601f106114e45750610cc2565b601f016020900490600052602060002090810190610cc291905b5b808211156114c257600081556001016114ff565b600082601f830112611523578081fd5b813567ffffffffffffffff8082111561153e5761153e611c47565b604051601f8301601f19168101602001828111828210171561156257611562611c47565b604052828152848301602001861015611579578384fd5b82602086016020830137918201602001929092529392505050565b6000602082840312156115a5578081fd5b8135610b8f81611c5d565b600080600080608085870312156115c5578283fd5b84356115d081611c5d565b935060208501356115e081611c5d565b93969395505050506040820135916060013590565b60008060408385031215611607578182fd5b823561161281611c5d565b915060208301358015158114611626578182fd5b809150509250929050565b60008060408385031215611643578182fd5b823561164e81611c5d565b9150602083013567ffffffffffffffff811115611669578182fd5b61167585828601611513565b9150509250929050565b600080600060608486031215611693578283fd5b833561169e81611c5d565b9250602084013567ffffffffffffffff8111156116b9578283fd5b6116c586828701611513565b925050604084013590509250925092565b600080604083850312156116e8578182fd5b82356116f381611c5d565b946020939093013593505050565b600080600060608486031215611715578283fd5b833561172081611c5d565b95602085013595506040909401359392505050565b600060208284031215611746578081fd5b5035919050565b6000806040838503121561175f578182fd5b50508035926020909101359150565b60008151808452815b8181101561179357602081850181015186830182015201611777565b818111156117a45782602083870101525b50601f01601f19169290920160200192915050565b60008151835260208201516040602085015261076f604085018261176e565b60609190911b6bffffffffffffffffffffffff1916815260140190565b6001600160a01b0391909116815260200190565b6001600160a01b038316815260406020820181905260009061076f9083018461176e565b6001600160a01b03929092168252602082015260400190565b6020808252825182820181905260009190848201906040850190845b818110156118875783516001600160a01b031683529284019291840191600101611862565b50909695505050505050565b6000602080830181845280855180835260408601915060408482028701019250838701855b828110156118e657603f198886030184526118d48583516117b9565b945092850192908501906001016118b8565b5092979650505050505050565b901515815260200190565b6001600160e01b031991909116815260200190565b600060208252610b8f602083018461176e565b600060408252611939604083018561176e565b90508260208301529392505050565b60208082526026908201527f4f776e61626c653a206e6577206f776e657220697320746865207a65726f206160408201526564647265737360d01b606082015260800190565b6020808252601b908201527f53746f726167653a2070696e206e6f74207065726d69747465642e0000000000604082015260600190565b60208082526017908201527f73746f72616765206e6f7420696e697469616c697a6564000000000000000000604082015260600190565b6020808252601a908201527f53746f726167653a20696e76616c6964206369642073697a652e000000000000604082015260600190565b6020808252818101527f4f776e61626c653a2063616c6c6572206973206e6f7420746865206f776e6572604082015260600190565b6020808252601c908201527f53746f726167653a20696e76616c696420636964206c656e6774682e00000000604082015260600190565b60208082526023908201527f53746f726167653a206e6f7420656e6f7567682073746f7261676520746f207060408201526234b71760e91b606082015260800190565b6020808252601e908201527f456e756d657261626c654d61703a206e6f6e6578697374656e74206b65790000604082015260600190565b60208082526033908201527f5265736f75726365576974684368616e6e656c3a2043616e2062652063616c6c60408201527232b210313c9031b430b73732b61037b7363c9760691b606082015260800190565b600060208252610b8f60208301846117b9565b90815260200190565b918252602082015260400190565b9283526020830191909152604082015260600190565b60008219821115611bbf57611bbf611c31565b500190565b600082821015611bd657611bd6611c31565b500390565b600281046001821680611bef57607f821691505b60208210811415611c1057634e487b7160e01b600052602260045260246000fd5b50919050565b6000600019821415611c2a57611c2a611c31565b5060010190565b634e487b7160e01b600052601160045260246000fd5b634e487b7160e01b600052604160045260246000fd5b6001600160a01b0381168114610cc257600080fdfea26469706673582212206607544ebe83fae3f8cdeedf5e84c50c0b23b9403208ba8c598ff10713748caf64736f6c63430008000033"
}