{
  "address": "0xE92c236f8b6B84FbfDF8AdEFF6D49846539664Bb",
  "abi": [
    {
      "inputs": [
        {
          "internalType": "address",
          "name": "owner",
          "type": "address"
        }
      ],
      "stateMutability": "nonpayable",
      "type": "constructor"
    },
    {
      "anonymous": false,
      "inputs": [
        {
          "indexed": true,
          "internalType": "address",
          "name": "buyer",
          "type": "address"
        },
        {
          "indexed": false,
          "internalType": "uint256",
          "name": "amount",
          "type": "uint256"
        },
        {
          "indexed": false,
          "internalType": "uint256",
          "name": "deadline",
          "type": "uint256"
        }
      ],
      "name": "MintStorage",
      "type": "event"
    },
    {
      "anonymous": false,
      "inputs": [
        {
          "indexed": true,
          "internalType": "address",
          "name": "previousOwner",
          "type": "address"
        },
        {
          "indexed": true,
          "internalType": "address",
          "name": "newOwner",
          "type": "address"
        }
      ],
      "name": "OwnershipTransferred",
      "type": "event"
    },
    {
      "anonymous": false,
      "inputs": [
        {
          "indexed": true,
          "internalType": "address",
          "name": "buyer",
          "type": "address"
        },
        {
          "indexed": true,
          "internalType": "uint8",
          "name": "operation",
          "type": "uint8"
        },
        {
          "indexed": true,
          "internalType": "bytes32",
          "name": "key",
          "type": "bytes32"
        },
        {
          "indexed": false,
          "internalType": "bytes",
          "name": "cid",
          "type": "bytes"
        },
        {
          "indexed": false,
          "internalType": "uint256",
          "name": "size",
          "type": "uint256"
        }
      ],
      "name": "Pin",
      "type": "event"
    },
    {
      "anonymous": false,
      "inputs": [
        {
          "indexed": true,
          "internalType": "address",
          "name": "childChannel",
          "type": "address"
        }
      ],
      "name": "SetChildChannel",
      "type": "event"
    },
    {
      "anonymous": false,
      "inputs": [
        {
          "indexed": true,
          "internalType": "address",
          "name": "rootChannel",
          "type": "address"
        }
      ],
      "name": "SetRootChannel",
      "type": "event"
    },
    {
      "inputs": [],
      "name": "channel",
      "outputs": [
        {
          "internalType": "contract IChildChannel",
          "name": "",
          "type": "address"
        }
      ],
      "stateMutability": "view",
      "type": "function"
    },
    {
      "inputs": [
        {
          "internalType": "address",
          "name": "buyer",
          "type": "address"
        },
        {
          "internalType": "uint256",
          "name": "index",
          "type": "uint256"
        }
      ],
      "name": "cidAt",
      "outputs": [
        {
          "internalType": "uint256",
          "name": "size",
          "type": "uint256"
        },
        {
          "internalType": "bytes",
          "name": "",
          "type": "bytes"
        }
      ],
      "stateMutability": "view",
      "type": "function"
    },
    {
      "inputs": [
        {
          "internalType": "address",
          "name": "buyer",
          "type": "address"
        }
      ],
      "name": "cidLength",
      "outputs": [
        {
          "internalType": "uint256",
          "name": "",
          "type": "uint256"
        }
      ],
      "stateMutability": "view",
      "type": "function"
    },
    {
      "inputs": [
        {
          "internalType": "address",
          "name": "buyer",
          "type": "address"
        },
        {
          "internalType": "bytes32",
          "name": "key",
          "type": "bytes32"
        }
      ],
      "name": "getCID",
      "outputs": [
        {
          "internalType": "uint256",
          "name": "size",
          "type": "uint256"
        },
        {
          "internalType": "bytes",
          "name": "",
          "type": "bytes"
        }
      ],
      "stateMutability": "view",
      "type": "function"
    },
    {
      "inputs": [
        {
          "internalType": "address",
          "name": "_storageResource",
          "type": "address"
        },
        {
          "internalType": "address",
          "name": "buyer",
          "type": "address"
        },
        {
          "internalType": "uint256",
          "name": "amount",
          "type": "uint256"
        },
        {
          "internalType": "uint256",
          "name": "deadline",
          "type": "uint256"
        }
      ],
      "name": "mintStorage",
      "outputs": [],
      "stateMutability": "nonpayable",
      "type": "function"
    },
    {
      "inputs": [],
      "name": "owner",
      "outputs": [
        {
          "internalType": "address",
          "name": "",
          "type": "address"
        }
      ],
      "stateMutability": "view",
      "type": "function"
    },
    {
      "inputs": [
        {
          "internalType": "address",
          "name": "pinManager",
          "type": "address"
        },
        {
          "internalType": "bool",
          "name": "isPermit",
          "type": "bool"
        }
      ],
      "name": "permitPin",
      "outputs": [],
      "stateMutability": "nonpayable",
      "type": "function"
    },
    {
      "inputs": [
        {
          "internalType": "address",
          "name": "",
          "type": "address"
        }
      ],
      "name": "permittedPinManagers",
      "outputs": [
        {
          "internalType": "bool",
          "name": "",
          "type": "bool"
        }
      ],
      "stateMutability": "view",
      "type": "function"
    },
    {
      "inputs": [
        {
          "internalType": "address",
          "name": "buyer",
          "type": "address"
        },
        {
          "internalType": "bytes",
          "name": "cid",
          "type": "bytes"
        },
        {
          "internalType": "uint256",
          "name": "size",
          "type": "uint256"
        }
      ],
      "name": "pinAdd",
      "outputs": [],
      "stateMutability": "nonpayable",
      "type": "function"
    },
    {
      "inputs": [
        {
          "internalType": "address",
          "name": "buyer",
          "type": "address"
        },
        {
          "internalType": "bytes",
          "name": "cid",
          "type": "bytes"
        }
      ],
      "name": "pinRemove",
      "outputs": [],
      "stateMutability": "nonpayable",
      "type": "function"
    },
    {
      "inputs": [],
      "name": "renounceOwnership",
      "outputs": [],
      "stateMutability": "nonpayable",
      "type": "function"
    },
    {
      "inputs": [],
      "name": "rootStorageSpend",
      "outputs": [
        {
          "internalType": "bytes4",
          "name": "",
          "type": "bytes4"
        }
      ],
      "stateMutability": "view",
      "type": "function"
    },
    {
      "inputs": [
        {
          "internalType": "contract IChildChannel",
          "name": "_channel",
          "type": "address"
        }
      ],
      "name": "setChildChannel",
      "outputs": [],
      "stateMutability": "nonpayable",
      "type": "function"
    },
    {
      "inputs": [
        {
          "internalType": "address",
          "name": "_rootChannel",
          "type": "address"
        }
      ],
      "name": "setRootChannel",
      "outputs": [],
      "stateMutability": "nonpayable",
      "type": "function"
    },
    {
      "inputs": [
        {
          "internalType": "address",
          "name": "buyer",
          "type": "address"
        }
      ],
      "name": "spendStorage",
      "outputs": [],
      "stateMutability": "nonpayable",
      "type": "function"
    },
    {
      "inputs": [
        {
          "internalType": "address",
          "name": "",
          "type": "address"
        }
      ],
      "name": "storageBalances",
      "outputs": [
        {
          "internalType": "uint256",
          "name": "total",
          "type": "uint256"
        },
        {
          "internalType": "uint256",
          "name": "left",
          "type": "uint256"
        },
        {
          "internalType": "uint256",
          "name": "deadline",
          "type": "uint256"
        }
      ],
      "stateMutability": "view",
      "type": "function"
    },
    {
      "inputs": [],
      "name": "storageResource",
      "outputs": [
        {
          "internalType": "address",
          "name": "",
          "type": "address"
        }
      ],
      "stateMutability": "view",
      "type": "function"
    },
    {
      "inputs": [
        {
          "internalType": "address",
          "name": "newOwner",
          "type": "address"
        }
      ],
      "name": "transferOwnership",
      "outputs": [],
      "stateMutability": "nonpayable",
      "type": "function"
    }
  ],
  "transactionHash": "0x76392881fe419f9784d38b9febb82dcb26d3ab5f854ce2a7d3b368d2e34628d0",
  "args": [
    "0xa995AE28b9cFf206C3971D1887cc934FC48e3a0F"
  ],
  "bytecode": "0x60806040526004805463ffffffff191663af7d6ca31790553480156200002457600080fd5b506040516200207e3803806200207e833981810160405260208110156200004a57600080fd5b5051600062000058620000a3565b600080546001600160a01b0319166001600160a01b0383169081178255604051929350916000805160206200205e833981519152908290a3506200009c81620000a7565b50620001c0565b3390565b620000b1620000a3565b6001600160a01b0316620000c4620001b1565b6001600160a01b03161462000120576040805162461bcd60e51b815260206004820181905260248201527f4f776e61626c653a2063616c6c6572206973206e6f7420746865206f776e6572604482015290519081900360640190fd5b6001600160a01b038116620001675760405162461bcd60e51b8152600401808060200182810382526026815260200180620020386026913960400191505060405180910390fd5b600080546040516001600160a01b03808516939216916000805160206200205e83398151915291a3600080546001600160a01b0319166001600160a01b0392909216919091179055565b6000546001600160a01b031690565b611e6880620001d06000396000f3fe608060405234801561001057600080fd5b50600436106101155760003560e01c80638da5cb5b116100a2578063a2cbca5611610071578063a2cbca5614610434578063afc840791461043c578063b7e82304146104f0578063dd5dc73b1461052a578063f2fde38b1461055057610115565b80638da5cb5b146103ac5780638eb4f090146103b457806392079dc5146103e05780639e30713e1461040657610115565b80632d976124116100e95780632d976124146101e75780634898bcf814610292578063715018a6146103485780637a8caa02146103505780637bbdb96e1461038857610115565b8062aa7b571461011a57806306bd04d2146101585780630b9c181f1461019c5780632c76b3c2146101c1575b600080fd5b6101566004803603608081101561013057600080fd5b506001600160a01b03813581169160208101359091169060408101359060600135610576565b005b61017e6004803603602081101561016e57600080fd5b50356001600160a01b03166106a3565b60408051938452602084019290925282820152519081900360600190f35b6101a46106c4565b604080516001600160e01b03199092168252519081900360200190f35b610156600480360360208110156101d757600080fd5b50356001600160a01b03166106cd565b610213600480360360408110156101fd57600080fd5b506001600160a01b038135169060200135610779565b6040518083815260200180602001828103825283818151815260200191508051906020019080838360005b8381101561025657818101518382015260200161023e565b50505050905090810190601f1680156102835780820380516001836020036101000a031916815260200191505b50935050505060405180910390f35b610156600480360360608110156102a857600080fd5b6001600160a01b038235169190810190604081016020820135600160201b8111156102d257600080fd5b8201836020820111156102e457600080fd5b803590602001918460018302840111600160201b8311171561030557600080fd5b91908080601f01602080910402602001604051908101604052809392919081815260200183838082843760009201919091525092955050913592506107ba915050565b610156610b59565b6103766004803603602081101561036657600080fd5b50356001600160a01b0316610c05565b60408051918252519081900360200190f35b610390610c2c565b604080516001600160a01b039092168252519081900360200190f35b610390610c3b565b610213600480360360408110156103ca57600080fd5b506001600160a01b038135169060200135610c4a565b610156600480360360208110156103f657600080fd5b50356001600160a01b0316610c8c565b6101566004803603604081101561041c57600080fd5b506001600160a01b0381351690602001351515610d8b565b610390610e18565b6101566004803603604081101561045257600080fd5b6001600160a01b038235169190810190604081016020820135600160201b81111561047c57600080fd5b82018360208201111561048e57600080fd5b803590602001918460018302840111600160201b831117156104af57600080fd5b91908080601f016020809104026020016040519081016040528093929190818152602001838380828437600092019190915250929550610e27945050505050565b6105166004803603602081101561050657600080fd5b50356001600160a01b0316611091565b604080519115158252519081900360200190f35b6101566004803603602081101561054057600080fd5b50356001600160a01b03166110a6565b6101566004803603602081101561056657600080fd5b50356001600160a01b0316611281565b6001546001600160a01b031633146105bf5760405162461bcd60e51b8152600401808060200182810382526033815260200180611e006033913960400191505060405180910390fd5b6002546001600160a01b03166105eb57600280546001600160a01b0319166001600160a01b0386161790555b6001600160a01b03831660009081526003602052604090205461060e9083611383565b6001600160a01b0384166000908152600360205260409020908155600101546106379083611383565b6001600160a01b038416600081815260036020908152604091829020600181019490945560029093018490558051858152928301849052805191927fd682007e3c7b8d3011178c2d262fde683d36194368cef75883ae8962194bce8b929081900390910190a250505050565b60036020526000908152604090208054600182015460029092015490919083565b60045460e01b81565b6106d56113e4565b6001600160a01b03166106e6610c3b565b6001600160a01b03161461072f576040805162461bcd60e51b81526020600482018190526024820152600080516020611dbd833981519152604482015290519081900360640190fd5b600180546001600160a01b0319166001600160a01b0383169081179091556040517fe54b19c181b769fe92eecce1051e5d0dde17a8b319992db9dbf3d6aab0fa247690600090a250565b60006060610785611c0b565b6001600160a01b03851660009081526005602052604090206107a790856113e8565b6020810151905190969095509350505050565b818051602e14610811576040805162461bcd60e51b815260206004820152601c60248201527f53746f726167653a20696e76616c696420636964206c656e6774682e00000000604482015290519081900360640190fd5b8160008111610867576040805162461bcd60e51b815260206004820152601a60248201527f53746f726167653a20696e76616c6964206369642073697a652e000000000000604482015290519081900360640190fd5b3360009081526006602052604090205460ff166108cb576040805162461bcd60e51b815260206004820152601b60248201527f53746f726167653a2070696e206e6f74207065726d69747465642e0000000000604482015290519081900360640190fd5b6001600160a01b0385166000908152600360205260409020600101548311156109255760405162461bcd60e51b8152600401808060200182810382526023815260200180611ddd6023913960400191505060405180910390fd5b83516020808601919091206001600160a01b038716600090815260059092526040822090919061095590836113e8565b602001519050806109d4576001600160a01b03871660009081526003602052604090206001015461098690866114e5565b6001600160a01b038816600081815260036020908152604080832060010194909455835180850185528a81528082018a905292825260059052919091206109ce918490611542565b50610aa2565b848114610aa2578481116000816109f4576109ef87846114e5565b6109fe565b6109fe83886114e5565b905081610a30576001600160a01b038916600090815260036020526040902060010154610a2b90826114e5565b610a56565b6001600160a01b038916600090815260036020526040902060010154610a569082611383565b6001600160a01b038a16600081815260036020908152604080832060010194909455835180850185528c81528082018c90529282526005905291909120610a9e918690611542565b5050505b816000886001600160a01b03167f9fe62b32d7b5558e0f55106987ea0da9870abe66e7b3a14fdc3d482bc2f01fbe89896040518080602001838152602001828103825284818151815260200191508051906020019080838360005b83811015610b15578181015183820152602001610afd565b50505050905090810190601f168015610b425780820380516001836020036101000a031916815260200191505b50935050505060405180910390a450505050505050565b610b616113e4565b6001600160a01b0316610b72610c3b565b6001600160a01b031614610bbb576040805162461bcd60e51b81526020600482018190526024820152600080516020611dbd833981519152604482015290519081900360640190fd5b600080546040516001600160a01b03909116907f8be0079c531659141344cd1fd0a4f28419497f9722a3daafe3b4186f6b6457e0908390a3600080546001600160a01b0319169055565b6001600160a01b0381166000908152600560205260408120610c26906115eb565b92915050565b6001546001600160a01b031681565b6000546001600160a01b031690565b60006060610c56611c0b565b6001600160a01b0385166000908152600560205260409020610c7890856115f6565b602081015190519097909650945050505050565b610c946113e4565b6001600160a01b0316610ca5610c3b565b6001600160a01b031614610cee576040805162461bcd60e51b81526020600482018190526024820152600080516020611dbd833981519152604482015290519081900360640190fd5b600154604080516392079dc560e01b81526001600160a01b038481166004830152915191909216916392079dc591602480830192600092919082900301818387803b158015610d3c57600080fd5b505af1158015610d50573d6000803e3d6000fd5b50506040516001600160a01b03841692507f100f8c3e1ccb621715219a08019952cd61ec92c46113d94f52f39df38db7daf29150600090a250565b610d936113e4565b6001600160a01b0316610da4610c3b565b6001600160a01b031614610ded576040805162461bcd60e51b81526020600482018190526024820152600080516020611dbd833981519152604482015290519081900360640190fd5b6001600160a01b03919091166000908152600660205260409020805460ff1916911515919091179055565b6002546001600160a01b031681565b808051602e14610e7e576040805162461bcd60e51b815260206004820152601c60248201527f53746f726167653a20696e76616c696420636964206c656e6774682e00000000604482015290519081900360640190fd5b3360009081526006602052604090205460ff16610ee2576040805162461bcd60e51b815260206004820152601b60248201527f53746f726167653a2070696e206e6f74207065726d69747465642e0000000000604482015290519081900360640190fd5b81516020808401919091206001600160a01b038516600090815260059092526040909120610f1090826116fe565b1561108b576001600160a01b0384166000908152600560205260408120610f3790836113e8565b6020908101516001600160a01b038716600090815260039092526040822060010154909250610f669083611383565b6001600160a01b0387166000908152600360205260409020549091508111610f8e5780610fa8565b6001600160a01b0386166000908152600360205260409020545b6001600160a01b0387166000908152600360209081526040808320600101939093556005905220610fd9908461170a565b50826001876001600160a01b03167f9fe62b32d7b5558e0f55106987ea0da9870abe66e7b3a14fdc3d482bc2f01fbe88866040518080602001838152602001828103825284818151815260200191508051906020019080838360005b8381101561104d578181015183820152602001611035565b50505050905090810190601f16801561107a5780820380516001836020036101000a031916815260200191505b50935050505060405180910390a450505b50505050565b60066020526000908152604090205460ff1681565b6110ae6113e4565b6001600160a01b03166110bf610c3b565b6001600160a01b031614611108576040805162461bcd60e51b81526020600482018190526024820152600080516020611dbd833981519152604482015290519081900360640190fd5b6002546001600160a01b0316611165576040805162461bcd60e51b815260206004820152601760248201527f73746f72616765206e6f7420696e697469616c697a6564000000000000000000604482015290519081900360640190fd5b6001600160a01b03811660009081526003602052604081206001810154905461118d916114e5565b600454604080516001600160a01b038681166024830152604480830186905283518084039091018152606490920183526020808301805160e09690961b6001600160e01b0319166001600160e01b0390961695909517855260025484519216908201818152828501948552835160608401528351969750929561127c959194879493909260809091019180838360005b8381101561123557818101518382015260200161121d565b50505050905090810190601f1680156112625780820380516001836020036101000a031916815260200191505b509350505050604051602081830303815290604052611716565b505050565b6112896113e4565b6001600160a01b031661129a610c3b565b6001600160a01b0316146112e3576040805162461bcd60e51b81526020600482018190526024820152600080516020611dbd833981519152604482015290519081900360640190fd5b6001600160a01b0381166113285760405162461bcd60e51b8152600401808060200182810382526026815260200180611d756026913960400191505060405180910390fd5b600080546040516001600160a01b03808516939216917f8be0079c531659141344cd1fd0a4f28419497f9722a3daafe3b4186f6b6457e091a3600080546001600160a01b0319166001600160a01b0392909216919091179055565b6000828201838110156113dd576040805162461bcd60e51b815260206004820152601b60248201527f536166654d6174683a206164646974696f6e206f766572666c6f770000000000604482015290519081900360640190fd5b9392505050565b3390565b6113f0611c0b565b60606113fc84846117dd565b90506000606082806020019051604081101561141757600080fd5b815160208301805160405192949293830192919084600160201b82111561143d57600080fd5b90830190602082018581111561145257600080fd5b8251600160201b81118282018810171561146b57600080fd5b82525081516020918201929091019080838360005b83811015611498578181015183820152602001611480565b50505050905090810190601f1680156114c55780820380516001836020036101000a031916815260200191505b506040818101905293845250505060208101919091529695505050505050565b60008282111561153c576040805162461bcd60e51b815260206004820152601e60248201527f536166654d6174683a207375627472616374696f6e206f766572666c6f770000604482015290519081900360640190fd5b50900390565b60006115e38460000184846020015185600001516040516020018083815260200180602001828103825283818151815260200191508051906020019080838360005b8381101561159c578181015183820152602001611584565b50505050905090810190601f1680156115c95780820380516001836020036101000a031916815260200191505b509350505050604051602081830303815290604052611908565b949350505050565b6000610c26826119ca565b6000611600611c0b565b6000606061160e86866119ce565b915091506000606082806020019051604081101561162b57600080fd5b815160208301805160405192949293830192919084600160201b82111561165157600080fd5b90830190602082018581111561166657600080fd5b8251600160201b81118282018810171561167f57600080fd5b82525081516020918201929091019080838360005b838110156116ac578181015183820152602001611694565b50505050905090810190601f1680156116d95780820380516001836020036101000a031916815260200191505b5060408181019052938452505050602081019190915293989397509295505050505050565b60006113dd8383611ae5565b60006113dd8383611afd565b600154604051634d089f7160e11b81526020600482018181528451602484015284516001600160a01b0390941693639a113ee293869383926044909201919085019080838360005b8381101561177657818101518382015260200161175e565b50505050905090810190601f1680156117a35780820380516001836020036101000a031916815260200191505b5092505050600060405180830381600087803b1580156117c257600080fd5b505af11580156117d6573d6000803e3d6000fd5b5050505050565b600081815260018301602052604090205460609080611843576040805162461bcd60e51b815260206004820152601e60248201527f456e756d657261626c654d61703a206e6f6e6578697374656e74206b65790000604482015290519081900360640190fd5b83600001600182038154811061185557fe5b90600052602060002090600202016001018054600181600116156101000203166002900480601f0160208091040260200160405190810160405280929190818152602001828054600181600116156101000203166002900480156118fa5780601f106118cf576101008083540402835291602001916118fa565b820191906000526020600020905b8154815290600101906020018083116118dd57829003601f168201915b505050505091505092915050565b60008281526001840160205260408120548061198857604080518082019091528481526020808201858152875460018181018a5560008a8152849020855160029093020191825591518051919361196493850192910190611c25565b505085546000868152600180890160205260409091209190915592506113dd915050565b8285600001600183038154811061199b57fe5b906000526020600020906002020160010190805190602001906119bf929190611c25565b5060009150506113dd565b5490565b81546000906060908310611a135760405162461bcd60e51b8152600401808060200182810382526022815260200180611d9b6022913960400191505060405180910390fd5b6000846000018481548110611a2457fe5b90600052602060002090600202019050806000015481600101808054600181600116156101000203166002900480601f016020809104026020016040519081016040528092919081815260200182805460018160011615610100020316600290048015611ad25780601f10611aa757610100808354040283529160200191611ad2565b820191906000526020600020905b815481529060010190602001808311611ab557829003601f168201915b5050505050905092509250509250929050565b60009081526001919091016020526040902054151590565b60008181526001830160205260408120548015611c015783546000198083019190810190600090879083908110611b3057fe5b9060005260206000209060020201905080876000018481548110611b5057fe5b90600052602060002090600202016000820154816000015560018201816001019080546001816001161561010002031660029004611b8f929190611ca3565b505081546000908152600189810160205260409091209085019055508654879080611bb657fe5b60008281526020812060026000199093019283020181815590611bdc6001830182611d18565b505090555050506000838152600180860160205260408220919091559150610c269050565b6000915050610c26565b604051806040016040528060608152602001600081525090565b828054600181600116156101000203166002900490600052602060002090601f016020900481019282601f10611c6657805160ff1916838001178555611c93565b82800160010185558215611c93579182015b82811115611c93578251825591602001919060010190611c78565b50611c9f929150611d5f565b5090565b828054600181600116156101000203166002900490600052602060002090601f016020900481019282601f10611cdc5780548555611c93565b82800160010185558215611c9357600052602060002091601f016020900482015b82811115611c93578254825591600101919060010190611cfd565b50805460018160011615610100020316600290046000825580601f10611d3e5750611d5c565b601f016020900490600052602060002090810190611d5c9190611d5f565b50565b5b80821115611c9f5760008155600101611d6056fe4f776e61626c653a206e6577206f776e657220697320746865207a65726f2061646472657373456e756d657261626c654d61703a20696e646578206f7574206f6620626f756e64734f776e61626c653a2063616c6c6572206973206e6f7420746865206f776e657253746f726167653a206e6f7420656e6f7567682073746f7261676520746f2070696e2e5265736f75726365576974684368616e6e656c3a2043616e2062652063616c6c6564206279206368616e6e656c206f6e6c792ea264697066735822122077a8b23c99cbde395e0206d5c8a6bab565ec00abece0546d8e4509f9234a9d6364736f6c634300070300334f776e61626c653a206e6577206f776e657220697320746865207a65726f20616464726573738be0079c531659141344cd1fd0a4f28419497f9722a3daafe3b4186f6b6457e0"
}