{
  "address": "0xC62e820B4b6770913e724F0226077d614352ABcf",
  "abi": [
    {
      "inputs": [
        {
          "internalType": "address",
          "name": "owner",
          "type": "address"
        }
      ],
      "stateMutability": "nonpayable",
      "type": "constructor"
    },
    {
      "anonymous": false,
      "inputs": [
        {
          "indexed": true,
          "internalType": "address",
          "name": "buyer",
          "type": "address"
        },
        {
          "indexed": false,
          "internalType": "uint256",
          "name": "amount",
          "type": "uint256"
        },
        {
          "indexed": false,
          "internalType": "uint256",
          "name": "deadline",
          "type": "uint256"
        }
      ],
      "name": "MintStorage",
      "type": "event"
    },
    {
      "anonymous": false,
      "inputs": [
        {
          "indexed": true,
          "internalType": "address",
          "name": "previousOwner",
          "type": "address"
        },
        {
          "indexed": true,
          "internalType": "address",
          "name": "newOwner",
          "type": "address"
        }
      ],
      "name": "OwnershipTransferred",
      "type": "event"
    },
    {
      "anonymous": false,
      "inputs": [
        {
          "indexed": true,
          "internalType": "address",
          "name": "buyer",
          "type": "address"
        },
        {
          "indexed": true,
          "internalType": "uint8",
          "name": "operation",
          "type": "uint8"
        },
        {
          "indexed": true,
          "internalType": "bytes32",
          "name": "cidKey",
          "type": "bytes32"
        },
        {
          "indexed": false,
          "internalType": "bytes",
          "name": "cid",
          "type": "bytes"
        },
        {
          "indexed": false,
          "internalType": "uint256",
          "name": "size",
          "type": "uint256"
        }
      ],
      "name": "Pin",
      "type": "event"
    },
    {
      "anonymous": false,
      "inputs": [
        {
          "indexed": true,
          "internalType": "address",
          "name": "childChannel",
          "type": "address"
        }
      ],
      "name": "SetChildChannel",
      "type": "event"
    },
    {
      "anonymous": false,
      "inputs": [
        {
          "indexed": true,
          "internalType": "address",
          "name": "rootChannel",
          "type": "address"
        }
      ],
      "name": "SetRootChannel",
      "type": "event"
    },
    {
      "inputs": [],
      "name": "channel",
      "outputs": [
        {
          "internalType": "contract IChildChannel",
          "name": "",
          "type": "address"
        }
      ],
      "stateMutability": "view",
      "type": "function"
    },
    {
      "inputs": [
        {
          "internalType": "address",
          "name": "",
          "type": "address"
        },
        {
          "internalType": "bytes32",
          "name": "",
          "type": "bytes32"
        }
      ],
      "name": "cids",
      "outputs": [
        {
          "internalType": "bytes",
          "name": "data",
          "type": "bytes"
        },
        {
          "internalType": "uint256",
          "name": "size",
          "type": "uint256"
        }
      ],
      "stateMutability": "view",
      "type": "function"
    },
    {
      "inputs": [
        {
          "internalType": "address",
          "name": "_storageResource",
          "type": "address"
        },
        {
          "internalType": "address",
          "name": "buyer",
          "type": "address"
        },
        {
          "internalType": "uint256",
          "name": "amount",
          "type": "uint256"
        },
        {
          "internalType": "uint256",
          "name": "deadline",
          "type": "uint256"
        }
      ],
      "name": "mintStorage",
      "outputs": [],
      "stateMutability": "nonpayable",
      "type": "function"
    },
    {
      "inputs": [],
      "name": "owner",
      "outputs": [
        {
          "internalType": "address",
          "name": "",
          "type": "address"
        }
      ],
      "stateMutability": "view",
      "type": "function"
    },
    {
      "inputs": [
        {
          "internalType": "address",
          "name": "pinManager",
          "type": "address"
        },
        {
          "internalType": "bool",
          "name": "isPermit",
          "type": "bool"
        }
      ],
      "name": "permitPin",
      "outputs": [],
      "stateMutability": "nonpayable",
      "type": "function"
    },
    {
      "inputs": [
        {
          "internalType": "address",
          "name": "",
          "type": "address"
        }
      ],
      "name": "permittedPinManagers",
      "outputs": [
        {
          "internalType": "bool",
          "name": "",
          "type": "bool"
        }
      ],
      "stateMutability": "view",
      "type": "function"
    },
    {
      "inputs": [
        {
          "internalType": "address",
          "name": "buyer",
          "type": "address"
        },
        {
          "internalType": "bytes",
          "name": "cid",
          "type": "bytes"
        },
        {
          "internalType": "uint256",
          "name": "size",
          "type": "uint256"
        }
      ],
      "name": "pinAdd",
      "outputs": [],
      "stateMutability": "nonpayable",
      "type": "function"
    },
    {
      "inputs": [
        {
          "internalType": "address",
          "name": "buyer",
          "type": "address"
        },
        {
          "internalType": "bytes",
          "name": "cid",
          "type": "bytes"
        }
      ],
      "name": "pinRemove",
      "outputs": [],
      "stateMutability": "nonpayable",
      "type": "function"
    },
    {
      "inputs": [],
      "name": "renounceOwnership",
      "outputs": [],
      "stateMutability": "nonpayable",
      "type": "function"
    },
    {
      "inputs": [],
      "name": "rootStorageSpend",
      "outputs": [
        {
          "internalType": "bytes4",
          "name": "",
          "type": "bytes4"
        }
      ],
      "stateMutability": "view",
      "type": "function"
    },
    {
      "inputs": [
        {
          "internalType": "contract IChildChannel",
          "name": "_channel",
          "type": "address"
        }
      ],
      "name": "setChildChannel",
      "outputs": [],
      "stateMutability": "nonpayable",
      "type": "function"
    },
    {
      "inputs": [
        {
          "internalType": "address",
          "name": "_rootChannel",
          "type": "address"
        }
      ],
      "name": "setRootChannel",
      "outputs": [],
      "stateMutability": "nonpayable",
      "type": "function"
    },
    {
      "inputs": [
        {
          "internalType": "address",
          "name": "buyer",
          "type": "address"
        }
      ],
      "name": "spendStorage",
      "outputs": [],
      "stateMutability": "nonpayable",
      "type": "function"
    },
    {
      "inputs": [
        {
          "internalType": "address",
          "name": "",
          "type": "address"
        }
      ],
      "name": "storageBalances",
      "outputs": [
        {
          "internalType": "uint256",
          "name": "total",
          "type": "uint256"
        },
        {
          "internalType": "uint256",
          "name": "left",
          "type": "uint256"
        },
        {
          "internalType": "uint256",
          "name": "deadline",
          "type": "uint256"
        }
      ],
      "stateMutability": "view",
      "type": "function"
    },
    {
      "inputs": [],
      "name": "storageResource",
      "outputs": [
        {
          "internalType": "address",
          "name": "",
          "type": "address"
        }
      ],
      "stateMutability": "view",
      "type": "function"
    },
    {
      "inputs": [
        {
          "internalType": "address",
          "name": "newOwner",
          "type": "address"
        }
      ],
      "name": "transferOwnership",
      "outputs": [],
      "stateMutability": "nonpayable",
      "type": "function"
    }
  ],
  "transactionHash": "0xf795da840576199d2db767aae4b075faa227912a7c22c4a9582f9ed265d4c82e",
  "args": [
    "0xa995AE28b9cFf206C3971D1887cc934FC48e3a0F"
  ],
  "bytecode": "0x60806040526006805463ffffffff191663af7d6ca31790553480156200002457600080fd5b50604051620019b3380380620019b3833981810160405260208110156200004a57600080fd5b5051600062000058620000a3565b600080546001600160a01b0319166001600160a01b03831690811782556040519293509160008051602062001993833981519152908290a3506200009c81620000a7565b50620001c0565b3390565b620000b1620000a3565b6001600160a01b0316620000c4620001b1565b6001600160a01b03161462000120576040805162461bcd60e51b815260206004820181905260248201527f4f776e61626c653a2063616c6c6572206973206e6f7420746865206f776e6572604482015290519081900360640190fd5b6001600160a01b038116620001675760405162461bcd60e51b81526004018080602001828103825260268152602001806200196d6026913960400191505060405180910390fd5b600080546040516001600160a01b03808516939216916000805160206200199383398151915291a3600080546001600160a01b0319166001600160a01b0392909216919091179055565b6000546001600160a01b031690565b61179d80620001d06000396000f3fe608060405234801561001057600080fd5b50600436106100ff5760003560e01c80638da5cb5b11610097578063afc8407911610066578063afc84079146103c4578063b7e823041461047a578063dd5dc73b146104b4578063f2fde38b146104da576100ff565b80638da5cb5b1461036057806392079dc5146103685780639e30713e1461038e578063a2cbca56146103bc576100ff565b806335dba24f116100d357806335dba24f146101d15780634898bcf81461027c578063715018a6146103345780637bbdb96e1461033c576100ff565b8062aa7b571461010457806306bd04d2146101425780630b9c181f146101865780632c76b3c2146101ab575b600080fd5b6101406004803603608081101561011a57600080fd5b506001600160a01b03813581169160208101359091169060408101359060600135610500565b005b6101686004803603602081101561015857600080fd5b50356001600160a01b031661062d565b60408051938452602084019290925282820152519081900360600190f35b61018e61064e565b604080516001600160e01b03199092168252519081900360200190f35b610140600480360360208110156101c157600080fd5b50356001600160a01b0316610657565b6101fd600480360360408110156101e757600080fd5b506001600160a01b038135169060200135610703565b6040518080602001838152602001828103825284818151815260200191508051906020019080838360005b83811015610240578181015183820152602001610228565b50505050905090810190601f16801561026d5780820380516001836020036101000a031916815260200191505b50935050505060405180910390f35b6101406004803603606081101561029257600080fd5b6001600160a01b0382351691908101906040810160208201356401000000008111156102bd57600080fd5b8201836020820111156102cf57600080fd5b803590602001918460018302840111640100000000831117156102f157600080fd5b91908080601f01602080910402602001604051908101604052809392919081815260200183838082843760009201919091525092955050913592506107b1915050565b610140610bef565b610344610c9b565b604080516001600160a01b039092168252519081900360200190f35b610344610caa565b6101406004803603602081101561037e57600080fd5b50356001600160a01b0316610cb9565b610140600480360360408110156103a457600080fd5b506001600160a01b0381351690602001351515610db8565b610344610e45565b610140600480360360408110156103da57600080fd5b6001600160a01b03823516919081019060408101602082013564010000000081111561040557600080fd5b82018360208201111561041757600080fd5b8035906020019184600183028401116401000000008311171561043957600080fd5b91908080601f016020809104026020016040519081016040528093929190818152602001838380828437600092019190915250929550610e54945050505050565b6104a06004803603602081101561049057600080fd5b50356001600160a01b031661115c565b604080519115158252519081900360200190f35b610140600480360360208110156104ca57600080fd5b50356001600160a01b0316611171565b610140600480360360208110156104f057600080fd5b50356001600160a01b031661134c565b6001546001600160a01b031633146105495760405162461bcd60e51b81526004018080602001828103825260338152602001806117356033913960400191505060405180910390fd5b6002546001600160a01b031661057557600280546001600160a01b0319166001600160a01b0386161790555b6001600160a01b038316600090815260046020526040902054610598908361144e565b6001600160a01b0384166000908152600460205260409020908155600101546105c1908361144e565b6001600160a01b038416600081815260046020908152604091829020600181019490945560029093018490558051858152928301849052805191927fd682007e3c7b8d3011178c2d262fde683d36194368cef75883ae8962194bce8b929081900390910190a250505050565b60046020526000908152604090208054600182015460029092015490919083565b60065460e01b81565b61065f6114af565b6001600160a01b0316610670610caa565b6001600160a01b0316146106b9576040805162461bcd60e51b815260206004820181905260248201526000805160206116f2833981519152604482015290519081900360640190fd5b600180546001600160a01b0319166001600160a01b0383169081179091556040517fe54b19c181b769fe92eecce1051e5d0dde17a8b319992db9dbf3d6aab0fa247690600090a250565b600560209081526000928352604080842082529183529181902080548251601f6002600019610100600186161502019093169290920491820185900485028101850190935280835290928391908301828280156107a15780601f10610776576101008083540402835291602001916107a1565b820191906000526020600020905b81548152906001019060200180831161078457829003601f168201915b5050505050908060010154905082565b818051602e14610808576040805162461bcd60e51b815260206004820152601c60248201527f53746f726167653a20696e76616c696420636964206c656e6774682e00000000604482015290519081900360640190fd5b816000811161085e576040805162461bcd60e51b815260206004820152601a60248201527f53746f726167653a20696e76616c6964206369642073697a652e000000000000604482015290519081900360640190fd5b3360009081526003602052604090205460ff166108c2576040805162461bcd60e51b815260206004820152601b60248201527f53746f726167653a2070696e206e6f74207065726d69747465642e0000000000604482015290519081900360640190fd5b6001600160a01b03851660009081526004602052604090206001015483111561091c5760405162461bcd60e51b81526004018080602001828103825260238152602001806117126023913960400191505060405180910390fd5b83516020808601919091206001600160a01b038716600090815260058352604080822083835290935291909120600101546109e3576001600160a01b03861660009081526004602052604090206001015461097790856114b3565b6001600160a01b0387166000818152600460209081526040808320600101949094558351808501855289815280820189905292825260058152838220858352815292902081518051929391926109d092849201906115d7565b5060208201518160010155905050610b39565b6001600160a01b03861660009081526005602090815260408083208484529091529020600101548414610b39576001600160a01b038616600090815260056020908152604080832084845290915281206001015485109081610a76576001600160a01b0388166000908152600560209081526040808320868452909152902060010154610a719087906114b3565b610aa7565b6001600160a01b0388166000908152600560209081526040808320868452909152902060010154610aa790876114b3565b905081610ad9576001600160a01b038816600090815260046020526040902060010154610ad490826114b3565b610aff565b6001600160a01b038816600090815260046020526040902060010154610aff908261144e565b6001600160a01b03891660009081526004602090815260408083206001908101949094556005825280832087845290915290200186905550505b806000876001600160a01b03167f9fe62b32d7b5558e0f55106987ea0da9870abe66e7b3a14fdc3d482bc2f01fbe88886040518080602001838152602001828103825284818151815260200191508051906020019080838360005b83811015610bac578181015183820152602001610b94565b50505050905090810190601f168015610bd95780820380516001836020036101000a031916815260200191505b50935050505060405180910390a4505050505050565b610bf76114af565b6001600160a01b0316610c08610caa565b6001600160a01b031614610c51576040805162461bcd60e51b815260206004820181905260248201526000805160206116f2833981519152604482015290519081900360640190fd5b600080546040516001600160a01b03909116907f8be0079c531659141344cd1fd0a4f28419497f9722a3daafe3b4186f6b6457e0908390a3600080546001600160a01b0319169055565b6001546001600160a01b031681565b6000546001600160a01b031690565b610cc16114af565b6001600160a01b0316610cd2610caa565b6001600160a01b031614610d1b576040805162461bcd60e51b815260206004820181905260248201526000805160206116f2833981519152604482015290519081900360640190fd5b600154604080516392079dc560e01b81526001600160a01b038481166004830152915191909216916392079dc591602480830192600092919082900301818387803b158015610d6957600080fd5b505af1158015610d7d573d6000803e3d6000fd5b50506040516001600160a01b03841692507f100f8c3e1ccb621715219a08019952cd61ec92c46113d94f52f39df38db7daf29150600090a250565b610dc06114af565b6001600160a01b0316610dd1610caa565b6001600160a01b031614610e1a576040805162461bcd60e51b815260206004820181905260248201526000805160206116f2833981519152604482015290519081900360640190fd5b6001600160a01b03919091166000908152600360205260409020805460ff1916911515919091179055565b6002546001600160a01b031681565b808051602e14610eab576040805162461bcd60e51b815260206004820152601c60248201527f53746f726167653a20696e76616c696420636964206c656e6774682e00000000604482015290519081900360640190fd5b3360009081526003602052604090205460ff16610f0f576040805162461bcd60e51b815260206004820152601b60248201527f53746f726167653a2070696e206e6f74207065726d69747465642e0000000000604482015290519081900360640190fd5b81516020830120610f1e611655565b6001600160a01b03851660009081526005602090815260408083208584528252918290208251815460026001821615610100026000190190911604601f8101849004909302810160609081018552938101838152909391928492849190840182828015610fcc5780601f10610fa157610100808354040283529160200191610fcc565b820191906000526020600020905b815481529060010190602001808311610faf57829003601f168201915b5050505050815260200160018201548152505090506000816020015111156110a3576020808201516001600160a01b0387166000908152600490925260408220600101546110199161144e565b6001600160a01b0387166000908152600460205260409020549091508111611041578061105b565b6001600160a01b0386166000908152600460205260409020545b6001600160a01b03871660009081526004602090815260408083206001019390935560058152828220868352905290812090611097828261166f565b60018201600090555050505b816001866001600160a01b03167f9fe62b32d7b5558e0f55106987ea0da9870abe66e7b3a14fdc3d482bc2f01fbe8785602001516040518080602001838152602001828103825284818151815260200191508051906020019080838360005b8381101561111a578181015183820152602001611102565b50505050905090810190601f1680156111475780820380516001836020036101000a031916815260200191505b50935050505060405180910390a45050505050565b60036020526000908152604090205460ff1681565b6111796114af565b6001600160a01b031661118a610caa565b6001600160a01b0316146111d3576040805162461bcd60e51b815260206004820181905260248201526000805160206116f2833981519152604482015290519081900360640190fd5b6002546001600160a01b0316611230576040805162461bcd60e51b815260206004820152601760248201527f73746f72616765206e6f7420696e697469616c697a6564000000000000000000604482015290519081900360640190fd5b6001600160a01b038116600090815260046020526040812060018101549054611258916114b3565b600654604080516001600160a01b038681166024830152604480830186905283518084039091018152606490920183526020808301805160e09690961b6001600160e01b0319166001600160e01b03909616959095178552600254845192169082018181528285019485528351606084015283519697509295611347959194879493909260809091019180838360005b838110156113005781810151838201526020016112e8565b50505050905090810190601f16801561132d5780820380516001836020036101000a031916815260200191505b509350505050604051602081830303815290604052611510565b505050565b6113546114af565b6001600160a01b0316611365610caa565b6001600160a01b0316146113ae576040805162461bcd60e51b815260206004820181905260248201526000805160206116f2833981519152604482015290519081900360640190fd5b6001600160a01b0381166113f35760405162461bcd60e51b81526004018080602001828103825260268152602001806116cc6026913960400191505060405180910390fd5b600080546040516001600160a01b03808516939216917f8be0079c531659141344cd1fd0a4f28419497f9722a3daafe3b4186f6b6457e091a3600080546001600160a01b0319166001600160a01b0392909216919091179055565b6000828201838110156114a8576040805162461bcd60e51b815260206004820152601b60248201527f536166654d6174683a206164646974696f6e206f766572666c6f770000000000604482015290519081900360640190fd5b9392505050565b3390565b60008282111561150a576040805162461bcd60e51b815260206004820152601e60248201527f536166654d6174683a207375627472616374696f6e206f766572666c6f770000604482015290519081900360640190fd5b50900390565b600154604051634d089f7160e11b81526020600482018181528451602484015284516001600160a01b0390941693639a113ee293869383926044909201919085019080838360005b83811015611570578181015183820152602001611558565b50505050905090810190601f16801561159d5780820380516001836020036101000a031916815260200191505b5092505050600060405180830381600087803b1580156115bc57600080fd5b505af11580156115d0573d6000803e3d6000fd5b5050505050565b828054600181600116156101000203166002900490600052602060002090601f016020900481019282601f1061161857805160ff1916838001178555611645565b82800160010185558215611645579182015b8281111561164557825182559160200191906001019061162a565b506116519291506116b6565b5090565b604051806040016040528060608152602001600081525090565b50805460018160011615610100020316600290046000825580601f1061169557506116b3565b601f0160209004906000526020600020908101906116b391906116b6565b50565b5b8082111561165157600081556001016116b756fe4f776e61626c653a206e6577206f776e657220697320746865207a65726f20616464726573734f776e61626c653a2063616c6c6572206973206e6f7420746865206f776e657253746f726167653a206e6f7420656e6f7567682073746f7261676520746f2070696e2e5265736f75726365576974684368616e6e656c3a2043616e2062652063616c6c6564206279206368616e6e656c206f6e6c792ea2646970667358221220b56de2ef401f8d9822621e7bba56a135fad50f27eb4e21b89f822052c5d91ab464736f6c634300070300334f776e61626c653a206e6577206f776e657220697320746865207a65726f20616464726573738be0079c531659141344cd1fd0a4f28419497f9722a3daafe3b4186f6b6457e0"
}