{
  "address": "0xF08D9793e7A2A53E47988878BeE68e20D4363294",
  "abi": [
    {
      "inputs": [
        {
          "internalType": "address",
          "name": "owner",
          "type": "address"
        }
      ],
      "stateMutability": "nonpayable",
      "type": "constructor"
    },
    {
      "anonymous": false,
      "inputs": [
        {
          "indexed": true,
          "internalType": "address",
          "name": "buyer",
          "type": "address"
        },
        {
          "indexed": false,
          "internalType": "uint256",
          "name": "amount",
          "type": "uint256"
        },
        {
          "indexed": false,
          "internalType": "uint256",
          "name": "deadline",
          "type": "uint256"
        }
      ],
      "name": "MintStorage",
      "type": "event"
    },
    {
      "anonymous": false,
      "inputs": [
        {
          "indexed": true,
          "internalType": "address",
          "name": "previousOwner",
          "type": "address"
        },
        {
          "indexed": true,
          "internalType": "address",
          "name": "newOwner",
          "type": "address"
        }
      ],
      "name": "OwnershipTransferred",
      "type": "event"
    },
    {
      "anonymous": false,
      "inputs": [
        {
          "indexed": true,
          "internalType": "address",
          "name": "buyer",
          "type": "address"
        },
        {
          "indexed": true,
          "internalType": "uint8",
          "name": "operation",
          "type": "uint8"
        },
        {
          "indexed": true,
          "internalType": "bytes32",
          "name": "key",
          "type": "bytes32"
        },
        {
          "indexed": false,
          "internalType": "bytes",
          "name": "cid",
          "type": "bytes"
        },
        {
          "indexed": false,
          "internalType": "uint256",
          "name": "size",
          "type": "uint256"
        }
      ],
      "name": "Pin",
      "type": "event"
    },
    {
      "anonymous": false,
      "inputs": [
        {
          "indexed": true,
          "internalType": "address",
          "name": "childChannel",
          "type": "address"
        }
      ],
      "name": "SetChildChannel",
      "type": "event"
    },
    {
      "anonymous": false,
      "inputs": [
        {
          "indexed": true,
          "internalType": "address",
          "name": "rootChannel",
          "type": "address"
        }
      ],
      "name": "SetRootChannel",
      "type": "event"
    },
    {
      "inputs": [],
      "name": "channel",
      "outputs": [
        {
          "internalType": "contract IChildChannel",
          "name": "",
          "type": "address"
        }
      ],
      "stateMutability": "view",
      "type": "function"
    },
    {
      "inputs": [
        {
          "internalType": "address",
          "name": "buyer",
          "type": "address"
        },
        {
          "internalType": "uint256",
          "name": "index",
          "type": "uint256"
        }
      ],
      "name": "cidAt",
      "outputs": [
        {
          "components": [
            {
              "internalType": "uint256",
              "name": "size",
              "type": "uint256"
            },
            {
              "internalType": "bytes",
              "name": "data",
              "type": "bytes"
            }
          ],
          "internalType": "struct EnumerableCID.CID",
          "name": "cid",
          "type": "tuple"
        }
      ],
      "stateMutability": "view",
      "type": "function"
    },
    {
      "inputs": [
        {
          "internalType": "address",
          "name": "buyer",
          "type": "address"
        }
      ],
      "name": "cidLength",
      "outputs": [
        {
          "internalType": "uint256",
          "name": "",
          "type": "uint256"
        }
      ],
      "stateMutability": "view",
      "type": "function"
    },
    {
      "inputs": [
        {
          "internalType": "address",
          "name": "buyer",
          "type": "address"
        },
        {
          "internalType": "bytes32",
          "name": "key",
          "type": "bytes32"
        }
      ],
      "name": "getCID",
      "outputs": [
        {
          "components": [
            {
              "internalType": "uint256",
              "name": "size",
              "type": "uint256"
            },
            {
              "internalType": "bytes",
              "name": "data",
              "type": "bytes"
            }
          ],
          "internalType": "struct EnumerableCID.CID",
          "name": "",
          "type": "tuple"
        }
      ],
      "stateMutability": "view",
      "type": "function"
    },
    {
      "inputs": [
        {
          "internalType": "address",
          "name": "_storageResource",
          "type": "address"
        },
        {
          "internalType": "address",
          "name": "buyer",
          "type": "address"
        },
        {
          "internalType": "uint256",
          "name": "amount",
          "type": "uint256"
        },
        {
          "internalType": "uint256",
          "name": "deadline",
          "type": "uint256"
        }
      ],
      "name": "mintStorage",
      "outputs": [],
      "stateMutability": "nonpayable",
      "type": "function"
    },
    {
      "inputs": [],
      "name": "owner",
      "outputs": [
        {
          "internalType": "address",
          "name": "",
          "type": "address"
        }
      ],
      "stateMutability": "view",
      "type": "function"
    },
    {
      "inputs": [
        {
          "internalType": "address",
          "name": "pinManager",
          "type": "address"
        },
        {
          "internalType": "bool",
          "name": "isPermit",
          "type": "bool"
        }
      ],
      "name": "permitPin",
      "outputs": [],
      "stateMutability": "nonpayable",
      "type": "function"
    },
    {
      "inputs": [
        {
          "internalType": "address",
          "name": "",
          "type": "address"
        }
      ],
      "name": "permittedPinManagers",
      "outputs": [
        {
          "internalType": "bool",
          "name": "",
          "type": "bool"
        }
      ],
      "stateMutability": "view",
      "type": "function"
    },
    {
      "inputs": [
        {
          "internalType": "address",
          "name": "buyer",
          "type": "address"
        },
        {
          "internalType": "bytes",
          "name": "cid",
          "type": "bytes"
        },
        {
          "internalType": "uint256",
          "name": "size",
          "type": "uint256"
        }
      ],
      "name": "pinAdd",
      "outputs": [],
      "stateMutability": "nonpayable",
      "type": "function"
    },
    {
      "inputs": [
        {
          "internalType": "address",
          "name": "buyer",
          "type": "address"
        },
        {
          "internalType": "bytes",
          "name": "cid",
          "type": "bytes"
        }
      ],
      "name": "pinRemove",
      "outputs": [],
      "stateMutability": "nonpayable",
      "type": "function"
    },
    {
      "inputs": [
        {
          "internalType": "address",
          "name": "buyer",
          "type": "address"
        },
        {
          "internalType": "uint256",
          "name": "offset",
          "type": "uint256"
        },
        {
          "internalType": "uint256",
          "name": "limit",
          "type": "uint256"
        }
      ],
      "name": "rangeOf",
      "outputs": [
        {
          "components": [
            {
              "internalType": "uint256",
              "name": "size",
              "type": "uint256"
            },
            {
              "internalType": "bytes",
              "name": "data",
              "type": "bytes"
            }
          ],
          "internalType": "struct EnumerableCID.CID[]",
          "name": "cids",
          "type": "tuple[]"
        }
      ],
      "stateMutability": "view",
      "type": "function"
    },
    {
      "inputs": [],
      "name": "renounceOwnership",
      "outputs": [],
      "stateMutability": "nonpayable",
      "type": "function"
    },
    {
      "inputs": [],
      "name": "rootStorageSpend",
      "outputs": [
        {
          "internalType": "bytes4",
          "name": "",
          "type": "bytes4"
        }
      ],
      "stateMutability": "view",
      "type": "function"
    },
    {
      "inputs": [
        {
          "internalType": "contract IChildChannel",
          "name": "_channel",
          "type": "address"
        }
      ],
      "name": "setChildChannel",
      "outputs": [],
      "stateMutability": "nonpayable",
      "type": "function"
    },
    {
      "inputs": [
        {
          "internalType": "address",
          "name": "_rootChannel",
          "type": "address"
        }
      ],
      "name": "setRootChannel",
      "outputs": [],
      "stateMutability": "nonpayable",
      "type": "function"
    },
    {
      "inputs": [
        {
          "internalType": "address",
          "name": "buyer",
          "type": "address"
        }
      ],
      "name": "spendStorage",
      "outputs": [],
      "stateMutability": "nonpayable",
      "type": "function"
    },
    {
      "inputs": [
        {
          "internalType": "address",
          "name": "",
          "type": "address"
        }
      ],
      "name": "storageBalances",
      "outputs": [
        {
          "internalType": "uint256",
          "name": "total",
          "type": "uint256"
        },
        {
          "internalType": "uint256",
          "name": "left",
          "type": "uint256"
        },
        {
          "internalType": "uint256",
          "name": "deadline",
          "type": "uint256"
        }
      ],
      "stateMutability": "view",
      "type": "function"
    },
    {
      "inputs": [],
      "name": "storageResource",
      "outputs": [
        {
          "internalType": "address",
          "name": "",
          "type": "address"
        }
      ],
      "stateMutability": "view",
      "type": "function"
    },
    {
      "inputs": [
        {
          "internalType": "address",
          "name": "newOwner",
          "type": "address"
        }
      ],
      "name": "transferOwnership",
      "outputs": [],
      "stateMutability": "nonpayable",
      "type": "function"
    }
  ],
  "transactionHash": "0x9ba8a7e6111c80091aab2713d38a43e4fd6a97846e38d5c47ac4d70902197cff",
  "args": [
    "0xa995AE28b9cFf206C3971D1887cc934FC48e3a0F"
  ],
  "bytecode": "0x60806040526004805463ffffffff191663af7d6ca31790553480156200002457600080fd5b5060405162001c9238038062001c92833981016040819052620000479162000156565b6200005b620000556200006d565b62000071565b6200006681620000c1565b5062000201565b3390565b600080546001600160a01b038381166001600160a01b0319831681178455604051919092169283917f8be0079c531659141344cd1fd0a4f28419497f9722a3daafe3b4186f6b6457e09190a35050565b620000cb6200006d565b6001600160a01b0316620000de62000147565b6001600160a01b031614620001105760405162461bcd60e51b81526004016200010790620001cc565b60405180910390fd5b6001600160a01b038116620001395760405162461bcd60e51b8152600401620001079062000186565b620001448162000071565b50565b6000546001600160a01b031690565b60006020828403121562000168578081fd5b81516001600160a01b03811681146200017f578182fd5b9392505050565b60208082526026908201527f4f776e61626c653a206e6577206f776e657220697320746865207a65726f206160408201526564647265737360d01b606082015260800190565b6020808252818101527f4f776e61626c653a2063616c6c6572206973206e6f7420746865206f776e6572604082015260600190565b611a8180620002116000396000f3fe608060405234801561001057600080fd5b50600436106101205760003560e01c806382a8f157116100ad578063a2cbca5611610071578063a2cbca561461025e578063afc8407914610266578063b7e8230414610279578063dd5dc73b14610299578063f2fde38b146102ac57610120565b806382a8f157146101fd5780638da5cb5b1461021d5780638eb4f0901461022557806392079dc5146102385780639e30713e1461024b57610120565b80632d976124116100f45780632d9761241461018d5780634898bcf8146101ad578063715018a6146101c05780637a8caa02146101c85780637bbdb96e146101e857610120565b8062aa7b571461012557806306bd04d21461013a5780630b9c181f146101655780632c76b3c21461017a575b600080fd5b6101386101333660046113f5565b6102bf565b005b61014d6101483660046113d9565b6103d3565b60405161015c9392919061196f565b60405180910390f35b61016d6103f4565b60405161015c91906116a0565b6101386101883660046113d9565b6103fd565b6101a061019b366004611476565b610486565b60405161015c9190611945565b6101386101bb3660046114ef565b6104b9565b610138610712565b6101db6101d63660046113d9565b61075d565b60405161015c9190611958565b6101f061077e565b60405161015c91906115e4565b61021061020b366004611546565b61078d565b60405161015c9190611635565b6101f0610873565b6101a0610233366004611476565b610882565b6101386102463660046113d9565b6108b4565b61013861025936600461143a565b61098c565b6101f06109f6565b6101386102743660046114a1565b610a05565b61028c6102873660046113d9565b610b99565b60405161015c9190611695565b6101386102a73660046113d9565b610bae565b6101386102ba3660046113d9565b610cd0565b6001546001600160a01b031633146102f25760405162461bcd60e51b81526004016102e9906118f2565b60405180910390fd5b6002546001600160a01b031661031e57600280546001600160a01b0319166001600160a01b0386161790555b6001600160a01b0383166000908152600360205260409020546103419083610d41565b6001600160a01b03841660009081526003602052604090209081556001015461036a9083610d41565b6001600160a01b038416600081815260036020526040908190206001810193909355600290920183905590517fd682007e3c7b8d3011178c2d262fde683d36194368cef75883ae8962194bce8b906103c59085908590611961565b60405180910390a250505050565b60036020526000908152604090208054600182015460029092015490919083565b60045460e01b81565b610405610d4d565b6001600160a01b0316610416610873565b6001600160a01b03161461043c5760405162461bcd60e51b81526004016102e9906117d5565b600180546001600160a01b0319166001600160a01b0383169081179091556040517fe54b19c181b769fe92eecce1051e5d0dde17a8b319992db9dbf3d6aab0fa247690600090a250565b61048e61126d565b6001600160a01b03831660009081526005602052604090206104b09083610d51565b90505b92915050565b818051602e146104db5760405162461bcd60e51b81526004016102e99061180a565b81600081116104fc5760405162461bcd60e51b81526004016102e99061179e565b3360009081526006602052604090205460ff1661052b5760405162461bcd60e51b81526004016102e990611730565b6001600160a01b0385166000908152600360205260409020600101548311156105665760405162461bcd60e51b81526004016102e990611878565b8351602085012060006105798783610486565b519050806105f5576001600160a01b0387166000908152600360205260409020600101546105a79086610e4f565b6001600160a01b038816600081815260036020908152604080832060010194909455835180850185528981528082018b905292825260059052919091206105ef918490610e5b565b506106c3565b8481146106c357848111600081610615576106108784610e4f565b61061f565b61061f8388610e4f565b905081610651576001600160a01b03891660009081526003602052604090206001015461064c9082610e4f565b610677565b6001600160a01b0389166000908152600360205260409020600101546106779082610d41565b6001600160a01b038a16600081815260036020908152604080832060010194909455835180850185528b81528082018d905292825260059052919091206106bf918690610e5b565b5050505b816000886001600160a01b03167f9fe62b32d7b5558e0f55106987ea0da9870abe66e7b3a14fdc3d482bc2f01fbe89896040516107019291906116c8565b60405180910390a450505050505050565b61071a610d4d565b6001600160a01b031661072b610873565b6001600160a01b0316146107515760405162461bcd60e51b81526004016102e9906117d5565b61075b6000610e99565b565b6001600160a01b03811660009081526005602052604081206104b390610ee9565b6001546001600160a01b031681565b60606103e88211156107b15760405162461bcd60e51b81526004016102e990611841565b8167ffffffffffffffff8111156107d857634e487b7160e01b600052604160045260246000fd5b60405190808252806020026020018201604052801561081157816020015b6107fe61126d565b8152602001906001900390816107f65790505b50905060005b8281101561086b5761082d856102338684610d41565b82828151811061084d57634e487b7160e01b600052603260045260246000fd5b60200260200101819052508080610863906119ef565b915050610817565b509392505050565b6000546001600160a01b031690565b61088a61126d565b6001600160a01b03831660009081526005602052604090206108ac9083610ef4565b949350505050565b6108bc610d4d565b6001600160a01b03166108cd610873565b6001600160a01b0316146108f35760405162461bcd60e51b81526004016102e9906117d5565b6001546040516392079dc560e01b81526001600160a01b03909116906392079dc5906109239084906004016115e4565b600060405180830381600087803b15801561093d57600080fd5b505af1158015610951573d6000803e3d6000fd5b50506040516001600160a01b03841692507f100f8c3e1ccb621715219a08019952cd61ec92c46113d94f52f39df38db7daf29150600090a250565b610994610d4d565b6001600160a01b03166109a5610873565b6001600160a01b0316146109cb5760405162461bcd60e51b81526004016102e9906117d5565b6001600160a01b03919091166000908152600660205260409020805460ff1916911515919091179055565b6002546001600160a01b031681565b808051602e14610a275760405162461bcd60e51b81526004016102e99061180a565b3360009081526006602052604090205460ff16610a565760405162461bcd60e51b81526004016102e990611730565b81516020808401919091206001600160a01b038516600090815260059092526040909120610a849082610fd8565b15610b93576001600160a01b0384166000908152600560205260408120610aab9083610d51565b516001600160a01b03861660009081526003602052604081206001015491925090610ad69083610d41565b6001600160a01b0387166000908152600360205260409020549091508111610afe5780610b18565b6001600160a01b0386166000908152600360205260409020545b6001600160a01b0387166000908152600360209081526040808320600101939093556005905220610b499084610fe4565b50826001876001600160a01b03167f9fe62b32d7b5558e0f55106987ea0da9870abe66e7b3a14fdc3d482bc2f01fbe8886604051610b889291906116c8565b60405180910390a450505b50505050565b60066020526000908152604090205460ff1681565b610bb6610d4d565b6001600160a01b0316610bc7610873565b6001600160a01b031614610bed5760405162461bcd60e51b81526004016102e9906117d5565b6002546001600160a01b0316610c155760405162461bcd60e51b81526004016102e990611767565b6001600160a01b038116600090815260036020526040812060018101549054610c3d91610e4f565b60045460405191925060009160e09190911b90610c60908590859060240161161c565b60408051601f19818403018152918152602080830180516001600160e01b03166001600160e01b0319909516949094179093526002549051919350610ccb92610cb7926001600160a01b03909216918591016115f8565b604051602081830303815290604052611012565b505050565b610cd8610d4d565b6001600160a01b0316610ce9610873565b6001600160a01b031614610d0f5760405162461bcd60e51b81526004016102e9906117d5565b6001600160a01b038116610d355760405162461bcd60e51b81526004016102e9906116ea565b610d3e81610e99565b50565b60006104b08284611985565b3390565b610d5961126d565b600083600201600084815260200190815260200160002060405180604001604052908160008201548152602001600182018054610d95906119b4565b80601f0160208091040260200160405190810160405280929190818152602001828054610dc1906119b4565b8015610e0e5780601f10610de357610100808354040283529160200191610e0e565b820191906000526020600020905b815481529060010190602001808311610df157829003601f168201915b50505050508152505090508060200151516000141580610e335750610e338484610fd8565b6104b05760405162461bcd60e51b81526004016102e9906118bb565b60006104b0828461199d565b600082815260028401602090815260408220835181558184015180518593610e8a926001850192910190611287565b506108ac915085905084611077565b600080546001600160a01b038381166001600160a01b0319831681178455604051919092169283917f8be0079c531659141344cd1fd0a4f28419497f9722a3daafe3b4186f6b6457e09190a35050565b60006104b382611083565b6000610efe61126d565b6000610f0a858561108e565b9050808560020160008381526020019081526020016000208060405180604001604052908160008201548152602001600182018054610f48906119b4565b80601f0160208091040260200160405190810160405280929190818152602001828054610f74906119b4565b8015610fc15780601f10610f9657610100808354040283529160200191610fc1565b820191906000526020600020905b815481529060010190602001808311610fa457829003601f168201915b505050505081525050905092509250509250929050565b60006104b0838361109a565b6000818152600283016020526040812081815581611005600183018261130b565b506104b0905083836110a6565b600154604051634d089f7160e11b81526001600160a01b0390911690639a113ee2906110429084906004016116b5565b600060405180830381600087803b15801561105c57600080fd5b505af1158015611070573d6000803e3d6000fd5b5050505050565b60006104b083836110b2565b60006104b3826110fc565b60006104b08383611100565b60006104b08383611138565b60006104b08383611150565b60006110be8383611138565b6110f4575081546001818101845560008481526020808220909301849055845484825282860190935260409020919091556104b3565b5060006104b3565b5490565b600082600001828154811061112557634e487b7160e01b600052603260045260246000fd5b9060005260206000200154905092915050565b60009081526001919091016020526040902054151590565b6000818152600183016020526040812054801561126357600061117460018361199d565b85549091506000906111889060019061199d565b90508181146112095760008660000182815481106111b657634e487b7160e01b600052603260045260246000fd5b90600052602060002001549050808760000184815481106111e757634e487b7160e01b600052603260045260246000fd5b6000918252602080832090910192909255918252600188019052604090208390555b855486908061122857634e487b7160e01b600052603160045260246000fd5b6001900381819060005260206000200160009055905585600101600086815260200190815260200160002060009055600193505050506104b3565b60009150506104b3565b604051806040016040528060008152602001606081525090565b828054611293906119b4565b90600052602060002090601f0160209004810192826112b557600085556112fb565b82601f106112ce57805160ff19168380011785556112fb565b828001600101855582156112fb579182015b828111156112fb5782518255916020019190600101906112e0565b50611307929150611343565b5090565b508054611317906119b4565b6000825580601f106113295750610d3e565b601f016020900490600052602060002090810190610d3e91905b5b808211156113075760008155600101611344565b600082601f830112611368578081fd5b813567ffffffffffffffff8082111561138357611383611a20565b604051601f8301601f1916810160200182811182821017156113a7576113a7611a20565b6040528281528483016020018610156113be578384fd5b82602086016020830137918201602001929092529392505050565b6000602082840312156113ea578081fd5b81356104b081611a36565b6000806000806080858703121561140a578283fd5b843561141581611a36565b9350602085013561142581611a36565b93969395505050506040820135916060013590565b6000806040838503121561144c578182fd5b823561145781611a36565b91506020830135801515811461146b578182fd5b809150509250929050565b60008060408385031215611488578182fd5b823561149381611a36565b946020939093013593505050565b600080604083850312156114b3578182fd5b82356114be81611a36565b9150602083013567ffffffffffffffff8111156114d9578182fd5b6114e585828601611358565b9150509250929050565b600080600060608486031215611503578283fd5b833561150e81611a36565b9250602084013567ffffffffffffffff811115611529578283fd5b61153586828701611358565b925050604084013590509250925092565b60008060006060848603121561155a578283fd5b833561156581611a36565b95602085013595506040909401359392505050565b60008151808452815b8181101561159f57602081850181015186830182015201611583565b818111156115b05782602083870101525b50601f01601f19169290920160200192915050565b6000815183526020820151604060208501526108ac604085018261157a565b6001600160a01b0391909116815260200190565b6001600160a01b03831681526040602082018190526000906108ac9083018461157a565b6001600160a01b03929092168252602082015260400190565b6000602080830181845280855180835260408601915060408482028701019250838701855b8281101561168857603f198886030184526116768583516115c5565b9450928501929085019060010161165a565b5092979650505050505050565b901515815260200190565b6001600160e01b031991909116815260200190565b6000602082526104b0602083018461157a565b6000604082526116db604083018561157a565b90508260208301529392505050565b60208082526026908201527f4f776e61626c653a206e6577206f776e657220697320746865207a65726f206160408201526564647265737360d01b606082015260800190565b6020808252601b908201527f53746f726167653a2070696e206e6f74207065726d69747465642e0000000000604082015260600190565b60208082526017908201527f73746f72616765206e6f7420696e697469616c697a6564000000000000000000604082015260600190565b6020808252601a908201527f53746f726167653a20696e76616c6964206369642073697a652e000000000000604082015260600190565b6020808252818101527f4f776e61626c653a2063616c6c6572206973206e6f7420746865206f776e6572604082015260600190565b6020808252601c908201527f53746f726167653a20696e76616c696420636964206c656e6774682e00000000604082015260600190565b6020808252601a908201527f53746f726167653a206c696d6974206578636565642031303030000000000000604082015260600190565b60208082526023908201527f53746f726167653a206e6f7420656e6f7567682073746f7261676520746f207060408201526234b71760e91b606082015260800190565b6020808252601e908201527f456e756d657261626c654d61703a206e6f6e6578697374656e74206b65790000604082015260600190565b60208082526033908201527f5265736f75726365576974684368616e6e656c3a2043616e2062652063616c6c60408201527232b210313c9031b430b73732b61037b7363c9760691b606082015260800190565b6000602082526104b060208301846115c5565b90815260200190565b918252602082015260400190565b9283526020830191909152604082015260600190565b6000821982111561199857611998611a0a565b500190565b6000828210156119af576119af611a0a565b500390565b6002810460018216806119c857607f821691505b602082108114156119e957634e487b7160e01b600052602260045260246000fd5b50919050565b6000600019821415611a0357611a03611a0a565b5060010190565b634e487b7160e01b600052601160045260246000fd5b634e487b7160e01b600052604160045260246000fd5b6001600160a01b0381168114610d3e57600080fdfea26469706673582212204879edaff44b462ba10b04e3dca241fbbd67cecdb479bcec13a075b7949af08e64736f6c63430008000033"
}