{
	"address": "0x98ff17B832CAB3df975493583F532D1b21555C98",
	"abi": [
		{
			"inputs": [
				{
					"internalType": "address",
					"name": "owner",
					"type": "address"
				}
			],
			"stateMutability": "nonpayable",
			"type": "constructor"
		},
		{
			"anonymous": false,
			"inputs": [
				{
					"indexed": true,
					"internalType": "address",
					"name": "previousOwner",
					"type": "address"
				},
				{
					"indexed": true,
					"internalType": "address",
					"name": "newOwner",
					"type": "address"
				}
			],
			"name": "OwnershipTransferred",
			"type": "event"
		},
		{
			"anonymous": false,
			"inputs": [
				{
					"indexed": true,
					"internalType": "address",
					"name": "to",
					"type": "address"
				},
				{
					"indexed": true,
					"internalType": "uint8",
					"name": "operation",
					"type": "uint8"
				},
				{
					"indexed": true,
					"internalType": "bytes32",
					"name": "key",
					"type": "bytes32"
				},
				{
					"indexed": false,
					"internalType": "bytes",
					"name": "cid",
					"type": "bytes"
				},
				{
					"indexed": false,
					"internalType": "uint256",
					"name": "size",
					"type": "uint256"
				}
			],
			"name": "Pin",
			"type": "event"
		},
		{
			"anonymous": false,
			"inputs": [
				{
					"indexed": true,
					"internalType": "address",
					"name": "childChannel",
					"type": "address"
				}
			],
			"name": "SetChildChannel",
			"type": "event"
		},
		{
			"anonymous": false,
			"inputs": [
				{
					"indexed": true,
					"internalType": "address",
					"name": "rootChannel",
					"type": "address"
				}
			],
			"name": "SetRootChannel",
			"type": "event"
		},
		{
			"anonymous": false,
			"inputs": [
				{
					"indexed": true,
					"internalType": "address",
					"name": "to",
					"type": "address"
				},
				{
					"indexed": false,
					"internalType": "uint256",
					"name": "amount",
					"type": "uint256"
				},
				{
					"indexed": false,
					"internalType": "uint256",
					"name": "expiration",
					"type": "uint256"
				}
			],
			"name": "SyncStorage",
			"type": "event"
		},
		{
			"inputs": [
				{
					"internalType": "uint256",
					"name": "index",
					"type": "uint256"
				}
			],
			"name": "accountAt",
			"outputs": [
				{
					"internalType": "address",
					"name": "account",
					"type": "address"
				}
			],
			"stateMutability": "view",
			"type": "function"
		},
		{
			"inputs": [],
			"name": "accountsLength",
			"outputs": [
				{
					"internalType": "uint256",
					"name": "",
					"type": "uint256"
				}
			],
			"stateMutability": "view",
			"type": "function"
		},
		{
			"inputs": [],
			"name": "channel",
			"outputs": [
				{
					"internalType": "contract IChildChannel",
					"name": "",
					"type": "address"
				}
			],
			"stateMutability": "view",
			"type": "function"
		},
		{
			"inputs": [
				{
					"internalType": "address",
					"name": "to",
					"type": "address"
				},
				{
					"internalType": "uint256",
					"name": "index",
					"type": "uint256"
				}
			],
			"name": "cidAt",
			"outputs": [
				{
					"components": [
						{
							"internalType": "uint256",
							"name": "size",
							"type": "uint256"
						},
						{
							"internalType": "bytes",
							"name": "data",
							"type": "bytes"
						}
					],
					"internalType": "struct EnumerableCID.CID",
					"name": "cid",
					"type": "tuple"
				}
			],
			"stateMutability": "view",
			"type": "function"
		},
		{
			"inputs": [
				{
					"internalType": "address",
					"name": "to",
					"type": "address"
				}
			],
			"name": "cidLength",
			"outputs": [
				{
					"internalType": "uint256",
					"name": "",
					"type": "uint256"
				}
			],
			"stateMutability": "view",
			"type": "function"
		},
		{
			"inputs": [
				{
					"internalType": "uint256",
					"name": "offset",
					"type": "uint256"
				},
				{
					"internalType": "uint256",
					"name": "limit",
					"type": "uint256"
				}
			],
			"name": "getAccounts",
			"outputs": [
				{
					"internalType": "address[]",
					"name": "accounts",
					"type": "address[]"
				}
			],
			"stateMutability": "view",
			"type": "function"
		},
		{
			"inputs": [
				{
					"internalType": "address",
					"name": "to",
					"type": "address"
				},
				{
					"internalType": "uint256",
					"name": "offset",
					"type": "uint256"
				},
				{
					"internalType": "uint256",
					"name": "limit",
					"type": "uint256"
				}
			],
			"name": "getCIDs",
			"outputs": [
				{
					"components": [
						{
							"internalType": "uint256",
							"name": "size",
							"type": "uint256"
						},
						{
							"internalType": "bytes",
							"name": "data",
							"type": "bytes"
						}
					],
					"internalType": "struct EnumerableCID.CID[]",
					"name": "cids",
					"type": "tuple[]"
				}
			],
			"stateMutability": "view",
			"type": "function"
		},
		{
			"inputs": [],
			"name": "owner",
			"outputs": [
				{
					"internalType": "address",
					"name": "",
					"type": "address"
				}
			],
			"stateMutability": "view",
			"type": "function"
		},
		{
			"inputs": [
				{
					"internalType": "address",
					"name": "pinManager",
					"type": "address"
				},
				{
					"internalType": "bool",
					"name": "isPermit",
					"type": "bool"
				}
			],
			"name": "permitPin",
			"outputs": [],
			"stateMutability": "nonpayable",
			"type": "function"
		},
		{
			"inputs": [
				{
					"internalType": "address",
					"name": "",
					"type": "address"
				}
			],
			"name": "permittedPinManagers",
			"outputs": [
				{
					"internalType": "bool",
					"name": "",
					"type": "bool"
				}
			],
			"stateMutability": "view",
			"type": "function"
		},
		{
			"inputs": [
				{
					"internalType": "address",
					"name": "to",
					"type": "address"
				},
				{
					"internalType": "bytes",
					"name": "cid",
					"type": "bytes"
				},
				{
					"internalType": "uint256",
					"name": "size",
					"type": "uint256"
				}
			],
			"name": "pinAdd",
			"outputs": [],
			"stateMutability": "nonpayable",
			"type": "function"
		},
		{
			"inputs": [
				{
					"internalType": "address",
					"name": "to",
					"type": "address"
				},
				{
					"internalType": "bytes",
					"name": "cid",
					"type": "bytes"
				}
			],
			"name": "pinRemove",
			"outputs": [],
			"stateMutability": "nonpayable",
			"type": "function"
		},
		{
			"inputs": [],
			"name": "renounceOwnership",
			"outputs": [],
			"stateMutability": "nonpayable",
			"type": "function"
		},
		{
			"inputs": [
				{
					"internalType": "contract IChildChannel",
					"name": "_channel",
					"type": "address"
				}
			],
			"name": "setChildChannel",
			"outputs": [],
			"stateMutability": "nonpayable",
			"type": "function"
		},
		{
			"inputs": [
				{
					"internalType": "address",
					"name": "_rootChannel",
					"type": "address"
				}
			],
			"name": "setRootChannel",
			"outputs": [],
			"stateMutability": "nonpayable",
			"type": "function"
		},
		{
			"inputs": [
				{
					"internalType": "address",
					"name": "",
					"type": "address"
				}
			],
			"name": "storageBalances",
			"outputs": [
				{
					"internalType": "uint256",
					"name": "total",
					"type": "uint256"
				},
				{
					"internalType": "uint256",
					"name": "left",
					"type": "uint256"
				},
				{
					"internalType": "uint256",
					"name": "expiration",
					"type": "uint256"
				}
			],
			"stateMutability": "view",
			"type": "function"
		},
		{
			"inputs": [
				{
					"internalType": "address",
					"name": "_storageResource",
					"type": "address"
				},
				{
					"internalType": "address",
					"name": "to",
					"type": "address"
				},
				{
					"internalType": "uint256",
					"name": "amount",
					"type": "uint256"
				},
				{
					"internalType": "uint256",
					"name": "expiration",
					"type": "uint256"
				}
			],
			"name": "sync",
			"outputs": [],
			"stateMutability": "nonpayable",
			"type": "function"
		},
		{
			"inputs": [
				{
					"internalType": "address",
					"name": "newOwner",
					"type": "address"
				}
			],
			"name": "transferOwnership",
			"outputs": [],
			"stateMutability": "nonpayable",
			"type": "function"
		}
	],
	"transactionHash": "0x071b3eb178744f4e1c46e00648c00718af1b679773689aa3640b0873c17153a3",
	"args": [
		"0xF1658C608708172655A8e70a1624c29F956Ee63D"
	],
	"bytecode": "0x60806040523480156200001157600080fd5b5060405162001b3c38038062001b3c833981016040819052620000349162000143565b62000048620000426200005a565b6200005e565b6200005381620000ae565b50620001ee565b3390565b600080546001600160a01b038381166001600160a01b0319831681178455604051919092169283917f8be0079c531659141344cd1fd0a4f28419497f9722a3daafe3b4186f6b6457e09190a35050565b620000b86200005a565b6001600160a01b0316620000cb62000134565b6001600160a01b031614620000fd5760405162461bcd60e51b8152600401620000f490620001b9565b60405180910390fd5b6001600160a01b038116620001265760405162461bcd60e51b8152600401620000f49062000173565b62000131816200005e565b50565b6000546001600160a01b031690565b60006020828403121562000155578081fd5b81516001600160a01b03811681146200016c578182fd5b9392505050565b60208082526026908201527f4f776e61626c653a206e6577206f776e657220697320746865207a65726f206160408201526564647265737360d01b606082015260800190565b6020808252818101527f4f776e61626c653a2063616c6c6572206973206e6f7420746865206f776e6572604082015260600190565b61193e80620001fe6000396000f3fe608060405234801561001057600080fd5b50600436106101165760003560e01c80638eb4f090116100a2578063b7e8230411610071578063b7e8230414610227578063e51442e314610247578063e68a7c3b1461025a578063f2fde38b1461027a578063fda7f7ab1461028d57610116565b80638eb4f090146101ce57806392079dc5146101ee5780639e30713e14610201578063afc840791461021457610116565b806371a97745116100e957806371a97745146101765780637a8caa021461018b5780637bbdb96e1461019e5780637d3d0857146101b35780638da5cb5b146101c657610116565b806306bd04d21461011b5780632c76b3c2146101465780634898bcf81461015b578063715018a61461016e575b600080fd5b61012e6101293660046112fd565b6102ad565b60405161013d9392919061182c565b60405180910390f35b6101596101543660046112fd565b6102ce565b005b6101596101693660046113e8565b610360565b6101596105b6565b61017e610601565b60405161013d9190611815565b61017e6101993660046112fd565b610612565b6101a6610639565b60405161013d919061155e565b6101596101c1366004611319565b610648565b6101a66106ba565b6101e16101dc36600461143f565b6106c9565b60405161013d9190611802565b6101596101fc3660046112fd565b6106fb565b61015961020f36600461135e565b6107d3565b61015961022236600461139a565b61083d565b61023a6102353660046112fd565b6109a3565b60405161013d919061161f565b6101a661025536600461149e565b6109b8565b61026d6102683660046114b6565b6109cc565b60405161013d9190611572565b6101596102883660046112fd565b610a8a565b6102a061029b36600461146a565b610afb565b60405161013d91906115bf565b60036020526000908152604090208054600182015460029092015490919083565b6102d6610bbf565b6001600160a01b03166102e76106ba565b6001600160a01b0316146103165760405162461bcd60e51b815260040161030d90611700565b60405180910390fd5b600180546001600160a01b0319166001600160a01b0383169081179091556040517fe54b19c181b769fe92eecce1051e5d0dde17a8b319992db9dbf3d6aab0fa247690600090a250565b80600081116103815760405162461bcd60e51b815260040161030d906116c9565b3360009081526008602052604090205460ff166103b05760405162461bcd60e51b815260040161030d90611692565b6001600160a01b0384166000908152600360205260409020600101548211156103eb5760405162461bcd60e51b815260040161030d90611735565b82516020808501919091206001600160a01b0386166000908152600790925260409091206104199082610bc3565b156104f957600061042a8683610bcf565b519050838111600081610446576104418684610bf9565b610450565b6104508387610bf9565b905081610482576001600160a01b03881660009081526003602052604090206001015461047d9082610bf9565b6104a8565b6001600160a01b0388166000908152600360205260409020600101546104a89082610c05565b6001600160a01b038916600081815260036020908152604080832060010194909455835180850185528a81528082018c905292825260079052919091206104f0918690610c11565b50505050610569565b6001600160a01b03851660009081526003602052604090206001015461051f9084610bf9565b6001600160a01b038616600081815260036020908152604080832060010194909455835180850185528781528082018990529282526007905291909120610567918390610c11565b505b806000866001600160a01b03167f9fe62b32d7b5558e0f55106987ea0da9870abe66e7b3a14fdc3d482bc2f01fbe87876040516105a792919061162a565b60405180910390a45050505050565b6105be610bbf565b6001600160a01b03166105cf6106ba565b6001600160a01b0316146105f55760405162461bcd60e51b815260040161030d90611700565b6105ff6000610c4f565b565b600061060d6004610c9f565b905090565b6001600160a01b038116600090815260076020526040812061063390610c9f565b92915050565b6001546001600160a01b031681565b6001546001600160a01b031633146106725760405162461bcd60e51b815260040161030d906117af565b6106a7836040516020016106869190611541565b60408051601f19818403018152919052805160209091012060049085610caa565b506106b484848484610cdd565b50505050565b6000546001600160a01b031690565b6106d1611191565b6001600160a01b03831660009081526007602052604090206106f39083610d56565b949350505050565b610703610bbf565b6001600160a01b03166107146106ba565b6001600160a01b03161461073a5760405162461bcd60e51b815260040161030d90611700565b6001546040516392079dc560e01b81526001600160a01b03909116906392079dc59061076a90849060040161155e565b600060405180830381600087803b15801561078457600080fd5b505af1158015610798573d6000803e3d6000fd5b50506040516001600160a01b03841692507f100f8c3e1ccb621715219a08019952cd61ec92c46113d94f52f39df38db7daf29150600090a250565b6107db610bbf565b6001600160a01b03166107ec6106ba565b6001600160a01b0316146108125760405162461bcd60e51b815260040161030d90611700565b6001600160a01b03919091166000908152600860205260409020805460ff1916911515919091179055565b3360009081526008602052604090205460ff1661086c5760405162461bcd60e51b815260040161030d90611692565b80516020808301919091206001600160a01b03841660009081526007909252604090912061089a9082610bc3565b1561099e576001600160a01b03831660009081526007602052604081206108c19083610e3a565b516001600160a01b038516600090815260036020526040812060010154919250906108ec9083610c05565b6001600160a01b0386166000908152600360205260409020549091508111610914578061092e565b6001600160a01b0385166000908152600360205260409020545b6001600160a01b038616600090815260036020908152604080832060010193909355600790522061095f9084610f38565b50826001866001600160a01b03167f9fe62b32d7b5558e0f55106987ea0da9870abe66e7b3a14fdc3d482bc2f01fbe87866040516105a792919061162a565b505050565b60086020526000908152604090205460ff1681565b60006109c5600483610f66565b9392505050565b60608167ffffffffffffffff8111156109f557634e487b7160e01b600052604160045260246000fd5b604051908082528060200260200182016040528015610a1e578160200160208202803683370190505b50905060005b82811015610a8357610a396102558583610c05565b828281518110610a5957634e487b7160e01b600052603260045260246000fd5b6001600160a01b039092166020928302919091019091015280610a7b816118ac565b915050610a24565b5092915050565b610a92610bbf565b6001600160a01b0316610aa36106ba565b6001600160a01b031614610ac95760405162461bcd60e51b815260040161030d90611700565b6001600160a01b038116610aef5760405162461bcd60e51b815260040161030d9061164c565b610af881610c4f565b50565b60608167ffffffffffffffff811115610b2457634e487b7160e01b600052604160045260246000fd5b604051908082528060200260200182016040528015610b5d57816020015b610b4a611191565b815260200190600190039081610b425790505b50905060005b82811015610bb757610b79856101dc8684610c05565b828281518110610b9957634e487b7160e01b600052603260045260246000fd5b60200260200101819052508080610baf906118ac565b915050610b63565b509392505050565b3390565b60006109c58383610f9b565b610bd7611191565b6001600160a01b03831660009081526007602052604090206109c59083610e3a565b60006109c5828461185a565b60006109c58284611842565b600082815260028401602090815260408220835181558184015180518593610c409260018501929101906111ab565b506106f3915085905084610fa7565b600080546001600160a01b038381166001600160a01b0319831681178455604051919092169283917f8be0079c531659141344cd1fd0a4f28419497f9722a3daafe3b4186f6b6457e09190a35050565b600061063382610fb3565b6000828152600284016020526040812080546001600160a01b0319166001600160a01b0384161790556106f38484610fa7565b600280546001600160a01b0319166001600160a01b0386811691909117825584166000818152600360205260409081902085815590920183905590517f9cf5b8a9a5b97bdff198ab8507f60d5fe288610024bb28fb0696ad481f9839f290610d48908590859061181e565b60405180910390a250505050565b6000610d60611191565b6000610d6c8585610fbe565b9050808560020160008381526020019081526020016000208060405180604001604052908160008201548152602001600182018054610daa90611871565b80601f0160208091040260200160405190810160405280929190818152602001828054610dd690611871565b8015610e235780601f10610df857610100808354040283529160200191610e23565b820191906000526020600020905b815481529060010190602001808311610e0657829003601f168201915b505050505081525050905092509250509250929050565b610e42611191565b600083600201600084815260200190815260200160002060405180604001604052908160008201548152602001600182018054610e7e90611871565b80601f0160208091040260200160405190810160405280929190818152602001828054610eaa90611871565b8015610ef75780601f10610ecc57610100808354040283529160200191610ef7565b820191906000526020600020905b815481529060010190602001808311610eda57829003601f168201915b50505050508152505090508060200151516000141580610f1c5750610f1c8484610bc3565b6109c55760405162461bcd60e51b815260040161030d90611778565b6000818152600283016020526040812081815581610f59600183018261122f565b506109c590508383610fca565b60008080610f748585610fbe565b60008181526002870160205260409020549093506001600160a01b03169150509250929050565b60006109c58383610fd6565b60006109c58383610fee565b600061063382611038565b60006109c5838361103c565b60006109c58383611074565b60009081526001919091016020526040902054151590565b6000610ffa8383610fd6565b61103057508154600181810184556000848152602080822090930184905584548482528286019093526040902091909155610633565b506000610633565b5490565b600082600001828154811061106157634e487b7160e01b600052603260045260246000fd5b9060005260206000200154905092915050565b6000818152600183016020526040812054801561118757600061109860018361185a565b85549091506000906110ac9060019061185a565b905081811461112d5760008660000182815481106110da57634e487b7160e01b600052603260045260246000fd5b906000526020600020015490508087600001848154811061110b57634e487b7160e01b600052603260045260246000fd5b6000918252602080832090910192909255918252600188019052604090208390555b855486908061114c57634e487b7160e01b600052603160045260246000fd5b600190038181906000526020600020016000905590558560010160008681526020019081526020016000206000905560019350505050610633565b6000915050610633565b604051806040016040528060008152602001606081525090565b8280546111b790611871565b90600052602060002090601f0160209004810192826111d9576000855561121f565b82601f106111f257805160ff191683800117855561121f565b8280016001018555821561121f579182015b8281111561121f578251825591602001919060010190611204565b5061122b929150611267565b5090565b50805461123b90611871565b6000825580601f1061124d5750610af8565b601f016020900490600052602060002090810190610af891905b5b8082111561122b5760008155600101611268565b600082601f83011261128c578081fd5b813567ffffffffffffffff808211156112a7576112a76118dd565b604051601f8301601f1916810160200182811182821017156112cb576112cb6118dd565b6040528281528483016020018610156112e2578384fd5b82602086016020830137918201602001929092529392505050565b60006020828403121561130e578081fd5b81356109c5816118f3565b6000806000806080858703121561132e578283fd5b8435611339816118f3565b93506020850135611349816118f3565b93969395505050506040820135916060013590565b60008060408385031215611370578182fd5b823561137b816118f3565b91506020830135801515811461138f578182fd5b809150509250929050565b600080604083850312156113ac578182fd5b82356113b7816118f3565b9150602083013567ffffffffffffffff8111156113d2578182fd5b6113de8582860161127c565b9150509250929050565b6000806000606084860312156113fc578283fd5b8335611407816118f3565b9250602084013567ffffffffffffffff811115611422578283fd5b61142e8682870161127c565b925050604084013590509250925092565b60008060408385031215611451578182fd5b823561145c816118f3565b946020939093013593505050565b60008060006060848603121561147e578283fd5b8335611489816118f3565b95602085013595506040909401359392505050565b6000602082840312156114af578081fd5b5035919050565b600080604083850312156114c8578182fd5b50508035926020909101359150565b60008151808452815b818110156114fc576020818501810151868301820152016114e0565b8181111561150d5782602083870101525b50601f01601f19169290920160200192915050565b6000815183526020820151604060208501526106f360408501826114d7565b60609190911b6bffffffffffffffffffffffff1916815260140190565b6001600160a01b0391909116815260200190565b6020808252825182820181905260009190848201906040850190845b818110156115b35783516001600160a01b03168352928401929184019160010161158e565b50909695505050505050565b6000602080830181845280855180835260408601915060408482028701019250838701855b8281101561161257603f19888603018452611600858351611522565b945092850192908501906001016115e4565b5092979650505050505050565b901515815260200190565b60006040825261163d60408301856114d7565b90508260208301529392505050565b60208082526026908201527f4f776e61626c653a206e6577206f776e657220697320746865207a65726f206160408201526564647265737360d01b606082015260800190565b6020808252601b908201527f53746f726167653a2070696e206e6f74207065726d69747465642e0000000000604082015260600190565b6020808252601a908201527f53746f726167653a20696e76616c6964206369642073697a652e000000000000604082015260600190565b6020808252818101527f4f776e61626c653a2063616c6c6572206973206e6f7420746865206f776e6572604082015260600190565b60208082526023908201527f53746f726167653a206e6f7420656e6f7567682073746f7261676520746f207060408201526234b71760e91b606082015260800190565b6020808252601e908201527f456e756d657261626c654d61703a206e6f6e6578697374656e74206b65790000604082015260600190565b60208082526033908201527f5265736f75726365576974684368616e6e656c3a2043616e2062652063616c6c60408201527232b210313c9031b430b73732b61037b7363c9760691b606082015260800190565b6000602082526109c56020830184611522565b90815260200190565b918252602082015260400190565b9283526020830191909152604082015260600190565b60008219821115611855576118556118c7565b500190565b60008282101561186c5761186c6118c7565b500390565b60028104600182168061188557607f821691505b602082108114156118a657634e487b7160e01b600052602260045260246000fd5b50919050565b60006000198214156118c0576118c06118c7565b5060010190565b634e487b7160e01b600052601160045260246000fd5b634e487b7160e01b600052604160045260246000fd5b6001600160a01b0381168114610af857600080fdfea2646970667358221220a6630403cf1120a7143046688cf230a3e19097cfed881260265450adab65be0e64736f6c63430008000033"
}