{
  "address": "0xeA6B0cB50aC66fBE0A1eC2f558B4B4E9E5ceaa0d",
  "abi": [
    {
      "inputs": [
        {
          "internalType": "address",
          "name": "owner",
          "type": "address"
        }
      ],
      "stateMutability": "nonpayable",
      "type": "constructor"
    },
    {
      "anonymous": false,
      "inputs": [
        {
          "indexed": true,
          "internalType": "address",
          "name": "buyer",
          "type": "address"
        },
        {
          "indexed": false,
          "internalType": "uint256",
          "name": "amount",
          "type": "uint256"
        },
        {
          "indexed": false,
          "internalType": "uint256",
          "name": "deadline",
          "type": "uint256"
        }
      ],
      "name": "MintStorage",
      "type": "event"
    },
    {
      "anonymous": false,
      "inputs": [
        {
          "indexed": true,
          "internalType": "address",
          "name": "previousOwner",
          "type": "address"
        },
        {
          "indexed": true,
          "internalType": "address",
          "name": "newOwner",
          "type": "address"
        }
      ],
      "name": "OwnershipTransferred",
      "type": "event"
    },
    {
      "anonymous": false,
      "inputs": [
        {
          "indexed": true,
          "internalType": "address",
          "name": "buyer",
          "type": "address"
        },
        {
          "indexed": true,
          "internalType": "uint8",
          "name": "operation",
          "type": "uint8"
        },
        {
          "indexed": true,
          "internalType": "bytes32",
          "name": "cidKey",
          "type": "bytes32"
        },
        {
          "indexed": false,
          "internalType": "bytes",
          "name": "cid",
          "type": "bytes"
        },
        {
          "indexed": false,
          "internalType": "uint256",
          "name": "size",
          "type": "uint256"
        }
      ],
      "name": "Pin",
      "type": "event"
    },
    {
      "anonymous": false,
      "inputs": [
        {
          "indexed": true,
          "internalType": "address",
          "name": "childChannel",
          "type": "address"
        }
      ],
      "name": "SetChildChannel",
      "type": "event"
    },
    {
      "anonymous": false,
      "inputs": [
        {
          "indexed": true,
          "internalType": "address",
          "name": "rootChannel",
          "type": "address"
        }
      ],
      "name": "SetRootChannel",
      "type": "event"
    },
    {
      "inputs": [],
      "name": "channel",
      "outputs": [
        {
          "internalType": "contract IChildChannel",
          "name": "",
          "type": "address"
        }
      ],
      "stateMutability": "view",
      "type": "function"
    },
    {
      "inputs": [
        {
          "internalType": "address",
          "name": "",
          "type": "address"
        },
        {
          "internalType": "bytes32",
          "name": "",
          "type": "bytes32"
        }
      ],
      "name": "cids",
      "outputs": [
        {
          "internalType": "bytes",
          "name": "data",
          "type": "bytes"
        },
        {
          "internalType": "uint256",
          "name": "size",
          "type": "uint256"
        }
      ],
      "stateMutability": "view",
      "type": "function"
    },
    {
      "inputs": [
        {
          "internalType": "address",
          "name": "_storageResource",
          "type": "address"
        },
        {
          "internalType": "address",
          "name": "buyer",
          "type": "address"
        },
        {
          "internalType": "uint256",
          "name": "amount",
          "type": "uint256"
        },
        {
          "internalType": "uint256",
          "name": "deadline",
          "type": "uint256"
        }
      ],
      "name": "mintStorage",
      "outputs": [],
      "stateMutability": "nonpayable",
      "type": "function"
    },
    {
      "inputs": [],
      "name": "owner",
      "outputs": [
        {
          "internalType": "address",
          "name": "",
          "type": "address"
        }
      ],
      "stateMutability": "view",
      "type": "function"
    },
    {
      "inputs": [
        {
          "internalType": "address",
          "name": "pinManager",
          "type": "address"
        },
        {
          "internalType": "bool",
          "name": "isPermit",
          "type": "bool"
        }
      ],
      "name": "permitPin",
      "outputs": [],
      "stateMutability": "nonpayable",
      "type": "function"
    },
    {
      "inputs": [
        {
          "internalType": "address",
          "name": "",
          "type": "address"
        }
      ],
      "name": "permittedPinManagers",
      "outputs": [
        {
          "internalType": "bool",
          "name": "",
          "type": "bool"
        }
      ],
      "stateMutability": "view",
      "type": "function"
    },
    {
      "inputs": [
        {
          "internalType": "address",
          "name": "buyer",
          "type": "address"
        },
        {
          "internalType": "bytes",
          "name": "cid",
          "type": "bytes"
        },
        {
          "internalType": "uint256",
          "name": "size",
          "type": "uint256"
        }
      ],
      "name": "pinAdd",
      "outputs": [],
      "stateMutability": "nonpayable",
      "type": "function"
    },
    {
      "inputs": [
        {
          "internalType": "address",
          "name": "buyer",
          "type": "address"
        },
        {
          "internalType": "bytes",
          "name": "cid",
          "type": "bytes"
        },
        {
          "internalType": "uint256",
          "name": "size",
          "type": "uint256"
        }
      ],
      "name": "pinRemove",
      "outputs": [],
      "stateMutability": "nonpayable",
      "type": "function"
    },
    {
      "inputs": [],
      "name": "renounceOwnership",
      "outputs": [],
      "stateMutability": "nonpayable",
      "type": "function"
    },
    {
      "inputs": [],
      "name": "rootStorageSpend",
      "outputs": [
        {
          "internalType": "bytes4",
          "name": "",
          "type": "bytes4"
        }
      ],
      "stateMutability": "view",
      "type": "function"
    },
    {
      "inputs": [
        {
          "internalType": "contract IChildChannel",
          "name": "_channel",
          "type": "address"
        }
      ],
      "name": "setChildChannel",
      "outputs": [],
      "stateMutability": "nonpayable",
      "type": "function"
    },
    {
      "inputs": [
        {
          "internalType": "address",
          "name": "_rootChannel",
          "type": "address"
        }
      ],
      "name": "setRootChannel",
      "outputs": [],
      "stateMutability": "nonpayable",
      "type": "function"
    },
    {
      "inputs": [
        {
          "internalType": "address",
          "name": "buyer",
          "type": "address"
        }
      ],
      "name": "spendStorage",
      "outputs": [],
      "stateMutability": "nonpayable",
      "type": "function"
    },
    {
      "inputs": [
        {
          "internalType": "address",
          "name": "",
          "type": "address"
        }
      ],
      "name": "storageBalances",
      "outputs": [
        {
          "internalType": "uint256",
          "name": "total",
          "type": "uint256"
        },
        {
          "internalType": "uint256",
          "name": "left",
          "type": "uint256"
        },
        {
          "internalType": "uint256",
          "name": "deadline",
          "type": "uint256"
        }
      ],
      "stateMutability": "view",
      "type": "function"
    },
    {
      "inputs": [],
      "name": "storageResource",
      "outputs": [
        {
          "internalType": "address",
          "name": "",
          "type": "address"
        }
      ],
      "stateMutability": "view",
      "type": "function"
    },
    {
      "inputs": [
        {
          "internalType": "address",
          "name": "newOwner",
          "type": "address"
        }
      ],
      "name": "transferOwnership",
      "outputs": [],
      "stateMutability": "nonpayable",
      "type": "function"
    }
  ],
  "transactionHash": "0x5efa23e0ca18b3bfcdecba116ea13b4397a2c9c795ba0a77550ba3ac01b987ef",
  "args": [
    "0xa995AE28b9cFf206C3971D1887cc934FC48e3a0F"
  ],
  "bytecode": "0x60806040526006805463ffffffff191663af7d6ca31790553480156200002457600080fd5b506040516200172838038062001728833981810160405260208110156200004a57600080fd5b5051600062000058620000a3565b600080546001600160a01b0319166001600160a01b03831690811782556040519293509160008051602062001708833981519152908290a3506200009c81620000a7565b50620001c0565b3390565b620000b1620000a3565b6001600160a01b0316620000c4620001b1565b6001600160a01b03161462000120576040805162461bcd60e51b815260206004820181905260248201527f4f776e61626c653a2063616c6c6572206973206e6f7420746865206f776e6572604482015290519081900360640190fd5b6001600160a01b038116620001675760405162461bcd60e51b8152600401808060200182810382526026815260200180620016e26026913960400191505060405180910390fd5b600080546040516001600160a01b03808516939216916000805160206200170883398151915291a3600080546001600160a01b0319166001600160a01b0392909216919091179055565b6000546001600160a01b031690565b61151280620001d06000396000f3fe608060405234801561001057600080fd5b50600436106100ff5760003560e01c80638da5cb5b11610097578063b7e8230411610066578063b7e82304146103c4578063dd5dc73b146103fe578063f2fde38b14610424578063fb01de991461044a576100ff565b80638da5cb5b1461036057806392079dc5146103685780639e30713e1461038e578063a2cbca56146103bc576100ff565b806335dba24f116100d357806335dba24f146101d15780634898bcf81461027c578063715018a6146103345780637bbdb96e1461033c576100ff565b8062aa7b571461010457806306bd04d2146101425780630b9c181f146101865780632c76b3c2146101ab575b600080fd5b6101406004803603608081101561011a57600080fd5b506001600160a01b03813581169160208101359091169060408101359060600135610502565b005b6101686004803603602081101561015857600080fd5b50356001600160a01b031661062f565b60408051938452602084019290925282820152519081900360600190f35b61018e610650565b604080516001600160e01b03199092168252519081900360200190f35b610140600480360360208110156101c157600080fd5b50356001600160a01b0316610659565b6101fd600480360360408110156101e757600080fd5b506001600160a01b038135169060200135610705565b6040518080602001838152602001828103825284818151815260200191508051906020019080838360005b83811015610240578181015183820152602001610228565b50505050905090810190601f16801561026d5780820380516001836020036101000a031916815260200191505b50935050505060405180910390f35b6101406004803603606081101561029257600080fd5b6001600160a01b0382351691908101906040810160208201356401000000008111156102bd57600080fd5b8201836020820111156102cf57600080fd5b803590602001918460018302840111640100000000831117156102f157600080fd5b91908080601f01602080910402602001604051908101604052809392919081815260200183838082843760009201919091525092955050913592506107b3915050565b610140610a30565b610344610adc565b604080516001600160a01b039092168252519081900360200190f35b610344610aeb565b6101406004803603602081101561037e57600080fd5b50356001600160a01b0316610afa565b610140600480360360408110156103a457600080fd5b506001600160a01b0381351690602001351515610bf9565b610344610c86565b6103ea600480360360208110156103da57600080fd5b50356001600160a01b0316610c95565b604080519115158252519081900360200190f35b6101406004803603602081101561041457600080fd5b50356001600160a01b0316610caa565b6101406004803603602081101561043a57600080fd5b50356001600160a01b0316610e85565b6101406004803603606081101561046057600080fd5b6001600160a01b03823516919081019060408101602082013564010000000081111561048b57600080fd5b82018360208201111561049d57600080fd5b803590602001918460018302840111640100000000831117156104bf57600080fd5b91908080601f0160208091040260200160405190810160405280939291908181526020018383808284376000920191909152509295505091359250610f87915050565b6001546001600160a01b0316331461054b5760405162461bcd60e51b81526004018080602001828103825260338152602001806114aa6033913960400191505060405180910390fd5b6002546001600160a01b031661057757600280546001600160a01b0319166001600160a01b0386161790555b6001600160a01b03831660009081526004602052604090205461059a90836111dd565b6001600160a01b0384166000908152600460205260409020908155600101546105c390836111dd565b6001600160a01b038416600081815260046020908152604091829020600181019490945560029093018490558051858152928301849052805191927fd682007e3c7b8d3011178c2d262fde683d36194368cef75883ae8962194bce8b929081900390910190a250505050565b60046020526000908152604090208054600182015460029092015490919083565b60065460e01b81565b61066161123e565b6001600160a01b0316610672610aeb565b6001600160a01b0316146106bb576040805162461bcd60e51b81526020600482018190526024820152600080516020611467833981519152604482015290519081900360640190fd5b600180546001600160a01b0319166001600160a01b0383169081179091556040517fe54b19c181b769fe92eecce1051e5d0dde17a8b319992db9dbf3d6aab0fa247690600090a250565b600560209081526000928352604080842082529183529181902080548251601f6002600019610100600186161502019093169290920491820185900485028101850190935280835290928391908301828280156107a35780601f10610778576101008083540402835291602001916107a3565b820191906000526020600020905b81548152906001019060200180831161078657829003601f168201915b5050505050908060010154905082565b818051602e1461080a576040805162461bcd60e51b815260206004820152601b60248201527f53746f726167653a20696e76616c696420636964206c656e6774680000000000604482015290519081900360640190fd5b3360009081526003602052604090205460ff1661086e576040805162461bcd60e51b815260206004820152601b60248201527f53746f726167653a2070696e206e6f74207065726d69747465642e0000000000604482015290519081900360640190fd5b6001600160a01b0384166000908152600460205260409020600101548211156108c85760405162461bcd60e51b81526004018080602001828103825260238152602001806114876023913960400191505060405180910390fd5b82516020808501919091206040805180820182528681528084018690526001600160a01b0388166000908152600585528281208482528552919091208151805193949293919261091d92849290910190611366565b506020918201516001918201556001600160a01b038716600090815260049092526040909120015461094f9084611242565b60046000876001600160a01b03166001600160a01b0316815260200190815260200160002060010181905550806000866001600160a01b03167f9fe62b32d7b5558e0f55106987ea0da9870abe66e7b3a14fdc3d482bc2f01fbe87876040518080602001838152602001828103825284818151815260200191508051906020019080838360005b838110156109ee5781810151838201526020016109d6565b50505050905090810190601f168015610a1b5780820380516001836020036101000a031916815260200191505b50935050505060405180910390a45050505050565b610a3861123e565b6001600160a01b0316610a49610aeb565b6001600160a01b031614610a92576040805162461bcd60e51b81526020600482018190526024820152600080516020611467833981519152604482015290519081900360640190fd5b600080546040516001600160a01b03909116907f8be0079c531659141344cd1fd0a4f28419497f9722a3daafe3b4186f6b6457e0908390a3600080546001600160a01b0319169055565b6001546001600160a01b031681565b6000546001600160a01b031690565b610b0261123e565b6001600160a01b0316610b13610aeb565b6001600160a01b031614610b5c576040805162461bcd60e51b81526020600482018190526024820152600080516020611467833981519152604482015290519081900360640190fd5b600154604080516392079dc560e01b81526001600160a01b038481166004830152915191909216916392079dc591602480830192600092919082900301818387803b158015610baa57600080fd5b505af1158015610bbe573d6000803e3d6000fd5b50506040516001600160a01b03841692507f100f8c3e1ccb621715219a08019952cd61ec92c46113d94f52f39df38db7daf29150600090a250565b610c0161123e565b6001600160a01b0316610c12610aeb565b6001600160a01b031614610c5b576040805162461bcd60e51b81526020600482018190526024820152600080516020611467833981519152604482015290519081900360640190fd5b6001600160a01b03919091166000908152600360205260409020805460ff1916911515919091179055565b6002546001600160a01b031681565b60036020526000908152604090205460ff1681565b610cb261123e565b6001600160a01b0316610cc3610aeb565b6001600160a01b031614610d0c576040805162461bcd60e51b81526020600482018190526024820152600080516020611467833981519152604482015290519081900360640190fd5b6002546001600160a01b0316610d69576040805162461bcd60e51b815260206004820152601760248201527f73746f72616765206e6f7420696e697469616c697a6564000000000000000000604482015290519081900360640190fd5b6001600160a01b038116600090815260046020526040812060018101549054610d9191611242565b600654604080516001600160a01b038681166024830152604480830186905283518084039091018152606490920183526020808301805160e09690961b6001600160e01b0319166001600160e01b03909616959095178552600254845192169082018181528285019485528351606084015283519697509295610e80959194879493909260809091019180838360005b83811015610e39578181015183820152602001610e21565b50505050905090810190601f168015610e665780820380516001836020036101000a031916815260200191505b50935050505060405160208183030381529060405261129f565b505050565b610e8d61123e565b6001600160a01b0316610e9e610aeb565b6001600160a01b031614610ee7576040805162461bcd60e51b81526020600482018190526024820152600080516020611467833981519152604482015290519081900360640190fd5b6001600160a01b038116610f2c5760405162461bcd60e51b81526004018080602001828103825260268152602001806114416026913960400191505060405180910390fd5b600080546040516001600160a01b03808516939216917f8be0079c531659141344cd1fd0a4f28419497f9722a3daafe3b4186f6b6457e091a3600080546001600160a01b0319166001600160a01b0392909216919091179055565b818051602e14610fde576040805162461bcd60e51b815260206004820152601b60248201527f53746f726167653a20696e76616c696420636964206c656e6774680000000000604482015290519081900360640190fd5b3360009081526003602052604090205460ff16611042576040805162461bcd60e51b815260206004820152601b60248201527f53746f726167653a2070696e206e6f74207065726d69747465642e0000000000604482015290519081900360640190fd5b6001600160a01b03841660009081526004602052604081206001015461106890846111dd565b6001600160a01b0386166000908152600460205260409020549091508111156110d8576040805162461bcd60e51b815260206004820152601a60248201527f53746f726167653a20696e76616c6964206369642073697a652e000000000000604482015290519081900360640190fd5b83516020808601919091206001600160a01b038716600090815260048352604080822060010185905560058452808220838352909352918220909161111d82826113e4565b60018201600090555050806001876001600160a01b03167f9fe62b32d7b5558e0f55106987ea0da9870abe66e7b3a14fdc3d482bc2f01fbe88886040518080602001838152602001828103825284818151815260200191508051906020019080838360005b8381101561119a578181015183820152602001611182565b50505050905090810190601f1680156111c75780820380516001836020036101000a031916815260200191505b50935050505060405180910390a4505050505050565b600082820183811015611237576040805162461bcd60e51b815260206004820152601b60248201527f536166654d6174683a206164646974696f6e206f766572666c6f770000000000604482015290519081900360640190fd5b9392505050565b3390565b600082821115611299576040805162461bcd60e51b815260206004820152601e60248201527f536166654d6174683a207375627472616374696f6e206f766572666c6f770000604482015290519081900360640190fd5b50900390565b600154604051634d089f7160e11b81526020600482018181528451602484015284516001600160a01b0390941693639a113ee293869383926044909201919085019080838360005b838110156112ff5781810151838201526020016112e7565b50505050905090810190601f16801561132c5780820380516001836020036101000a031916815260200191505b5092505050600060405180830381600087803b15801561134b57600080fd5b505af115801561135f573d6000803e3d6000fd5b5050505050565b828054600181600116156101000203166002900490600052602060002090601f016020900481019282601f106113a757805160ff19168380011785556113d4565b828001600101855582156113d4579182015b828111156113d45782518255916020019190600101906113b9565b506113e092915061142b565b5090565b50805460018160011615610100020316600290046000825580601f1061140a5750611428565b601f016020900490600052602060002090810190611428919061142b565b50565b5b808211156113e0576000815560010161142c56fe4f776e61626c653a206e6577206f776e657220697320746865207a65726f20616464726573734f776e61626c653a2063616c6c6572206973206e6f7420746865206f776e657253746f726167653a206e6f7420656e6f7567682073746f7261676520746f2070696e2e5265736f75726365576974684368616e6e656c3a2043616e2062652063616c6c6564206279206368616e6e656c206f6e6c792ea26469706673582212204d6ba437db89f4ddb9632c76a0ec77194a1faf9985a1701efe5029f2691d727064736f6c634300070300334f776e61626c653a206e6577206f776e657220697320746865207a65726f20616464726573738be0079c531659141344cd1fd0a4f28419497f9722a3daafe3b4186f6b6457e0"
}