{
  "address": "0xB2B682B99c717A35777980ca97175EdCCf450C12",
  "abi": [
    {
      "inputs": [
        {
          "internalType": "address",
          "name": "owner",
          "type": "address"
        }
      ],
      "stateMutability": "nonpayable",
      "type": "constructor"
    },
    {
      "anonymous": false,
      "inputs": [
        {
          "indexed": true,
          "internalType": "address",
          "name": "buyer",
          "type": "address"
        },
        {
          "indexed": false,
          "internalType": "uint256",
          "name": "amount",
          "type": "uint256"
        },
        {
          "indexed": false,
          "internalType": "uint256",
          "name": "deadline",
          "type": "uint256"
        }
      ],
      "name": "MintStorage",
      "type": "event"
    },
    {
      "anonymous": false,
      "inputs": [
        {
          "indexed": true,
          "internalType": "address",
          "name": "previousOwner",
          "type": "address"
        },
        {
          "indexed": true,
          "internalType": "address",
          "name": "newOwner",
          "type": "address"
        }
      ],
      "name": "OwnershipTransferred",
      "type": "event"
    },
    {
      "anonymous": false,
      "inputs": [
        {
          "indexed": true,
          "internalType": "address",
          "name": "buyer",
          "type": "address"
        },
        {
          "indexed": true,
          "internalType": "uint8",
          "name": "operation",
          "type": "uint8"
        },
        {
          "indexed": true,
          "internalType": "bytes32",
          "name": "key",
          "type": "bytes32"
        },
        {
          "indexed": false,
          "internalType": "bytes",
          "name": "cid",
          "type": "bytes"
        },
        {
          "indexed": false,
          "internalType": "uint256",
          "name": "size",
          "type": "uint256"
        }
      ],
      "name": "Pin",
      "type": "event"
    },
    {
      "anonymous": false,
      "inputs": [
        {
          "indexed": true,
          "internalType": "address",
          "name": "childChannel",
          "type": "address"
        }
      ],
      "name": "SetChildChannel",
      "type": "event"
    },
    {
      "anonymous": false,
      "inputs": [
        {
          "indexed": true,
          "internalType": "address",
          "name": "rootChannel",
          "type": "address"
        }
      ],
      "name": "SetRootChannel",
      "type": "event"
    },
    {
      "inputs": [],
      "name": "channel",
      "outputs": [
        {
          "internalType": "contract IChildChannel",
          "name": "",
          "type": "address"
        }
      ],
      "stateMutability": "view",
      "type": "function"
    },
    {
      "inputs": [
        {
          "internalType": "address",
          "name": "buyer",
          "type": "address"
        },
        {
          "internalType": "uint256",
          "name": "index",
          "type": "uint256"
        }
      ],
      "name": "cidAt",
      "outputs": [
        {
          "components": [
            {
              "internalType": "uint256",
              "name": "size",
              "type": "uint256"
            },
            {
              "internalType": "bytes",
              "name": "data",
              "type": "bytes"
            }
          ],
          "internalType": "struct EnumerableCID.CID",
          "name": "cid",
          "type": "tuple"
        }
      ],
      "stateMutability": "view",
      "type": "function"
    },
    {
      "inputs": [
        {
          "internalType": "address",
          "name": "buyer",
          "type": "address"
        }
      ],
      "name": "cidLength",
      "outputs": [
        {
          "internalType": "uint256",
          "name": "",
          "type": "uint256"
        }
      ],
      "stateMutability": "view",
      "type": "function"
    },
    {
      "inputs": [
        {
          "internalType": "address",
          "name": "buyer",
          "type": "address"
        },
        {
          "internalType": "bytes32",
          "name": "key",
          "type": "bytes32"
        }
      ],
      "name": "getCID",
      "outputs": [
        {
          "components": [
            {
              "internalType": "uint256",
              "name": "size",
              "type": "uint256"
            },
            {
              "internalType": "bytes",
              "name": "data",
              "type": "bytes"
            }
          ],
          "internalType": "struct EnumerableCID.CID",
          "name": "",
          "type": "tuple"
        }
      ],
      "stateMutability": "view",
      "type": "function"
    },
    {
      "inputs": [
        {
          "internalType": "address",
          "name": "_storageResource",
          "type": "address"
        },
        {
          "internalType": "address",
          "name": "buyer",
          "type": "address"
        },
        {
          "internalType": "uint256",
          "name": "amount",
          "type": "uint256"
        },
        {
          "internalType": "uint256",
          "name": "deadline",
          "type": "uint256"
        }
      ],
      "name": "mintStorage",
      "outputs": [],
      "stateMutability": "nonpayable",
      "type": "function"
    },
    {
      "inputs": [],
      "name": "owner",
      "outputs": [
        {
          "internalType": "address",
          "name": "",
          "type": "address"
        }
      ],
      "stateMutability": "view",
      "type": "function"
    },
    {
      "inputs": [
        {
          "internalType": "address",
          "name": "pinManager",
          "type": "address"
        },
        {
          "internalType": "bool",
          "name": "isPermit",
          "type": "bool"
        }
      ],
      "name": "permitPin",
      "outputs": [],
      "stateMutability": "nonpayable",
      "type": "function"
    },
    {
      "inputs": [
        {
          "internalType": "address",
          "name": "",
          "type": "address"
        }
      ],
      "name": "permittedPinManagers",
      "outputs": [
        {
          "internalType": "bool",
          "name": "",
          "type": "bool"
        }
      ],
      "stateMutability": "view",
      "type": "function"
    },
    {
      "inputs": [
        {
          "internalType": "address",
          "name": "buyer",
          "type": "address"
        },
        {
          "internalType": "bytes",
          "name": "cid",
          "type": "bytes"
        },
        {
          "internalType": "uint256",
          "name": "size",
          "type": "uint256"
        }
      ],
      "name": "pinAdd",
      "outputs": [],
      "stateMutability": "nonpayable",
      "type": "function"
    },
    {
      "inputs": [
        {
          "internalType": "address",
          "name": "buyer",
          "type": "address"
        },
        {
          "internalType": "bytes",
          "name": "cid",
          "type": "bytes"
        }
      ],
      "name": "pinRemove",
      "outputs": [],
      "stateMutability": "nonpayable",
      "type": "function"
    },
    {
      "inputs": [
        {
          "internalType": "address",
          "name": "buyer",
          "type": "address"
        },
        {
          "internalType": "uint256",
          "name": "offset",
          "type": "uint256"
        },
        {
          "internalType": "uint256",
          "name": "limit",
          "type": "uint256"
        }
      ],
      "name": "rangeOf",
      "outputs": [
        {
          "components": [
            {
              "internalType": "uint256",
              "name": "size",
              "type": "uint256"
            },
            {
              "internalType": "bytes",
              "name": "data",
              "type": "bytes"
            }
          ],
          "internalType": "struct EnumerableCID.CID[]",
          "name": "cids",
          "type": "tuple[]"
        }
      ],
      "stateMutability": "view",
      "type": "function"
    },
    {
      "inputs": [],
      "name": "renounceOwnership",
      "outputs": [],
      "stateMutability": "nonpayable",
      "type": "function"
    },
    {
      "inputs": [],
      "name": "rootStorageSpend",
      "outputs": [
        {
          "internalType": "bytes4",
          "name": "",
          "type": "bytes4"
        }
      ],
      "stateMutability": "view",
      "type": "function"
    },
    {
      "inputs": [
        {
          "internalType": "contract IChildChannel",
          "name": "_channel",
          "type": "address"
        }
      ],
      "name": "setChildChannel",
      "outputs": [],
      "stateMutability": "nonpayable",
      "type": "function"
    },
    {
      "inputs": [
        {
          "internalType": "address",
          "name": "_rootChannel",
          "type": "address"
        }
      ],
      "name": "setRootChannel",
      "outputs": [],
      "stateMutability": "nonpayable",
      "type": "function"
    },
    {
      "inputs": [
        {
          "internalType": "address",
          "name": "buyer",
          "type": "address"
        }
      ],
      "name": "spendStorage",
      "outputs": [],
      "stateMutability": "nonpayable",
      "type": "function"
    },
    {
      "inputs": [
        {
          "internalType": "address",
          "name": "",
          "type": "address"
        }
      ],
      "name": "storageBalances",
      "outputs": [
        {
          "internalType": "uint256",
          "name": "total",
          "type": "uint256"
        },
        {
          "internalType": "uint256",
          "name": "left",
          "type": "uint256"
        },
        {
          "internalType": "uint256",
          "name": "deadline",
          "type": "uint256"
        }
      ],
      "stateMutability": "view",
      "type": "function"
    },
    {
      "inputs": [],
      "name": "storageResource",
      "outputs": [
        {
          "internalType": "address",
          "name": "",
          "type": "address"
        }
      ],
      "stateMutability": "view",
      "type": "function"
    },
    {
      "inputs": [
        {
          "internalType": "address",
          "name": "newOwner",
          "type": "address"
        }
      ],
      "name": "transferOwnership",
      "outputs": [],
      "stateMutability": "nonpayable",
      "type": "function"
    }
  ],
  "transactionHash": "0xb7974c3029e77ee81d3f831113db3f17b3626f3f49dbd5010612581354726ffe",
  "args": [
    "0xa995AE28b9cFf206C3971D1887cc934FC48e3a0F"
  ],
  "bytecode": "0x60806040526004805463ffffffff191663af7d6ca31790553480156200002457600080fd5b5060405162001ca738038062001ca7833981016040819052620000479162000156565b6200005b620000556200006d565b62000071565b6200006681620000c1565b5062000201565b3390565b600080546001600160a01b038381166001600160a01b0319831681178455604051919092169283917f8be0079c531659141344cd1fd0a4f28419497f9722a3daafe3b4186f6b6457e09190a35050565b620000cb6200006d565b6001600160a01b0316620000de62000147565b6001600160a01b031614620001105760405162461bcd60e51b81526004016200010790620001cc565b60405180910390fd5b6001600160a01b038116620001395760405162461bcd60e51b8152600401620001079062000186565b620001448162000071565b50565b6000546001600160a01b031690565b60006020828403121562000168578081fd5b81516001600160a01b03811681146200017f578182fd5b9392505050565b60208082526026908201527f4f776e61626c653a206e6577206f776e657220697320746865207a65726f206160408201526564647265737360d01b606082015260800190565b6020808252818101527f4f776e61626c653a2063616c6c6572206973206e6f7420746865206f776e6572604082015260600190565b611a9680620002116000396000f3fe608060405234801561001057600080fd5b50600436106101205760003560e01c806382a8f157116100ad578063a2cbca5611610071578063a2cbca561461025e578063afc8407914610266578063b7e8230414610279578063dd5dc73b14610299578063f2fde38b146102ac57610120565b806382a8f157146101fd5780638da5cb5b1461021d5780638eb4f0901461022557806392079dc5146102385780639e30713e1461024b57610120565b80632d976124116100f45780632d9761241461018d5780634898bcf8146101ad578063715018a6146101c05780637a8caa02146101c85780637bbdb96e146101e857610120565b8062aa7b571461012557806306bd04d21461013a5780630b9c181f146101655780632c76b3c21461017a575b600080fd5b61013861013336600461140a565b6102bf565b005b61014d6101483660046113ee565b6103d3565b60405161015c93929190611984565b60405180910390f35b61016d6103f4565b60405161015c91906116b5565b6101386101883660046113ee565b6103fd565b6101a061019b36600461148b565b610486565b60405161015c919061195a565b6101386101bb366004611504565b6104b9565b610138610732565b6101db6101d63660046113ee565b61077d565b60405161015c919061196d565b6101f061079e565b60405161015c91906115f9565b61021061020b36600461155b565b6107ad565b60405161015c919061164a565b6101f0610893565b6101a061023336600461148b565b6108a2565b6101386102463660046113ee565b6108d4565b61013861025936600461144f565b6109ac565b6101f0610a16565b6101386102743660046114b6565b610a25565b61028c6102873660046113ee565b610bae565b60405161015c91906116aa565b6101386102a73660046113ee565b610bc3565b6101386102ba3660046113ee565b610ce5565b6001546001600160a01b031633146102f25760405162461bcd60e51b81526004016102e990611907565b60405180910390fd5b6002546001600160a01b031661031e57600280546001600160a01b0319166001600160a01b0386161790555b6001600160a01b0383166000908152600360205260409020546103419083610d56565b6001600160a01b03841660009081526003602052604090209081556001015461036a9083610d56565b6001600160a01b038416600081815260036020526040908190206001810193909355600290920183905590517fd682007e3c7b8d3011178c2d262fde683d36194368cef75883ae8962194bce8b906103c59085908590611976565b60405180910390a250505050565b60036020526000908152604090208054600182015460029092015490919083565b60045460e01b81565b610405610d62565b6001600160a01b0316610416610893565b6001600160a01b03161461043c5760405162461bcd60e51b81526004016102e9906117ea565b600180546001600160a01b0319166001600160a01b0383169081179091556040517fe54b19c181b769fe92eecce1051e5d0dde17a8b319992db9dbf3d6aab0fa247690600090a250565b61048e611282565b6001600160a01b03831660009081526005602052604090206104b09083610d66565b90505b92915050565b818051602e146104db5760405162461bcd60e51b81526004016102e99061181f565b81600081116104fc5760405162461bcd60e51b81526004016102e9906117b3565b3360009081526006602052604090205460ff1661052b5760405162461bcd60e51b81526004016102e990611745565b6001600160a01b0385166000908152600360205260409020600101548311156105665760405162461bcd60e51b81526004016102e99061188d565b83516020808601919091206001600160a01b0387166000908152600590925260409091206105949082610e64565b156106745760006105a58783610486565b5190508481116000816105c1576105bc8784610e70565b6105cb565b6105cb8388610e70565b9050816105fd576001600160a01b0389166000908152600360205260409020600101546105f89082610e70565b610623565b6001600160a01b0389166000908152600360205260409020600101546106239082610d56565b6001600160a01b038a16600081815260036020908152604080832060010194909455835180850185528b81528082018d9052928252600590529190912061066b918690610e7c565b505050506106e4565b6001600160a01b03861660009081526003602052604090206001015461069a9085610e70565b6001600160a01b038716600081815260036020908152604080832060010194909455835180850185528881528082018a905292825260059052919091206106e2918390610e7c565b505b806000876001600160a01b03167f9fe62b32d7b5558e0f55106987ea0da9870abe66e7b3a14fdc3d482bc2f01fbe88886040516107229291906116dd565b60405180910390a4505050505050565b61073a610d62565b6001600160a01b031661074b610893565b6001600160a01b0316146107715760405162461bcd60e51b81526004016102e9906117ea565b61077b6000610eba565b565b6001600160a01b03811660009081526005602052604081206104b390610f0a565b6001546001600160a01b031681565b60606103e88211156107d15760405162461bcd60e51b81526004016102e990611856565b8167ffffffffffffffff8111156107f857634e487b7160e01b600052604160045260246000fd5b60405190808252806020026020018201604052801561083157816020015b61081e611282565b8152602001906001900390816108165790505b50905060005b8281101561088b5761084d856102338684610d56565b82828151811061086d57634e487b7160e01b600052603260045260246000fd5b6020026020010181905250808061088390611a04565b915050610837565b509392505050565b6000546001600160a01b031690565b6108aa611282565b6001600160a01b03831660009081526005602052604090206108cc9083610f15565b949350505050565b6108dc610d62565b6001600160a01b03166108ed610893565b6001600160a01b0316146109135760405162461bcd60e51b81526004016102e9906117ea565b6001546040516392079dc560e01b81526001600160a01b03909116906392079dc5906109439084906004016115f9565b600060405180830381600087803b15801561095d57600080fd5b505af1158015610971573d6000803e3d6000fd5b50506040516001600160a01b03841692507f100f8c3e1ccb621715219a08019952cd61ec92c46113d94f52f39df38db7daf29150600090a250565b6109b4610d62565b6001600160a01b03166109c5610893565b6001600160a01b0316146109eb5760405162461bcd60e51b81526004016102e9906117ea565b6001600160a01b03919091166000908152600660205260409020805460ff1916911515919091179055565b6002546001600160a01b031681565b808051602e14610a475760405162461bcd60e51b81526004016102e99061181f565b3360009081526006602052604090205460ff16610a765760405162461bcd60e51b81526004016102e990611745565b81516020808401919091206001600160a01b038516600090815260059092526040909120610aa49082610e64565b15610ba8576001600160a01b0384166000908152600560205260408120610acb9083610d66565b516001600160a01b03861660009081526003602052604081206001015491925090610af69083610d56565b6001600160a01b0387166000908152600360205260409020549091508111610b1e5780610b38565b6001600160a01b0386166000908152600360205260409020545b6001600160a01b0387166000908152600360209081526040808320600101939093556005905220610b699084610ff9565b50826001876001600160a01b03167f9fe62b32d7b5558e0f55106987ea0da9870abe66e7b3a14fdc3d482bc2f01fbe88866040516107229291906116dd565b50505050565b60066020526000908152604090205460ff1681565b610bcb610d62565b6001600160a01b0316610bdc610893565b6001600160a01b031614610c025760405162461bcd60e51b81526004016102e9906117ea565b6002546001600160a01b0316610c2a5760405162461bcd60e51b81526004016102e99061177c565b6001600160a01b038116600090815260036020526040812060018101549054610c5291610e70565b60045460405191925060009160e09190911b90610c759085908590602401611631565b60408051601f19818403018152918152602080830180516001600160e01b03166001600160e01b0319909516949094179093526002549051919350610ce092610ccc926001600160a01b039092169185910161160d565b604051602081830303815290604052611027565b505050565b610ced610d62565b6001600160a01b0316610cfe610893565b6001600160a01b031614610d245760405162461bcd60e51b81526004016102e9906117ea565b6001600160a01b038116610d4a5760405162461bcd60e51b81526004016102e9906116ff565b610d5381610eba565b50565b60006104b0828461199a565b3390565b610d6e611282565b600083600201600084815260200190815260200160002060405180604001604052908160008201548152602001600182018054610daa906119c9565b80601f0160208091040260200160405190810160405280929190818152602001828054610dd6906119c9565b8015610e235780601f10610df857610100808354040283529160200191610e23565b820191906000526020600020905b815481529060010190602001808311610e0657829003601f168201915b50505050508152505090508060200151516000141580610e485750610e488484610e64565b6104b05760405162461bcd60e51b81526004016102e9906118d0565b60006104b0838361108c565b60006104b082846119b2565b600082815260028401602090815260408220835181558184015180518593610eab92600185019291019061129c565b506108cc915085905084611098565b600080546001600160a01b038381166001600160a01b0319831681178455604051919092169283917f8be0079c531659141344cd1fd0a4f28419497f9722a3daafe3b4186f6b6457e09190a35050565b60006104b3826110a4565b6000610f1f611282565b6000610f2b85856110af565b9050808560020160008381526020019081526020016000208060405180604001604052908160008201548152602001600182018054610f69906119c9565b80601f0160208091040260200160405190810160405280929190818152602001828054610f95906119c9565b8015610fe25780601f10610fb757610100808354040283529160200191610fe2565b820191906000526020600020905b815481529060010190602001808311610fc557829003601f168201915b505050505081525050905092509250509250929050565b600081815260028301602052604081208181558161101a6001830182611320565b506104b0905083836110bb565b600154604051634d089f7160e11b81526001600160a01b0390911690639a113ee2906110579084906004016116ca565b600060405180830381600087803b15801561107157600080fd5b505af1158015611085573d6000803e3d6000fd5b5050505050565b60006104b083836110c7565b60006104b083836110df565b60006104b382611129565b60006104b0838361112d565b60006104b08383611165565b60009081526001919091016020526040902054151590565b60006110eb83836110c7565b611121575081546001818101845560008481526020808220909301849055845484825282860190935260409020919091556104b3565b5060006104b3565b5490565b600082600001828154811061115257634e487b7160e01b600052603260045260246000fd5b9060005260206000200154905092915050565b600081815260018301602052604081205480156112785760006111896001836119b2565b855490915060009061119d906001906119b2565b905081811461121e5760008660000182815481106111cb57634e487b7160e01b600052603260045260246000fd5b90600052602060002001549050808760000184815481106111fc57634e487b7160e01b600052603260045260246000fd5b6000918252602080832090910192909255918252600188019052604090208390555b855486908061123d57634e487b7160e01b600052603160045260246000fd5b6001900381819060005260206000200160009055905585600101600086815260200190815260200160002060009055600193505050506104b3565b60009150506104b3565b604051806040016040528060008152602001606081525090565b8280546112a8906119c9565b90600052602060002090601f0160209004810192826112ca5760008555611310565b82601f106112e357805160ff1916838001178555611310565b82800160010185558215611310579182015b828111156113105782518255916020019190600101906112f5565b5061131c929150611358565b5090565b50805461132c906119c9565b6000825580601f1061133e5750610d53565b601f016020900490600052602060002090810190610d5391905b5b8082111561131c5760008155600101611359565b600082601f83011261137d578081fd5b813567ffffffffffffffff8082111561139857611398611a35565b604051601f8301601f1916810160200182811182821017156113bc576113bc611a35565b6040528281528483016020018610156113d3578384fd5b82602086016020830137918201602001929092529392505050565b6000602082840312156113ff578081fd5b81356104b081611a4b565b6000806000806080858703121561141f578283fd5b843561142a81611a4b565b9350602085013561143a81611a4b565b93969395505050506040820135916060013590565b60008060408385031215611461578182fd5b823561146c81611a4b565b915060208301358015158114611480578182fd5b809150509250929050565b6000806040838503121561149d578182fd5b82356114a881611a4b565b946020939093013593505050565b600080604083850312156114c8578182fd5b82356114d381611a4b565b9150602083013567ffffffffffffffff8111156114ee578182fd5b6114fa8582860161136d565b9150509250929050565b600080600060608486031215611518578283fd5b833561152381611a4b565b9250602084013567ffffffffffffffff81111561153e578283fd5b61154a8682870161136d565b925050604084013590509250925092565b60008060006060848603121561156f578283fd5b833561157a81611a4b565b95602085013595506040909401359392505050565b60008151808452815b818110156115b457602081850181015186830182015201611598565b818111156115c55782602083870101525b50601f01601f19169290920160200192915050565b6000815183526020820151604060208501526108cc604085018261158f565b6001600160a01b0391909116815260200190565b6001600160a01b03831681526040602082018190526000906108cc9083018461158f565b6001600160a01b03929092168252602082015260400190565b6000602080830181845280855180835260408601915060408482028701019250838701855b8281101561169d57603f1988860301845261168b8583516115da565b9450928501929085019060010161166f565b5092979650505050505050565b901515815260200190565b6001600160e01b031991909116815260200190565b6000602082526104b0602083018461158f565b6000604082526116f0604083018561158f565b90508260208301529392505050565b60208082526026908201527f4f776e61626c653a206e6577206f776e657220697320746865207a65726f206160408201526564647265737360d01b606082015260800190565b6020808252601b908201527f53746f726167653a2070696e206e6f74207065726d69747465642e0000000000604082015260600190565b60208082526017908201527f73746f72616765206e6f7420696e697469616c697a6564000000000000000000604082015260600190565b6020808252601a908201527f53746f726167653a20696e76616c6964206369642073697a652e000000000000604082015260600190565b6020808252818101527f4f776e61626c653a2063616c6c6572206973206e6f7420746865206f776e6572604082015260600190565b6020808252601c908201527f53746f726167653a20696e76616c696420636964206c656e6774682e00000000604082015260600190565b6020808252601a908201527f53746f726167653a206c696d6974206578636565642031303030000000000000604082015260600190565b60208082526023908201527f53746f726167653a206e6f7420656e6f7567682073746f7261676520746f207060408201526234b71760e91b606082015260800190565b6020808252601e908201527f456e756d657261626c654d61703a206e6f6e6578697374656e74206b65790000604082015260600190565b60208082526033908201527f5265736f75726365576974684368616e6e656c3a2043616e2062652063616c6c60408201527232b210313c9031b430b73732b61037b7363c9760691b606082015260800190565b6000602082526104b060208301846115da565b90815260200190565b918252602082015260400190565b9283526020830191909152604082015260600190565b600082198211156119ad576119ad611a1f565b500190565b6000828210156119c4576119c4611a1f565b500390565b6002810460018216806119dd57607f821691505b602082108114156119fe57634e487b7160e01b600052602260045260246000fd5b50919050565b6000600019821415611a1857611a18611a1f565b5060010190565b634e487b7160e01b600052601160045260246000fd5b634e487b7160e01b600052604160045260246000fd5b6001600160a01b0381168114610d5357600080fdfea2646970667358221220c7392cae3136203200fb7f6e0be3601bed7b0ede6e3363044a34e8ca901e1c5a64736f6c63430008000033"
}