{
  "address": "0x9E710D28a8C3a6Ce8740Caaf259dcC760893b72b",
  "abi": [
    {
      "inputs": [
        {
          "internalType": "address",
          "name": "owner",
          "type": "address"
        },
        {
          "internalType": "contract IRootChannel",
          "name": "_channel",
          "type": "address"
        },
        {
          "internalType": "address",
          "name": "_WETH",
          "type": "address"
        },
        {
          "internalType": "uint256",
          "name": "_price",
          "type": "uint256"
        },
        {
          "internalType": "address",
          "name": "_beneficiary",
          "type": "address"
        }
      ],
      "stateMutability": "nonpayable",
      "type": "constructor"
    },
    {
      "anonymous": false,
      "inputs": [
        {
          "indexed": true,
          "internalType": "address",
          "name": "buyer",
          "type": "address"
        },
        {
          "indexed": false,
          "internalType": "uint256",
          "name": "amount",
          "type": "uint256"
        },
        {
          "indexed": false,
          "internalType": "uint256",
          "name": "value",
          "type": "uint256"
        }
      ],
      "name": "Bought",
      "type": "event"
    },
    {
      "anonymous": false,
      "inputs": [
        {
          "indexed": true,
          "internalType": "address",
          "name": "previousOwner",
          "type": "address"
        },
        {
          "indexed": true,
          "internalType": "address",
          "name": "newOwner",
          "type": "address"
        }
      ],
      "name": "OwnershipTransferred",
      "type": "event"
    },
    {
      "anonymous": false,
      "inputs": [
        {
          "indexed": true,
          "internalType": "address",
          "name": "buyer",
          "type": "address"
        },
        {
          "indexed": false,
          "internalType": "uint256",
          "name": "amount",
          "type": "uint256"
        }
      ],
      "name": "Spent",
      "type": "event"
    },
    {
      "inputs": [
        {
          "internalType": "address",
          "name": "",
          "type": "address"
        }
      ],
      "name": "balances",
      "outputs": [
        {
          "internalType": "uint256",
          "name": "",
          "type": "uint256"
        }
      ],
      "stateMutability": "view",
      "type": "function"
    },
    {
      "inputs": [],
      "name": "beneficiary",
      "outputs": [
        {
          "internalType": "address",
          "name": "",
          "type": "address"
        }
      ],
      "stateMutability": "view",
      "type": "function"
    },
    {
      "inputs": [
        {
          "internalType": "address",
          "name": "buyer",
          "type": "address"
        },
        {
          "internalType": "uint256",
          "name": "amount",
          "type": "uint256"
        },
        {
          "internalType": "uint256",
          "name": "value",
          "type": "uint256"
        }
      ],
      "name": "buy",
      "outputs": [],
      "stateMutability": "nonpayable",
      "type": "function"
    },
    {
      "inputs": [],
      "name": "channel",
      "outputs": [
        {
          "internalType": "contract IRootChannel",
          "name": "",
          "type": "address"
        }
      ],
      "stateMutability": "view",
      "type": "function"
    },
    {
      "inputs": [
        {
          "internalType": "uint256",
          "name": "value",
          "type": "uint256"
        }
      ],
      "name": "getAmount",
      "outputs": [
        {
          "internalType": "uint256",
          "name": "",
          "type": "uint256"
        }
      ],
      "stateMutability": "view",
      "type": "function"
    },
    {
      "inputs": [
        {
          "internalType": "uint256",
          "name": "amount",
          "type": "uint256"
        }
      ],
      "name": "getValue",
      "outputs": [
        {
          "internalType": "uint256",
          "name": "",
          "type": "uint256"
        }
      ],
      "stateMutability": "view",
      "type": "function"
    },
    {
      "inputs": [],
      "name": "owner",
      "outputs": [
        {
          "internalType": "address",
          "name": "",
          "type": "address"
        }
      ],
      "stateMutability": "view",
      "type": "function"
    },
    {
      "inputs": [
        {
          "internalType": "address",
          "name": "permitter",
          "type": "address"
        },
        {
          "internalType": "bool",
          "name": "isPermit",
          "type": "bool"
        }
      ],
      "name": "permit",
      "outputs": [],
      "stateMutability": "nonpayable",
      "type": "function"
    },
    {
      "inputs": [
        {
          "internalType": "address",
          "name": "",
          "type": "address"
        }
      ],
      "name": "permits",
      "outputs": [
        {
          "internalType": "bool",
          "name": "",
          "type": "bool"
        }
      ],
      "stateMutability": "view",
      "type": "function"
    },
    {
      "inputs": [],
      "name": "price",
      "outputs": [
        {
          "internalType": "uint256",
          "name": "",
          "type": "uint256"
        }
      ],
      "stateMutability": "view",
      "type": "function"
    },
    {
      "inputs": [],
      "name": "renounceOwnership",
      "outputs": [],
      "stateMutability": "nonpayable",
      "type": "function"
    },
    {
      "inputs": [
        {
          "internalType": "uint256",
          "name": "_price",
          "type": "uint256"
        }
      ],
      "name": "setPrice",
      "outputs": [],
      "stateMutability": "nonpayable",
      "type": "function"
    },
    {
      "inputs": [
        {
          "internalType": "uint256",
          "name": "key",
          "type": "uint256"
        },
        {
          "internalType": "bytes",
          "name": "value",
          "type": "bytes"
        }
      ],
      "name": "setSlot",
      "outputs": [],
      "stateMutability": "nonpayable",
      "type": "function"
    },
    {
      "inputs": [
        {
          "internalType": "uint256",
          "name": "",
          "type": "uint256"
        }
      ],
      "name": "slots",
      "outputs": [
        {
          "internalType": "bytes",
          "name": "",
          "type": "bytes"
        }
      ],
      "stateMutability": "view",
      "type": "function"
    },
    {
      "inputs": [
        {
          "internalType": "address",
          "name": "buyer",
          "type": "address"
        },
        {
          "internalType": "uint256",
          "name": "amount",
          "type": "uint256"
        }
      ],
      "name": "spend",
      "outputs": [],
      "stateMutability": "nonpayable",
      "type": "function"
    },
    {
      "inputs": [
        {
          "internalType": "address",
          "name": "newOwner",
          "type": "address"
        }
      ],
      "name": "transferOwnership",
      "outputs": [],
      "stateMutability": "nonpayable",
      "type": "function"
    },
    {
      "inputs": [
        {
          "internalType": "contract IRootChannel",
          "name": "_channel",
          "type": "address"
        }
      ],
      "name": "transferRootChannel",
      "outputs": [],
      "stateMutability": "nonpayable",
      "type": "function"
    },
    {
      "inputs": [],
      "name": "valuationToken",
      "outputs": [
        {
          "internalType": "address",
          "name": "",
          "type": "address"
        }
      ],
      "stateMutability": "view",
      "type": "function"
    }
  ],
  "transactionHash": "0xe4227cb22476162f14625250582613d349a396b51d9c693ae8f09e8ef4925636",
  "args": [
    "0xa995AE28b9cFf206C3971D1887cc934FC48e3a0F",
    "0xC5ecd33fE985F90102b6Bf7843B1d48a0D68eB86",
    "0xB4FBF271143F4FBf7B91A5ded31805e42b2208d6",
    1,
    "0x1d1B1b329bA09f0124F9B26edAA29c80F0275263"
  ],
  "bytecode": "0x608060405234801561001057600080fd5b5060405161107a38038061107a833981810160405260a081101561003357600080fd5b5080516020820151604083015160608401516080909401519293919290919083600061005d6100f8565b600080546001600160a01b0319166001600160a01b03831690811782556040519293509160008051602061105a833981519152908290a350600280546001600160a01b0319166001600160a01b03929092169190911790556100be856100fc565b600380546001600160a01b039485166001600160a01b031991821617909155600492909255600580549190931691161790555061020d9050565b3390565b6101046100f8565b6001600160a01b03166101156101fe565b6001600160a01b031614610170576040805162461bcd60e51b815260206004820181905260248201527f4f776e61626c653a2063616c6c6572206973206e6f7420746865206f776e6572604482015290519081900360640190fd5b6001600160a01b0381166101b55760405162461bcd60e51b81526004018080602001828103825260268152602001806110346026913960400191505060405180910390fd5b600080546040516001600160a01b038085169392169160008051602061105a83398151915291a3600080546001600160a01b0319166001600160a01b0392909216919091179055565b6000546001600160a01b031690565b610e188061021c6000396000f3fe608060405234801561001057600080fd5b50600436106101155760003560e01c806391b7f5ed116100a2578063af7d6ca311610071578063af7d6ca3146102f5578063b004a46e14610321578063d6fa8abc146103ce578063f186c67f146103f4578063f2fde38b1461042257610115565b806391b7f5ed146102815780639980ec861461029e578063a035b1fe146102bb578063a59ac6dd146102c357610115565b806338af3eed116100e957806338af3eed1461023b578063715018a61461025f57806377e6bfa6146102695780637bbdb96e146102715780638da5cb5b1461027957610115565b80628009a31461011a5780630ff4c9161461015457806327e235e314610183578063387dd9e9146101a9575b600080fd5b6101406004803603602081101561013057600080fd5b50356001600160a01b0316610448565b604080519115158252519081900360200190f35b6101716004803603602081101561016a57600080fd5b503561045d565b60408051918252519081900360200190f35b6101716004803603602081101561019957600080fd5b50356001600160a01b031661047a565b6101c6600480360360208110156101bf57600080fd5b503561048c565b6040805160208082528351818301528351919283929083019185019080838360005b838110156102005781810151838201526020016101e8565b50505050905090810190601f16801561022d5780820380516001836020036101000a031916815260200191505b509250505060405180910390f35b610243610527565b604080516001600160a01b039092168252519081900360200190f35b610267610536565b005b6102436105e2565b6102436105f1565b610243610600565b6102676004803603602081101561029757600080fd5b503561060f565b610171600480360360208110156102b457600080fd5b5035610676565b61017161068d565b610267600480360360608110156102d957600080fd5b506001600160a01b038135169060208101359060400135610693565b6102676004803603604081101561030b57600080fd5b506001600160a01b038135169060200135610763565b6102676004803603604081101561033757600080fd5b8135919081019060408101602082013564010000000081111561035957600080fd5b82018360208201111561036b57600080fd5b8035906020019184600183028401116401000000008311171561038d57600080fd5b91908080601f016020809104026020016040519081016040528093929190818152602001838380828437600092019190915250929550610881945050505050565b610267600480360360208110156103e457600080fd5b50356001600160a01b0316610907565b6102676004803603604081101561040a57600080fd5b506001600160a01b038135169060200135151561098b565b6102676004803603602081101561043857600080fd5b50356001600160a01b0316610a18565b60016020526000908152604090205460ff1681565b600061047460045483610b1a90919063ffffffff16565b92915050565b60066020526000908152604090205481565b60076020908152600091825260409182902080548351601f60026000196101006001861615020190931692909204918201849004840281018401909452808452909183018282801561051f5780601f106104f45761010080835404028352916020019161051f565b820191906000526020600020905b81548152906001019060200180831161050257829003601f168201915b505050505081565b6005546001600160a01b031681565b61053e610b7a565b6001600160a01b031661054f610600565b6001600160a01b031614610598576040805162461bcd60e51b81526020600482018190526024820152600080516020610d77833981519152604482015290519081900360640190fd5b600080546040516001600160a01b03909116907f8be0079c531659141344cd1fd0a4f28419497f9722a3daafe3b4186f6b6457e0908390a3600080546001600160a01b0319169055565b6003546001600160a01b031681565b6002546001600160a01b031681565b6000546001600160a01b031690565b610617610b7a565b6001600160a01b0316610628610600565b6001600160a01b031614610671576040805162461bcd60e51b81526020600482018190526024820152600080516020610d77833981519152604482015290519081900360640190fd5b600455565b600061047460045483610b7e90919063ffffffff16565b60045481565b3360009081526001602052604090205460ff166106e15760405162461bcd60e51b8152600401808060200182810382526024815260200180610dbf6024913960400191505060405180910390fd5b6001600160a01b0383166000908152600660205260409020546107049083610be5565b6001600160a01b038416600081815260066020908152604091829020939093558051858152928301849052805191927fa9a40dec7a304e5915d11358b968c1e8d365992abf20f82285d1df1b30c8e24c929081900390910190a2505050565b3360009081526001602052604090205460ff166107b15760405162461bcd60e51b8152600401808060200182810382526024815260200180610dbf6024913960400191505060405180910390fd5b6001600160a01b0382166000908152600660205260409020548111156108085760405162461bcd60e51b8152600401808060200182810382526028815260200180610d976028913960400191505060405180910390fd5b6001600160a01b03821660009081526006602052604090205461082b9082610c3f565b6001600160a01b038316600081815260066020908152604091829020939093558051848152905191927fd3eec71143c45f28685b24760ea218d476917aa0ac0392a55e5304cef40bd2b692918290030190a25050565b610889610b7a565b6001600160a01b031661089a610600565b6001600160a01b0316146108e3576040805162461bcd60e51b81526020600482018190526024820152600080516020610d77833981519152604482015290519081900360640190fd5b6000828152600760209081526040909120825161090292840190610c9c565b505050565b61090f610b7a565b6001600160a01b0316610920610600565b6001600160a01b031614610969576040805162461bcd60e51b81526020600482018190526024820152600080516020610d77833981519152604482015290519081900360640190fd5b600280546001600160a01b0319166001600160a01b0392909216919091179055565b610993610b7a565b6001600160a01b03166109a4610600565b6001600160a01b0316146109ed576040805162461bcd60e51b81526020600482018190526024820152600080516020610d77833981519152604482015290519081900360640190fd5b6001600160a01b03919091166000908152600160205260409020805460ff1916911515919091179055565b610a20610b7a565b6001600160a01b0316610a31610600565b6001600160a01b031614610a7a576040805162461bcd60e51b81526020600482018190526024820152600080516020610d77833981519152604482015290519081900360640190fd5b6001600160a01b038116610abf5760405162461bcd60e51b8152600401808060200182810382526026815260200180610d306026913960400191505060405180910390fd5b600080546040516001600160a01b03808516939216917f8be0079c531659141344cd1fd0a4f28419497f9722a3daafe3b4186f6b6457e091a3600080546001600160a01b0319166001600160a01b0392909216919091179055565b600082610b2957506000610474565b82820282848281610b3657fe5b0414610b735760405162461bcd60e51b8152600401808060200182810382526021815260200180610d566021913960400191505060405180910390fd5b9392505050565b3390565b6000808211610bd4576040805162461bcd60e51b815260206004820152601a60248201527f536166654d6174683a206469766973696f6e206279207a65726f000000000000604482015290519081900360640190fd5b818381610bdd57fe5b049392505050565b600082820183811015610b73576040805162461bcd60e51b815260206004820152601b60248201527f536166654d6174683a206164646974696f6e206f766572666c6f770000000000604482015290519081900360640190fd5b600082821115610c96576040805162461bcd60e51b815260206004820152601e60248201527f536166654d6174683a207375627472616374696f6e206f766572666c6f770000604482015290519081900360640190fd5b50900390565b828054600181600116156101000203166002900490600052602060002090601f016020900481019282601f10610cdd57805160ff1916838001178555610d0a565b82800160010185558215610d0a579182015b82811115610d0a578251825591602001919060010190610cef565b50610d16929150610d1a565b5090565b5b80821115610d165760008155600101610d1b56fe4f776e61626c653a206e6577206f776e657220697320746865207a65726f2061646472657373536166654d6174683a206d756c7469706c69636174696f6e206f766572666c6f774f776e61626c653a2063616c6c6572206973206e6f7420746865206f776e65725265736f757263653a206e6f7420656e6f756768207265736f757263657320746f207370656e642e5065726d697461626c653a2063616c6c6572206973206e6f74207065726d69747465642ea26469706673582212201c6c6691adeecf2b598dbe15b65946ed4808daeed5522a2a7178dc9533ac00b464736f6c634300070300334f776e61626c653a206e6577206f776e657220697320746865207a65726f20616464726573738be0079c531659141344cd1fd0a4f28419497f9722a3daafe3b4186f6b6457e0"
}