{
  "address": "0x33Ee818CA1f92230B748d294e80271c4b86450f7",
  "abi": [
    {
      "inputs": [
        {
          "internalType": "address",
          "name": "owner",
          "type": "address"
        },
        {
          "internalType": "contract IERC20",
          "name": "_valuationToken",
          "type": "address"
        },
        {
          "internalType": "uint256",
          "name": "_price",
          "type": "uint256"
        },
        {
          "internalType": "address",
          "name": "_beneficiary",
          "type": "address"
        }
      ],
      "stateMutability": "nonpayable",
      "type": "constructor"
    },
    {
      "anonymous": false,
      "inputs": [
        {
          "indexed": true,
          "internalType": "address",
          "name": "buyer",
          "type": "address"
        },
        {
          "indexed": false,
          "internalType": "uint256",
          "name": "amount",
          "type": "uint256"
        },
        {
          "indexed": false,
          "internalType": "uint256",
          "name": "value",
          "type": "uint256"
        }
      ],
      "name": "Bought",
      "type": "event"
    },
    {
      "anonymous": false,
      "inputs": [
        {
          "indexed": true,
          "internalType": "address",
          "name": "previousOwner",
          "type": "address"
        },
        {
          "indexed": true,
          "internalType": "address",
          "name": "newOwner",
          "type": "address"
        }
      ],
      "name": "OwnershipTransferred",
      "type": "event"
    },
    {
      "anonymous": false,
      "inputs": [
        {
          "indexed": true,
          "internalType": "address",
          "name": "buyer",
          "type": "address"
        },
        {
          "indexed": false,
          "internalType": "uint256",
          "name": "amount",
          "type": "uint256"
        }
      ],
      "name": "Spent",
      "type": "event"
    },
    {
      "inputs": [
        {
          "internalType": "address",
          "name": "",
          "type": "address"
        }
      ],
      "name": "balances",
      "outputs": [
        {
          "internalType": "uint256",
          "name": "",
          "type": "uint256"
        }
      ],
      "stateMutability": "view",
      "type": "function"
    },
    {
      "inputs": [],
      "name": "beneficiary",
      "outputs": [
        {
          "internalType": "address",
          "name": "",
          "type": "address"
        }
      ],
      "stateMutability": "view",
      "type": "function"
    },
    {
      "inputs": [
        {
          "internalType": "address",
          "name": "buyer",
          "type": "address"
        },
        {
          "internalType": "uint256",
          "name": "amount",
          "type": "uint256"
        },
        {
          "internalType": "uint256",
          "name": "value",
          "type": "uint256"
        }
      ],
      "name": "buy",
      "outputs": [],
      "stateMutability": "nonpayable",
      "type": "function"
    },
    {
      "inputs": [
        {
          "internalType": "uint256",
          "name": "value",
          "type": "uint256"
        }
      ],
      "name": "getAmount",
      "outputs": [
        {
          "internalType": "uint256",
          "name": "",
          "type": "uint256"
        }
      ],
      "stateMutability": "view",
      "type": "function"
    },
    {
      "inputs": [
        {
          "internalType": "uint256",
          "name": "amount",
          "type": "uint256"
        }
      ],
      "name": "getValue",
      "outputs": [
        {
          "internalType": "uint256",
          "name": "",
          "type": "uint256"
        }
      ],
      "stateMutability": "view",
      "type": "function"
    },
    {
      "inputs": [],
      "name": "owner",
      "outputs": [
        {
          "internalType": "address",
          "name": "",
          "type": "address"
        }
      ],
      "stateMutability": "view",
      "type": "function"
    },
    {
      "inputs": [
        {
          "internalType": "address",
          "name": "permitter",
          "type": "address"
        },
        {
          "internalType": "bool",
          "name": "isPermit",
          "type": "bool"
        }
      ],
      "name": "permit",
      "outputs": [],
      "stateMutability": "nonpayable",
      "type": "function"
    },
    {
      "inputs": [
        {
          "internalType": "address",
          "name": "",
          "type": "address"
        }
      ],
      "name": "permits",
      "outputs": [
        {
          "internalType": "bool",
          "name": "",
          "type": "bool"
        }
      ],
      "stateMutability": "view",
      "type": "function"
    },
    {
      "inputs": [],
      "name": "price",
      "outputs": [
        {
          "internalType": "uint256",
          "name": "",
          "type": "uint256"
        }
      ],
      "stateMutability": "view",
      "type": "function"
    },
    {
      "inputs": [],
      "name": "renounceOwnership",
      "outputs": [],
      "stateMutability": "nonpayable",
      "type": "function"
    },
    {
      "inputs": [
        {
          "internalType": "uint256",
          "name": "_price",
          "type": "uint256"
        }
      ],
      "name": "setPrice",
      "outputs": [],
      "stateMutability": "nonpayable",
      "type": "function"
    },
    {
      "inputs": [
        {
          "internalType": "uint256",
          "name": "key",
          "type": "uint256"
        },
        {
          "internalType": "bytes",
          "name": "value",
          "type": "bytes"
        }
      ],
      "name": "setSlot",
      "outputs": [],
      "stateMutability": "nonpayable",
      "type": "function"
    },
    {
      "inputs": [
        {
          "internalType": "uint256",
          "name": "",
          "type": "uint256"
        }
      ],
      "name": "slots",
      "outputs": [
        {
          "internalType": "bytes",
          "name": "",
          "type": "bytes"
        }
      ],
      "stateMutability": "view",
      "type": "function"
    },
    {
      "inputs": [
        {
          "internalType": "address",
          "name": "buyer",
          "type": "address"
        },
        {
          "internalType": "uint256",
          "name": "amount",
          "type": "uint256"
        }
      ],
      "name": "spend",
      "outputs": [],
      "stateMutability": "nonpayable",
      "type": "function"
    },
    {
      "inputs": [
        {
          "internalType": "address",
          "name": "newOwner",
          "type": "address"
        }
      ],
      "name": "transferOwnership",
      "outputs": [],
      "stateMutability": "nonpayable",
      "type": "function"
    },
    {
      "inputs": [],
      "name": "valuationToken",
      "outputs": [
        {
          "internalType": "address",
          "name": "",
          "type": "address"
        }
      ],
      "stateMutability": "view",
      "type": "function"
    }
  ],
  "transactionHash": "0x7f345e5d77486ce083acc07830ef65aa6344e392a11c7ce5b23ee12babe2ce95",
  "args": [
    "0xa995AE28b9cFf206C3971D1887cc934FC48e3a0F",
    "0xE437E9a5fd870aF20a779A5fBA83bc53cC7C837A",
    "1000000000000000000",
    "0x4023C5cE4f334971E031B6536E610500b3FcaDb5"
  ],
  "bytecode": "0x608060405234801561001057600080fd5b50604051610f7e380380610f7e8339818101604052608081101561003357600080fd5b508051602082015160408301516060909301519192909160006100546100d3565b600080546001600160a01b0319166001600160a01b038316908117825560405192935091600080516020610f5e833981519152908290a350600280546001600160a01b038086166001600160a01b031992831617909255600384905560048054928416929091169190911790556100ca846100d7565b505050506101e8565b3390565b6100df6100d3565b6001600160a01b03166100f06101d9565b6001600160a01b03161461014b576040805162461bcd60e51b815260206004820181905260248201527f4f776e61626c653a2063616c6c6572206973206e6f7420746865206f776e6572604482015290519081900360640190fd5b6001600160a01b0381166101905760405162461bcd60e51b8152600401808060200182810382526026815260200180610f386026913960400191505060405180910390fd5b600080546040516001600160a01b0380851693921691600080516020610f5e83398151915291a3600080546001600160a01b0319166001600160a01b0392909216919091179055565b6000546001600160a01b031690565b610d41806101f76000396000f3fe608060405234801561001057600080fd5b50600436106100ff5760003560e01c806391b7f5ed11610097578063af7d6ca311610066578063af7d6ca3146102d7578063b004a46e14610303578063f186c67f146103b0578063f2fde38b146103de576100ff565b806391b7f5ed146102635780639980ec8614610280578063a035b1fe1461029d578063a59ac6dd146102a5576100ff565b806338af3eed116100d357806338af3eed14610225578063715018a61461024957806377e6bfa6146102535780638da5cb5b1461025b576100ff565b80628009a3146101045780630ff4c9161461013e57806327e235e31461016d578063387dd9e914610193575b600080fd5b61012a6004803603602081101561011a57600080fd5b50356001600160a01b0316610404565b604080519115158252519081900360200190f35b61015b6004803603602081101561015457600080fd5b5035610419565b60408051918252519081900360200190f35b61015b6004803603602081101561018357600080fd5b50356001600160a01b0316610436565b6101b0600480360360208110156101a957600080fd5b5035610448565b6040805160208082528351818301528351919283929083019185019080838360005b838110156101ea5781810151838201526020016101d2565b50505050905090810190601f1680156102175780820380516001836020036101000a031916815260200191505b509250505060405180910390f35b61022d6104e3565b604080516001600160a01b039092168252519081900360200190f35b6102516104f2565b005b61022d61059e565b61022d6105ad565b6102516004803603602081101561027957600080fd5b50356105bc565b61015b6004803603602081101561029657600080fd5b5035610623565b61015b61063a565b610251600480360360608110156102bb57600080fd5b506001600160a01b038135169060208101359060400135610640565b610251600480360360408110156102ed57600080fd5b506001600160a01b038135169060200135610710565b6102516004803603604081101561031957600080fd5b8135919081019060408101602082013564010000000081111561033b57600080fd5b82018360208201111561034d57600080fd5b8035906020019184600183028401116401000000008311171561036f57600080fd5b91908080601f01602080910402602001604051908101604052809392919081815260200183838082843760009201919091525092955061082e945050505050565b610251600480360360408110156103c657600080fd5b506001600160a01b03813516906020013515156108b4565b610251600480360360208110156103f457600080fd5b50356001600160a01b0316610941565b60016020526000908152604090205460ff1681565b600061043060035483610a4390919063ffffffff16565b92915050565b60056020526000908152604090205481565b60066020908152600091825260409182902080548351601f6002600019610100600186161502019093169290920491820184900484028101840190945280845290918301828280156104db5780601f106104b0576101008083540402835291602001916104db565b820191906000526020600020905b8154815290600101906020018083116104be57829003601f168201915b505050505081565b6004546001600160a01b031681565b6104fa610aa3565b6001600160a01b031661050b6105ad565b6001600160a01b031614610554576040805162461bcd60e51b81526020600482018190526024820152600080516020610ca0833981519152604482015290519081900360640190fd5b600080546040516001600160a01b03909116907f8be0079c531659141344cd1fd0a4f28419497f9722a3daafe3b4186f6b6457e0908390a3600080546001600160a01b0319169055565b6002546001600160a01b031681565b6000546001600160a01b031690565b6105c4610aa3565b6001600160a01b03166105d56105ad565b6001600160a01b03161461061e576040805162461bcd60e51b81526020600482018190526024820152600080516020610ca0833981519152604482015290519081900360640190fd5b600355565b600061043060035483610aa790919063ffffffff16565b60035481565b3360009081526001602052604090205460ff1661068e5760405162461bcd60e51b8152600401808060200182810382526024815260200180610ce86024913960400191505060405180910390fd5b6001600160a01b0383166000908152600560205260409020546106b19083610b0e565b6001600160a01b038416600081815260056020908152604091829020939093558051858152928301849052805191927fa9a40dec7a304e5915d11358b968c1e8d365992abf20f82285d1df1b30c8e24c929081900390910190a2505050565b3360009081526001602052604090205460ff1661075e5760405162461bcd60e51b8152600401808060200182810382526024815260200180610ce86024913960400191505060405180910390fd5b6001600160a01b0382166000908152600560205260409020548111156107b55760405162461bcd60e51b8152600401808060200182810382526028815260200180610cc06028913960400191505060405180910390fd5b6001600160a01b0382166000908152600560205260409020546107d89082610b68565b6001600160a01b038316600081815260056020908152604091829020939093558051848152905191927fd3eec71143c45f28685b24760ea218d476917aa0ac0392a55e5304cef40bd2b692918290030190a25050565b610836610aa3565b6001600160a01b03166108476105ad565b6001600160a01b031614610890576040805162461bcd60e51b81526020600482018190526024820152600080516020610ca0833981519152604482015290519081900360640190fd5b600082815260066020908152604090912082516108af92840190610bc5565b505050565b6108bc610aa3565b6001600160a01b03166108cd6105ad565b6001600160a01b031614610916576040805162461bcd60e51b81526020600482018190526024820152600080516020610ca0833981519152604482015290519081900360640190fd5b6001600160a01b03919091166000908152600160205260409020805460ff1916911515919091179055565b610949610aa3565b6001600160a01b031661095a6105ad565b6001600160a01b0316146109a3576040805162461bcd60e51b81526020600482018190526024820152600080516020610ca0833981519152604482015290519081900360640190fd5b6001600160a01b0381166109e85760405162461bcd60e51b8152600401808060200182810382526026815260200180610c596026913960400191505060405180910390fd5b600080546040516001600160a01b03808516939216917f8be0079c531659141344cd1fd0a4f28419497f9722a3daafe3b4186f6b6457e091a3600080546001600160a01b0319166001600160a01b0392909216919091179055565b600082610a5257506000610430565b82820282848281610a5f57fe5b0414610a9c5760405162461bcd60e51b8152600401808060200182810382526021815260200180610c7f6021913960400191505060405180910390fd5b9392505050565b3390565b6000808211610afd576040805162461bcd60e51b815260206004820152601a60248201527f536166654d6174683a206469766973696f6e206279207a65726f000000000000604482015290519081900360640190fd5b818381610b0657fe5b049392505050565b600082820183811015610a9c576040805162461bcd60e51b815260206004820152601b60248201527f536166654d6174683a206164646974696f6e206f766572666c6f770000000000604482015290519081900360640190fd5b600082821115610bbf576040805162461bcd60e51b815260206004820152601e60248201527f536166654d6174683a207375627472616374696f6e206f766572666c6f770000604482015290519081900360640190fd5b50900390565b828054600181600116156101000203166002900490600052602060002090601f016020900481019282601f10610c0657805160ff1916838001178555610c33565b82800160010185558215610c33579182015b82811115610c33578251825591602001919060010190610c18565b50610c3f929150610c43565b5090565b5b80821115610c3f5760008155600101610c4456fe4f776e61626c653a206e6577206f776e657220697320746865207a65726f2061646472657373536166654d6174683a206d756c7469706c69636174696f6e206f766572666c6f774f776e61626c653a2063616c6c6572206973206e6f7420746865206f776e65725265736f757263653a206e6f7420656e6f756768207265736f757263657320746f207370656e642e5065726d697461626c653a2063616c6c6572206973206e6f74207065726d69747465642ea2646970667358221220034be60a55dd0cf392962f69691ad20f20bc916633447df40e0a7741b2b6293564736f6c634300070300334f776e61626c653a206e6577206f776e657220697320746865207a65726f20616464726573738be0079c531659141344cd1fd0a4f28419497f9722a3daafe3b4186f6b6457e0"
}