{
  "address": "0xFb8E9813f1f0b4DD7BB4149dBe77264DD26721Ad",
  "abi": [
    {
      "inputs": [
        {
          "internalType": "address",
          "name": "owner",
          "type": "address"
        }
      ],
      "stateMutability": "nonpayable",
      "type": "constructor"
    },
    {
      "anonymous": false,
      "inputs": [
        {
          "indexed": true,
          "internalType": "address",
          "name": "previousOwner",
          "type": "address"
        },
        {
          "indexed": true,
          "internalType": "address",
          "name": "newOwner",
          "type": "address"
        }
      ],
      "name": "OwnershipTransferred",
      "type": "event"
    },
    {
      "anonymous": false,
      "inputs": [
        {
          "indexed": true,
          "internalType": "address",
          "name": "buyer",
          "type": "address"
        },
        {
          "indexed": true,
          "internalType": "uint8",
          "name": "operation",
          "type": "uint8"
        },
        {
          "indexed": true,
          "internalType": "bytes32",
          "name": "cidKey",
          "type": "bytes32"
        },
        {
          "indexed": false,
          "internalType": "bytes",
          "name": "cid",
          "type": "bytes"
        }
      ],
      "name": "Pin",
      "type": "event"
    },
    {
      "inputs": [
        {
          "internalType": "address",
          "name": "",
          "type": "address"
        },
        {
          "internalType": "bytes32",
          "name": "",
          "type": "bytes32"
        }
      ],
      "name": "cids",
      "outputs": [
        {
          "internalType": "bytes",
          "name": "buffer",
          "type": "bytes"
        },
        {
          "internalType": "uint256",
          "name": "deadline",
          "type": "uint256"
        }
      ],
      "stateMutability": "view",
      "type": "function"
    },
    {
      "inputs": [],
      "name": "owner",
      "outputs": [
        {
          "internalType": "address",
          "name": "",
          "type": "address"
        }
      ],
      "stateMutability": "view",
      "type": "function"
    },
    {
      "inputs": [
        {
          "internalType": "address",
          "name": "buyer",
          "type": "address"
        },
        {
          "internalType": "bytes",
          "name": "cid",
          "type": "bytes"
        },
        {
          "internalType": "uint256",
          "name": "deadline",
          "type": "uint256"
        }
      ],
      "name": "pinAdd",
      "outputs": [],
      "stateMutability": "nonpayable",
      "type": "function"
    },
    {
      "inputs": [
        {
          "internalType": "address",
          "name": "buyer",
          "type": "address"
        },
        {
          "internalType": "bytes",
          "name": "cid",
          "type": "bytes"
        }
      ],
      "name": "pinRemove",
      "outputs": [],
      "stateMutability": "nonpayable",
      "type": "function"
    },
    {
      "inputs": [],
      "name": "renounceOwnership",
      "outputs": [],
      "stateMutability": "nonpayable",
      "type": "function"
    },
    {
      "inputs": [
        {
          "internalType": "address",
          "name": "newOwner",
          "type": "address"
        }
      ],
      "name": "transferOwnership",
      "outputs": [],
      "stateMutability": "nonpayable",
      "type": "function"
    }
  ],
  "transactionHash": "0x95bb9c751239722a4147172bfcf979f850b78f410359472c753d12104a2856fd",
  "args": [
    "0xa995AE28b9cFf206C3971D1887cc934FC48e3a0F"
  ],
  "bytecode": "0x608060405234801561001057600080fd5b50604051610bcf380380610bcf8339818101604052602081101561003357600080fd5b5051600061003f610086565b600080546001600160a01b0319166001600160a01b038316908117825560405192935091600080516020610baf833981519152908290a3506100808161008a565b5061019b565b3390565b610092610086565b6001600160a01b03166100a361018c565b6001600160a01b0316146100fe576040805162461bcd60e51b815260206004820181905260248201527f4f776e61626c653a2063616c6c6572206973206e6f7420746865206f776e6572604482015290519081900360640190fd5b6001600160a01b0381166101435760405162461bcd60e51b8152600401808060200182810382526026815260200180610b896026913960400191505060405180910390fd5b600080546040516001600160a01b0380851693921691600080516020610baf83398151915291a3600080546001600160a01b0319166001600160a01b0392909216919091179055565b6000546001600160a01b031690565b6109df806101aa6000396000f3fe608060405234801561001057600080fd5b50600436106100625760003560e01c806335dba24f146100675780634898bcf814610112578063715018a6146101cc5780638da5cb5b146101d4578063afc84079146101f8578063f2fde38b146102ae575b600080fd5b6100936004803603604081101561007d57600080fd5b506001600160a01b0381351690602001356102d4565b6040518080602001838152602001828103825284818151815260200191508051906020019080838360005b838110156100d65781810151838201526020016100be565b50505050905090810190601f1680156101035780820380516001836020036101000a031916815260200191505b50935050505060405180910390f35b6101ca6004803603606081101561012857600080fd5b6001600160a01b03823516919081019060408101602082013564010000000081111561015357600080fd5b82018360208201111561016557600080fd5b8035906020019184600183028401116401000000008311171561018757600080fd5b91908080601f0160208091040260200160405190810160405280939291908181526020018383808284376000920191909152509295505091359250610380915050565b005b6101ca610535565b6101dc6105e1565b604080516001600160a01b039092168252519081900360200190f35b6101ca6004803603604081101561020e57600080fd5b6001600160a01b03823516919081019060408101602082013564010000000081111561023957600080fd5b82018360208201111561024b57600080fd5b8035906020019184600183028401116401000000008311171561026d57600080fd5b91908080601f0160208091040260200160405190810160405280939291908181526020018383808284376000920191909152509295506105f0945050505050565b6101ca600480360360208110156102c457600080fd5b50356001600160a01b0316610783565b600160208181526000938452604080852082529284529282902080548351600293821615610100026000190190911692909204601f810185900485028301850190935282825292909183918301828280156103705780601f1061034557610100808354040283529160200191610370565b820191906000526020600020905b81548152906001019060200180831161035357829003601f168201915b5050505050908060010154905082565b610388610885565b6001600160a01b03166103996105e1565b6001600160a01b0316146103e2576040805162461bcd60e51b8152602060048201819052602482015260008051602061098a833981519152604482015290519081900360640190fd5b8151602e14610426576040805162461bcd60e51b815260206004820152600b60248201526a125b9d985b1a590818da5960aa1b604482015290519081900360640190fd5b81516020808401919091206040805180820182528581528084018590526001600160a01b0387166000908152600185528281208482528552919091208151805193949293919261047b92849290910190610889565b5060208201518160010155905050806000856001600160a01b03167f85649fa2ddf87841dd4bffe3b3ee6e887813bffa29e025b3986cb3185cb6794d866040518080602001828103825283818151815260200191508051906020019080838360005b838110156104f55781810151838201526020016104dd565b50505050905090810190601f1680156105225780820380516001836020036101000a031916815260200191505b509250505060405180910390a450505050565b61053d610885565b6001600160a01b031661054e6105e1565b6001600160a01b031614610597576040805162461bcd60e51b8152602060048201819052602482015260008051602061098a833981519152604482015290519081900360640190fd5b600080546040516001600160a01b03909116907f8be0079c531659141344cd1fd0a4f28419497f9722a3daafe3b4186f6b6457e0908390a3600080546001600160a01b0319169055565b6000546001600160a01b031690565b6105f8610885565b6001600160a01b03166106096105e1565b6001600160a01b031614610652576040805162461bcd60e51b8152602060048201819052602482015260008051602061098a833981519152604482015290519081900360640190fd5b8051602e14610696576040805162461bcd60e51b815260206004820152600b60248201526a125b9d985b1a590818da5960aa1b604482015290519081900360640190fd5b80516020808301919091206001600160a01b038416600090815260018352604080822083835290935291822090916106ce8282610907565b60018201600090555050806001846001600160a01b03167f85649fa2ddf87841dd4bffe3b3ee6e887813bffa29e025b3986cb3185cb6794d856040518080602001828103825283818151815260200191508051906020019080838360005b8381101561074457818101518382015260200161072c565b50505050905090810190601f1680156107715780820380516001836020036101000a031916815260200191505b509250505060405180910390a4505050565b61078b610885565b6001600160a01b031661079c6105e1565b6001600160a01b0316146107e5576040805162461bcd60e51b8152602060048201819052602482015260008051602061098a833981519152604482015290519081900360640190fd5b6001600160a01b03811661082a5760405162461bcd60e51b81526004018080602001828103825260268152602001806109646026913960400191505060405180910390fd5b600080546040516001600160a01b03808516939216917f8be0079c531659141344cd1fd0a4f28419497f9722a3daafe3b4186f6b6457e091a3600080546001600160a01b0319166001600160a01b0392909216919091179055565b3390565b828054600181600116156101000203166002900490600052602060002090601f016020900481019282601f106108ca57805160ff19168380011785556108f7565b828001600101855582156108f7579182015b828111156108f75782518255916020019190600101906108dc565b5061090392915061094e565b5090565b50805460018160011615610100020316600290046000825580601f1061092d575061094b565b601f01602090049060005260206000209081019061094b919061094e565b50565b5b80821115610903576000815560010161094f56fe4f776e61626c653a206e6577206f776e657220697320746865207a65726f20616464726573734f776e61626c653a2063616c6c6572206973206e6f7420746865206f776e6572a2646970667358221220442917b51bcf38bfe592c890b5271eee61382b32462b7b3f0aa62f9d2a173c9064736f6c634300070300334f776e61626c653a206e6577206f776e657220697320746865207a65726f20616464726573738be0079c531659141344cd1fd0a4f28419497f9722a3daafe3b4186f6b6457e0"
}