{
  "address": "0x0Dc9a4a72c16F764C5b0Dfd1F4a73D1243544A34",
  "abi": [
    {
      "inputs": [
        {
          "internalType": "address",
          "name": "owner",
          "type": "address"
        },
        {
          "internalType": "contract IRootChannel",
          "name": "_channel",
          "type": "address"
        },
        {
          "internalType": "address",
          "name": "_valuationToken",
          "type": "address"
        },
        {
          "internalType": "address",
          "name": "_buyBackReceiver",
          "type": "address"
        },
        {
          "internalType": "contract IUniswapV2Router02",
          "name": "_routerV2",
          "type": "address"
        },
        {
          "internalType": "uint256",
          "name": "_price",
          "type": "uint256"
        }
      ],
      "stateMutability": "nonpayable",
      "type": "constructor"
    },
    {
      "anonymous": false,
      "inputs": [
        {
          "indexed": true,
          "internalType": "address",
          "name": "buyer",
          "type": "address"
        },
        {
          "indexed": false,
          "internalType": "uint256",
          "name": "amount",
          "type": "uint256"
        },
        {
          "indexed": false,
          "internalType": "uint256",
          "name": "value",
          "type": "uint256"
        }
      ],
      "name": "Bought",
      "type": "event"
    },
    {
      "anonymous": false,
      "inputs": [
        {
          "indexed": true,
          "internalType": "address",
          "name": "previousOwner",
          "type": "address"
        },
        {
          "indexed": true,
          "internalType": "address",
          "name": "newOwner",
          "type": "address"
        }
      ],
      "name": "OwnershipTransferred",
      "type": "event"
    },
    {
      "anonymous": false,
      "inputs": [
        {
          "indexed": true,
          "internalType": "address",
          "name": "buyer",
          "type": "address"
        },
        {
          "indexed": false,
          "internalType": "uint256",
          "name": "amount",
          "type": "uint256"
        }
      ],
      "name": "Spent",
      "type": "event"
    },
    {
      "inputs": [
        {
          "internalType": "address",
          "name": "",
          "type": "address"
        }
      ],
      "name": "balances",
      "outputs": [
        {
          "internalType": "uint256",
          "name": "total",
          "type": "uint256"
        },
        {
          "internalType": "uint256",
          "name": "left",
          "type": "uint256"
        }
      ],
      "stateMutability": "view",
      "type": "function"
    },
    {
      "inputs": [],
      "name": "beneficiary",
      "outputs": [
        {
          "internalType": "address",
          "name": "",
          "type": "address"
        }
      ],
      "stateMutability": "view",
      "type": "function"
    },
    {
      "inputs": [
        {
          "internalType": "address",
          "name": "buyer",
          "type": "address"
        },
        {
          "internalType": "uint256",
          "name": "amount",
          "type": "uint256"
        },
        {
          "internalType": "uint256",
          "name": "value",
          "type": "uint256"
        },
        {
          "internalType": "bytes",
          "name": "data",
          "type": "bytes"
        }
      ],
      "name": "buy",
      "outputs": [],
      "stateMutability": "nonpayable",
      "type": "function"
    },
    {
      "inputs": [
        {
          "internalType": "address[]",
          "name": "path",
          "type": "address[]"
        },
        {
          "internalType": "uint256",
          "name": "value",
          "type": "uint256"
        },
        {
          "internalType": "uint256",
          "name": "amountOutMin",
          "type": "uint256"
        },
        {
          "internalType": "uint256",
          "name": "deadline",
          "type": "uint256"
        }
      ],
      "name": "buyBack",
      "outputs": [],
      "stateMutability": "nonpayable",
      "type": "function"
    },
    {
      "inputs": [],
      "name": "buyBackReceiver",
      "outputs": [
        {
          "internalType": "address",
          "name": "",
          "type": "address"
        }
      ],
      "stateMutability": "view",
      "type": "function"
    },
    {
      "inputs": [],
      "name": "channel",
      "outputs": [
        {
          "internalType": "contract IRootChannel",
          "name": "",
          "type": "address"
        }
      ],
      "stateMutability": "view",
      "type": "function"
    },
    {
      "inputs": [
        {
          "internalType": "uint256",
          "name": "value",
          "type": "uint256"
        }
      ],
      "name": "getAmount",
      "outputs": [
        {
          "internalType": "uint256",
          "name": "",
          "type": "uint256"
        }
      ],
      "stateMutability": "view",
      "type": "function"
    },
    {
      "inputs": [
        {
          "internalType": "uint256",
          "name": "amount",
          "type": "uint256"
        }
      ],
      "name": "getValue",
      "outputs": [
        {
          "internalType": "uint256",
          "name": "",
          "type": "uint256"
        }
      ],
      "stateMutability": "view",
      "type": "function"
    },
    {
      "inputs": [],
      "name": "mintStorage",
      "outputs": [
        {
          "internalType": "bytes4",
          "name": "",
          "type": "bytes4"
        }
      ],
      "stateMutability": "view",
      "type": "function"
    },
    {
      "inputs": [],
      "name": "owner",
      "outputs": [
        {
          "internalType": "address",
          "name": "",
          "type": "address"
        }
      ],
      "stateMutability": "view",
      "type": "function"
    },
    {
      "inputs": [
        {
          "internalType": "address",
          "name": "permitter",
          "type": "address"
        },
        {
          "internalType": "bool",
          "name": "isPermit",
          "type": "bool"
        }
      ],
      "name": "permit",
      "outputs": [],
      "stateMutability": "nonpayable",
      "type": "function"
    },
    {
      "inputs": [
        {
          "internalType": "address",
          "name": "",
          "type": "address"
        }
      ],
      "name": "permits",
      "outputs": [
        {
          "internalType": "bool",
          "name": "",
          "type": "bool"
        }
      ],
      "stateMutability": "view",
      "type": "function"
    },
    {
      "inputs": [],
      "name": "price",
      "outputs": [
        {
          "internalType": "uint256",
          "name": "",
          "type": "uint256"
        }
      ],
      "stateMutability": "view",
      "type": "function"
    },
    {
      "inputs": [],
      "name": "renounceOwnership",
      "outputs": [],
      "stateMutability": "nonpayable",
      "type": "function"
    },
    {
      "inputs": [],
      "name": "routerV2",
      "outputs": [
        {
          "internalType": "contract IUniswapV2Router02",
          "name": "",
          "type": "address"
        }
      ],
      "stateMutability": "view",
      "type": "function"
    },
    {
      "inputs": [
        {
          "internalType": "uint256",
          "name": "_price",
          "type": "uint256"
        }
      ],
      "name": "setPrice",
      "outputs": [],
      "stateMutability": "nonpayable",
      "type": "function"
    },
    {
      "inputs": [
        {
          "internalType": "uint256",
          "name": "key",
          "type": "uint256"
        },
        {
          "internalType": "bytes",
          "name": "value",
          "type": "bytes"
        }
      ],
      "name": "setSlot",
      "outputs": [],
      "stateMutability": "nonpayable",
      "type": "function"
    },
    {
      "inputs": [
        {
          "internalType": "uint256",
          "name": "",
          "type": "uint256"
        }
      ],
      "name": "slots",
      "outputs": [
        {
          "internalType": "bytes",
          "name": "",
          "type": "bytes"
        }
      ],
      "stateMutability": "view",
      "type": "function"
    },
    {
      "inputs": [
        {
          "internalType": "address",
          "name": "buyer",
          "type": "address"
        },
        {
          "internalType": "uint256",
          "name": "amount",
          "type": "uint256"
        }
      ],
      "name": "spend",
      "outputs": [],
      "stateMutability": "nonpayable",
      "type": "function"
    },
    {
      "inputs": [
        {
          "internalType": "address",
          "name": "newReceiver",
          "type": "address"
        }
      ],
      "name": "transferBuyBackReceiver",
      "outputs": [],
      "stateMutability": "nonpayable",
      "type": "function"
    },
    {
      "inputs": [
        {
          "internalType": "address",
          "name": "newOwner",
          "type": "address"
        }
      ],
      "name": "transferOwnership",
      "outputs": [],
      "stateMutability": "nonpayable",
      "type": "function"
    },
    {
      "inputs": [
        {
          "internalType": "contract IRootChannel",
          "name": "_channel",
          "type": "address"
        }
      ],
      "name": "transferRootChannel",
      "outputs": [],
      "stateMutability": "nonpayable",
      "type": "function"
    },
    {
      "inputs": [],
      "name": "valuationToken",
      "outputs": [
        {
          "internalType": "address",
          "name": "",
          "type": "address"
        }
      ],
      "stateMutability": "view",
      "type": "function"
    }
  ],
  "transactionHash": "0xea944672e175ddbfdffed634c2e55fcd8177bafab48752c7940f4951d5d88d76",
  "args": [
    "0xa995AE28b9cFf206C3971D1887cc934FC48e3a0F",
    "0xD5df54A8dcB2D1A9926a01a4c6Eec0D194632F49",
    "0xE437E9a5fd870aF20a779A5fBA83bc53cC7C837A",
    "0x4023C5cE4f334971E031B6536E610500b3FcaDb5",
    "0x7a250d5630B4cF539739dF2C5dAcb4c659F2488D",
    "1000000000000000000"
  ],
  "bytecode": "0x6080604052600a805463ffffffff191662aa7b571790553480156200002357600080fd5b5060405162001a9438038062001a948339810160408190526200004691620001cb565b846200005b62000055620000e2565b620000e6565b600280546001600160a01b0319166001600160a01b0392909216919091179055620000868662000136565b600380546001600160a01b039586166001600160a01b0319918216179091556007805494861694821694909417909355600680549290941691831691909117909255600591909155600480549091163017905550620002e39050565b3390565b600080546001600160a01b038381166001600160a01b0319831681178455604051919092169283917f8be0079c531659141344cd1fd0a4f28419497f9722a3daafe3b4186f6b6457e09190a35050565b62000140620000e2565b6001600160a01b031662000153620001bc565b6001600160a01b031614620001855760405162461bcd60e51b81526004016200017c9062000298565b60405180910390fd5b6001600160a01b038116620001ae5760405162461bcd60e51b81526004016200017c9062000252565b620001b981620000e6565b50565b6000546001600160a01b031690565b60008060008060008060c08789031215620001e4578182fd5b8651620001f181620002cd565b60208801519096506200020481620002cd565b60408801519095506200021781620002cd565b60608801519094506200022a81620002cd565b60808801519093506200023d81620002cd565b8092505060a087015190509295509295509295565b60208082526026908201527f4f776e61626c653a206e6577206f776e657220697320746865207a65726f206160408201526564647265737360d01b606082015260800190565b6020808252818101527f4f776e61626c653a2063616c6c6572206973206e6f7420746865206f776e6572604082015260600190565b6001600160a01b0381168114620001b957600080fd5b6117a180620002f36000396000f3fe608060405234801561001057600080fd5b506004361061014c5760003560e01c80637bbdb96e116100c3578063af7d6ca31161007c578063af7d6ca31461028b578063b004a46e1461029e578063ca48666e146102b1578063d6fa8abc146102c4578063f186c67f146102d7578063f2fde38b146102ea5761014c565b80637bbdb96e146102385780638b325672146102405780638da5cb5b1461025557806391b7f5ed1461025d5780639980ec8614610270578063a035b1fe146102835761014c565b80633dd21f8a116101155780633dd21f8a146101f0578063502f7446146101f85780636c02557214610200578063715018a61461021557806374d1f2f21461021d57806377e6bfa6146102305761014c565b80628009a3146101515780630ff4c9161461017a57806327e235e31461019a578063387dd9e9146101bb57806338af3eed146101db575b600080fd5b61016461015f366004610f0c565b6102fd565b6040516101719190611279565b60405180910390f35b61018d61018836600461114c565b610312565b604051610171919061156e565b6101ad6101a8366004610f0c565b61032f565b604051610171929190611577565b6101ce6101c936600461114c565b610348565b6040516101719190611299565b6101e36103e2565b6040516101719190611209565b6101e36103f1565b6101e3610400565b61021361020e366004610f8b565b61040f565b005b61021361056f565b61021361022b366004610f0c565b6105ba565b6101e361061b565b6101e361062a565b610248610639565b6040516101719190611284565b6101e3610642565b61021361026b36600461114c565b610651565b61018d61027e36600461114c565b610695565b61018d6106ac565b610213610299366004610f60565b6106b2565b6102136102ac36600461117c565b610799565b6102136102bf366004610fec565b6107fc565b6102136102d2366004610f0c565b610949565b6102136102e5366004610f28565b6109aa565b6102136102f8366004610f0c565b610a14565b60016020526000908152604090205460ff1681565b600061032960055483610a8590919063ffffffff16565b92915050565b6008602052600090815260409020805460019091015482565b60096020526000908152604090208054610361906116e1565b80601f016020809104026020016040519081016040528092919081815260200182805461038d906116e1565b80156103da5780601f106103af576101008083540402835291602001916103da565b820191906000526020600020905b8154815290600101906020018083116103bd57829003601f168201915b505050505081565b6004546001600160a01b031681565b6007546001600160a01b031681565b6006546001600160a01b031681565b3360009081526001602052604090205460ff166104475760405162461bcd60e51b815260040161043e906114d4565b60405180910390fd5b60008180602001905181019061045d9190611164565b6001600160a01b0386166000908152600860205260409020549091506104839085610a98565b6001600160a01b0386166000908152600860205260409020908155600101546104ac9085610a98565b6001600160a01b0386166000908152600860205260409081902060010191909155600a5490516105259160e01b906104ee903090899089908790602401611237565b60408051601f198184030181529190526020810180516001600160e01b03166001600160e01b031990931692909217909152610aa4565b846001600160a01b03167fa9a40dec7a304e5915d11358b968c1e8d365992abf20f82285d1df1b30c8e24c8585604051610560929190611577565b60405180910390a25050505050565b610577610b02565b6001600160a01b0316610588610642565b6001600160a01b0316146105ae5760405162461bcd60e51b815260040161043e9061137a565b6105b86000610b06565b565b6105c2610b02565b6001600160a01b03166105d3610642565b6001600160a01b0316146105f95760405162461bcd60e51b815260040161043e9061137a565b600780546001600160a01b0319166001600160a01b0392909216919091179055565b6003546001600160a01b031681565b6002546001600160a01b031681565b600a5460e01b81565b6000546001600160a01b031690565b610659610b02565b6001600160a01b031661066a610642565b6001600160a01b0316146106905760405162461bcd60e51b815260040161043e9061137a565b600555565b600061032960055483610b5690919063ffffffff16565b60055481565b6002546001600160a01b031633146106dc5760405162461bcd60e51b815260040161043e90611437565b6001600160a01b0382166000908152600860205260409020600101548111156107175760405162461bcd60e51b815260040161043e906113af565b6001600160a01b03821660009081526008602052604090206001015461073d9082610b62565b6001600160a01b038316600081815260086020526040908190206001019290925590517fd3eec71143c45f28685b24760ea218d476917aa0ac0392a55e5304cef40bd2b69061078d90849061156e565b60405180910390a25050565b6107a1610b02565b6001600160a01b03166107b2610642565b6001600160a01b0316146107d85760405162461bcd60e51b815260040161043e9061137a565b600082815260096020908152604090912082516107f792840190610e08565b505050565b610804610b02565b6001600160a01b0316610815610642565b6001600160a01b03161461083b5760405162461bcd60e51b815260040161043e9061137a565b600184511161085c5760405162461bcd60e51b815260040161043e90611338565b60065484516108b0916001600160a01b0316908590879060009061089057634e487b7160e01b600052603260045260246000fd5b60200260200101516001600160a01b0316610b6e9092919063ffffffff16565b6006546007546040516338ed173960e01b81526001600160a01b03928316926338ed1739926108ec92889288928b929116908890600401611585565b600060405180830381600087803b15801561090657600080fd5b505af115801561091a573d6000803e3d6000fd5b505050506040513d6000823e601f3d908101601f1916820160405261094291908101906110a0565b5050505050565b610951610b02565b6001600160a01b0316610962610642565b6001600160a01b0316146109885760405162461bcd60e51b815260040161043e9061137a565b600280546001600160a01b0319166001600160a01b0392909216919091179055565b6109b2610b02565b6001600160a01b03166109c3610642565b6001600160a01b0316146109e95760405162461bcd60e51b815260040161043e9061137a565b6001600160a01b03919091166000908152600160205260409020805460ff1916911515919091179055565b610a1c610b02565b6001600160a01b0316610a2d610642565b6001600160a01b031614610a535760405162461bcd60e51b815260040161043e9061137a565b6001600160a01b038116610a795760405162461bcd60e51b815260040161043e906112ac565b610a8281610b06565b50565b6000610a91828461167b565b9392505050565b6000610a918284611643565b6002546040516309813cdd60e31b81526001600160a01b0390911690634c09e6e890610ad4908490600401611299565b600060405180830381600087803b158015610aee57600080fd5b505af1158015610942573d6000803e3d6000fd5b3390565b600080546001600160a01b038381166001600160a01b0319831681178455604051919092169283917f8be0079c531659141344cd1fd0a4f28419497f9722a3daafe3b4186f6b6457e09190a35050565b6000610a91828461165b565b6000610a91828461169a565b801580610bf65750604051636eb1769f60e11b81526001600160a01b0384169063dd62ed3e90610ba4903090869060040161121d565b60206040518083038186803b158015610bbc57600080fd5b505afa158015610bd0573d6000803e3d6000fd5b505050506040513d601f19601f82011682018060405250810190610bf49190611164565b155b610c125760405162461bcd60e51b815260040161043e90611518565b6107f78363095ea7b360e01b8484604051602401610c31929190611260565b60408051601f198184030181529190526020810180516001600160e01b03166001600160e01b0319909316929092179091526000610cb8826040518060400160405280602081526020017f5361666545524332303a206c6f772d6c6576656c2063616c6c206661696c6564815250856001600160a01b0316610cf29092919063ffffffff16565b8051909150156107f75780806020019051810190610cd69190611130565b6107f75760405162461bcd60e51b815260040161043e9061148a565b6060610d018484600085610d09565b949350505050565b606082471015610d2b5760405162461bcd60e51b815260040161043e906112f2565b610d3485610dc9565b610d505760405162461bcd60e51b815260040161043e90611400565b600080866001600160a01b03168587604051610d6c91906111ed565b60006040518083038185875af1925050503d8060008114610da9576040519150601f19603f3d011682016040523d82523d6000602084013e610dae565b606091505b5091509150610dbe828286610dcf565b979650505050505050565b3b151590565b60608315610dde575081610a91565b825115610dee5782518084602001fd5b8160405162461bcd60e51b815260040161043e9190611299565b828054610e14906116e1565b90600052602060002090601f016020900481019282610e365760008555610e7c565b82601f10610e4f57805160ff1916838001178555610e7c565b82800160010185558215610e7c579182015b82811115610e7c578251825591602001919060010190610e61565b50610e88929150610e8c565b5090565b5b80821115610e885760008155600101610e8d565b600082601f830112610eb1578081fd5b813567ffffffffffffffff811115610ecb57610ecb611732565b610ede601f8201601f19166020016115f5565b818152846020838601011115610ef2578283fd5b816020850160208301379081016020019190915292915050565b600060208284031215610f1d578081fd5b8135610a9181611748565b60008060408385031215610f3a578081fd5b8235610f4581611748565b91506020830135610f558161175d565b809150509250929050565b60008060408385031215610f72578182fd5b8235610f7d81611748565b946020939093013593505050565b60008060008060808587031215610fa0578182fd5b8435610fab81611748565b93506020850135925060408501359150606085013567ffffffffffffffff811115610fd4578182fd5b610fe087828801610ea1565b91505092959194509250565b60008060008060808587031215611001578384fd5b843567ffffffffffffffff811115611017578485fd5b8501601f81018713611027578485fd5b8035602061103c6110378361161f565b6115f5565b82815281810190848301838502860184018c101561105857898afd5b8995505b8486101561108357803561106f81611748565b83526001959095019491830191830161105c565b509a91890135995050604088013597606001359650945050505050565b600060208083850312156110b2578182fd5b825167ffffffffffffffff8111156110c8578283fd5b8301601f810185136110d8578283fd5b80516110e66110378261161f565b8181528381019083850185840285018601891015611102578687fd5b8694505b83851015611124578051835260019490940193918501918501611106565b50979650505050505050565b600060208284031215611141578081fd5b8151610a918161175d565b60006020828403121561115d578081fd5b5035919050565b600060208284031215611175578081fd5b5051919050565b6000806040838503121561118e578182fd5b82359150602083013567ffffffffffffffff8111156111ab578182fd5b6111b785828601610ea1565b9150509250929050565b600081518084526111d98160208601602086016116b1565b601f01601f19169290920160200192915050565b600082516111ff8184602087016116b1565b9190910192915050565b6001600160a01b0391909116815260200190565b6001600160a01b0392831681529116602082015260400190565b6001600160a01b0394851681529290931660208301526040820152606081019190915260800190565b6001600160a01b03929092168252602082015260400190565b901515815260200190565b6001600160e01b031991909116815260200190565b600060208252610a9160208301846111c1565b60208082526026908201527f4f776e61626c653a206e6577206f776e657220697320746865207a65726f206160408201526564647265737360d01b606082015260800190565b60208082526026908201527f416464726573733a20696e73756666696369656e742062616c616e636520666f6040820152651c8818d85b1b60d21b606082015260800190565b60208082526022908201527f53746f7261676557697468446561646c696e653a207061746820696e76616c69604082015261321760f11b606082015260800190565b6020808252818101527f4f776e61626c653a2063616c6c6572206973206e6f7420746865206f776e6572604082015260600190565b60208082526031908201527f53746f7261676557697468446561646c696e653a206e6f7420656e6f7567682060408201527039ba37b930b3b2903a379039b832b7321760791b606082015260800190565b6020808252601d908201527f416464726573733a2063616c6c20746f206e6f6e2d636f6e7472616374000000604082015260600190565b60208082526033908201527f5265736f75726365576974684368616e6e656c3a2043616e2062652063616c6c60408201527232b210313c9031b430b73732b61037b7363c9760691b606082015260800190565b6020808252602a908201527f5361666545524332303a204552433230206f7065726174696f6e20646964206e6040820152691bdd081cdd58d8d9595960b21b606082015260800190565b60208082526024908201527f5065726d697461626c653a2063616c6c6572206973206e6f74207065726d69746040820152633a32b21760e11b606082015260800190565b60208082526036908201527f5361666545524332303a20617070726f76652066726f6d206e6f6e2d7a65726f60408201527520746f206e6f6e2d7a65726f20616c6c6f77616e636560501b606082015260800190565b90815260200190565b918252602082015260400190565b600060a082018783526020878185015260a0604085015281875180845260c0860191508289019350845b818110156115d45784516001600160a01b0316835293830193918301916001016115af565b50506001600160a01b03969096166060850152505050608001529392505050565b60405181810167ffffffffffffffff8111828210171561161757611617611732565b604052919050565b600067ffffffffffffffff82111561163957611639611732565b5060209081020190565b600082198211156116565761165661171c565b500190565b60008261167657634e487b7160e01b81526012600452602481fd5b500490565b60008160001904831182151516156116955761169561171c565b500290565b6000828210156116ac576116ac61171c565b500390565b60005b838110156116cc5781810151838201526020016116b4565b838111156116db576000848401525b50505050565b6002810460018216806116f557607f821691505b6020821081141561171657634e487b7160e01b600052602260045260246000fd5b50919050565b634e487b7160e01b600052601160045260246000fd5b634e487b7160e01b600052604160045260246000fd5b6001600160a01b0381168114610a8257600080fd5b8015158114610a8257600080fdfea264697066735822122089571fba94a9d53d51262373e075087d60188c04576c6e44d083ae6ff69fb8da64736f6c63430008000033"
}