{
  "address": "0xc98CF78242dB42CB3E6AE1fe6a724DBCA6E941f2",
  "abi": [
    {
      "inputs": [
        {
          "internalType": "address",
          "name": "owner",
          "type": "address"
        },
        {
          "internalType": "contract IRootChannel",
          "name": "_channel",
          "type": "address"
        },
        {
          "internalType": "address",
          "name": "_valuationToken",
          "type": "address"
        },
        {
          "internalType": "address",
          "name": "_buyBackReceiver",
          "type": "address"
        },
        {
          "internalType": "contract IUniswapV2Router02",
          "name": "_routerV2",
          "type": "address"
        },
        {
          "internalType": "uint256",
          "name": "_price",
          "type": "uint256"
        }
      ],
      "stateMutability": "nonpayable",
      "type": "constructor"
    },
    {
      "anonymous": false,
      "inputs": [
        {
          "indexed": true,
          "internalType": "address",
          "name": "buyer",
          "type": "address"
        },
        {
          "indexed": false,
          "internalType": "uint256",
          "name": "amount",
          "type": "uint256"
        },
        {
          "indexed": false,
          "internalType": "uint256",
          "name": "value",
          "type": "uint256"
        }
      ],
      "name": "Bought",
      "type": "event"
    },
    {
      "anonymous": false,
      "inputs": [
        {
          "indexed": true,
          "internalType": "address",
          "name": "previousOwner",
          "type": "address"
        },
        {
          "indexed": true,
          "internalType": "address",
          "name": "newOwner",
          "type": "address"
        }
      ],
      "name": "OwnershipTransferred",
      "type": "event"
    },
    {
      "anonymous": false,
      "inputs": [
        {
          "indexed": true,
          "internalType": "address",
          "name": "buyer",
          "type": "address"
        },
        {
          "indexed": false,
          "internalType": "uint256",
          "name": "amount",
          "type": "uint256"
        }
      ],
      "name": "Spent",
      "type": "event"
    },
    {
      "inputs": [
        {
          "internalType": "address",
          "name": "",
          "type": "address"
        }
      ],
      "name": "balances",
      "outputs": [
        {
          "internalType": "uint256",
          "name": "total",
          "type": "uint256"
        },
        {
          "internalType": "uint256",
          "name": "left",
          "type": "uint256"
        }
      ],
      "stateMutability": "view",
      "type": "function"
    },
    {
      "inputs": [],
      "name": "beneficiary",
      "outputs": [
        {
          "internalType": "address",
          "name": "",
          "type": "address"
        }
      ],
      "stateMutability": "view",
      "type": "function"
    },
    {
      "inputs": [
        {
          "internalType": "address",
          "name": "buyer",
          "type": "address"
        },
        {
          "internalType": "uint256",
          "name": "amount",
          "type": "uint256"
        },
        {
          "internalType": "uint256",
          "name": "value",
          "type": "uint256"
        }
      ],
      "name": "buy",
      "outputs": [],
      "stateMutability": "nonpayable",
      "type": "function"
    },
    {
      "inputs": [
        {
          "internalType": "address[]",
          "name": "path",
          "type": "address[]"
        },
        {
          "internalType": "uint256",
          "name": "value",
          "type": "uint256"
        },
        {
          "internalType": "uint256",
          "name": "amountOutMin",
          "type": "uint256"
        },
        {
          "internalType": "uint256",
          "name": "deadline",
          "type": "uint256"
        }
      ],
      "name": "buyBack",
      "outputs": [],
      "stateMutability": "nonpayable",
      "type": "function"
    },
    {
      "inputs": [],
      "name": "buyBackReceiver",
      "outputs": [
        {
          "internalType": "address",
          "name": "",
          "type": "address"
        }
      ],
      "stateMutability": "view",
      "type": "function"
    },
    {
      "inputs": [],
      "name": "channel",
      "outputs": [
        {
          "internalType": "contract IRootChannel",
          "name": "",
          "type": "address"
        }
      ],
      "stateMutability": "view",
      "type": "function"
    },
    {
      "inputs": [],
      "name": "expiration",
      "outputs": [
        {
          "internalType": "uint256",
          "name": "",
          "type": "uint256"
        }
      ],
      "stateMutability": "view",
      "type": "function"
    },
    {
      "inputs": [
        {
          "internalType": "uint256",
          "name": "value",
          "type": "uint256"
        }
      ],
      "name": "getAmount",
      "outputs": [
        {
          "internalType": "uint256",
          "name": "",
          "type": "uint256"
        }
      ],
      "stateMutability": "view",
      "type": "function"
    },
    {
      "inputs": [
        {
          "internalType": "uint256",
          "name": "amount",
          "type": "uint256"
        }
      ],
      "name": "getValue",
      "outputs": [
        {
          "internalType": "uint256",
          "name": "",
          "type": "uint256"
        }
      ],
      "stateMutability": "view",
      "type": "function"
    },
    {
      "inputs": [],
      "name": "mintStorage",
      "outputs": [
        {
          "internalType": "bytes4",
          "name": "",
          "type": "bytes4"
        }
      ],
      "stateMutability": "view",
      "type": "function"
    },
    {
      "inputs": [],
      "name": "owner",
      "outputs": [
        {
          "internalType": "address",
          "name": "",
          "type": "address"
        }
      ],
      "stateMutability": "view",
      "type": "function"
    },
    {
      "inputs": [
        {
          "internalType": "address",
          "name": "permitter",
          "type": "address"
        },
        {
          "internalType": "bool",
          "name": "isPermit",
          "type": "bool"
        }
      ],
      "name": "permit",
      "outputs": [],
      "stateMutability": "nonpayable",
      "type": "function"
    },
    {
      "inputs": [
        {
          "internalType": "address",
          "name": "",
          "type": "address"
        }
      ],
      "name": "permits",
      "outputs": [
        {
          "internalType": "bool",
          "name": "",
          "type": "bool"
        }
      ],
      "stateMutability": "view",
      "type": "function"
    },
    {
      "inputs": [],
      "name": "price",
      "outputs": [
        {
          "internalType": "uint256",
          "name": "",
          "type": "uint256"
        }
      ],
      "stateMutability": "view",
      "type": "function"
    },
    {
      "inputs": [],
      "name": "renounceOwnership",
      "outputs": [],
      "stateMutability": "nonpayable",
      "type": "function"
    },
    {
      "inputs": [],
      "name": "routerV2",
      "outputs": [
        {
          "internalType": "contract IUniswapV2Router02",
          "name": "",
          "type": "address"
        }
      ],
      "stateMutability": "view",
      "type": "function"
    },
    {
      "inputs": [
        {
          "internalType": "uint256",
          "name": "_expiration",
          "type": "uint256"
        }
      ],
      "name": "setExpiration",
      "outputs": [],
      "stateMutability": "nonpayable",
      "type": "function"
    },
    {
      "inputs": [
        {
          "internalType": "uint256",
          "name": "_price",
          "type": "uint256"
        }
      ],
      "name": "setPrice",
      "outputs": [],
      "stateMutability": "nonpayable",
      "type": "function"
    },
    {
      "inputs": [
        {
          "internalType": "uint256",
          "name": "key",
          "type": "uint256"
        },
        {
          "internalType": "bytes",
          "name": "value",
          "type": "bytes"
        }
      ],
      "name": "setSlot",
      "outputs": [],
      "stateMutability": "nonpayable",
      "type": "function"
    },
    {
      "inputs": [
        {
          "internalType": "uint256",
          "name": "",
          "type": "uint256"
        }
      ],
      "name": "slots",
      "outputs": [
        {
          "internalType": "bytes",
          "name": "",
          "type": "bytes"
        }
      ],
      "stateMutability": "view",
      "type": "function"
    },
    {
      "inputs": [
        {
          "internalType": "address",
          "name": "buyer",
          "type": "address"
        },
        {
          "internalType": "uint256",
          "name": "amount",
          "type": "uint256"
        }
      ],
      "name": "spend",
      "outputs": [],
      "stateMutability": "nonpayable",
      "type": "function"
    },
    {
      "inputs": [
        {
          "internalType": "address",
          "name": "newReceiver",
          "type": "address"
        }
      ],
      "name": "transferBuyBackReceiver",
      "outputs": [],
      "stateMutability": "nonpayable",
      "type": "function"
    },
    {
      "inputs": [
        {
          "internalType": "address",
          "name": "newOwner",
          "type": "address"
        }
      ],
      "name": "transferOwnership",
      "outputs": [],
      "stateMutability": "nonpayable",
      "type": "function"
    },
    {
      "inputs": [
        {
          "internalType": "contract IRootChannel",
          "name": "_channel",
          "type": "address"
        }
      ],
      "name": "transferRootChannel",
      "outputs": [],
      "stateMutability": "nonpayable",
      "type": "function"
    },
    {
      "inputs": [],
      "name": "valuationToken",
      "outputs": [
        {
          "internalType": "address",
          "name": "",
          "type": "address"
        }
      ],
      "stateMutability": "view",
      "type": "function"
    }
  ],
  "transactionHash": "0xc7c3dd45addd16a229a8cbe8c7b3ebfba18d1502b88a967221d846964d668236",
  "args": [
    "0xa995AE28b9cFf206C3971D1887cc934FC48e3a0F",
    "0x4Fa6BC6B5467F17f5552C2083FC5C8c93913d62E",
    "0xE437E9a5fd870aF20a779A5fBA83bc53cC7C837A",
    "0x4023C5cE4f334971E031B6536E610500b3FcaDb5",
    "0x7a250d5630B4cF539739dF2C5dAcb4c659F2488D",
    "1000000000000000000"
  ],
  "bytecode": "0x6080604052600a805463ffffffff191662aa7b571790553480156200002357600080fd5b5060405162001c0a38038062001c0a833981810160405260c08110156200004957600080fd5b508051602082015160408301516060840151608085015160a09095015193949293919290918460006200007b62000142565b600080546001600160a01b0319166001600160a01b03831690811782556040519293509160008051602062001bea833981519152908290a350600280546001600160a01b0319166001600160a01b0392909216919091179055620000df8662000146565b600380546001600160a01b039586166001600160a01b031991821617909155600780549486169482169490941790935560068054929094169183169190911790925560059190915562093a80600b556004805490911630179055506200025f9050565b3390565b6200015062000142565b6001600160a01b03166200016362000250565b6001600160a01b031614620001bf576040805162461bcd60e51b815260206004820181905260248201527f4f776e61626c653a2063616c6c6572206973206e6f7420746865206f776e6572604482015290519081900360640190fd5b6001600160a01b038116620002065760405162461bcd60e51b815260040180806020018281038252602681526020018062001bc46026913960400191505060405180910390fd5b600080546040516001600160a01b038085169392169160008051602062001bea83398151915291a3600080546001600160a01b0319166001600160a01b0392909216919091179055565b6000546001600160a01b031690565b611955806200026f6000396000f3fe608060405234801561001057600080fd5b50600436106101725760003560e01c80637bbdb96e116100de578063a59ac6dd11610097578063ca48666e11610071578063ca48666e146104c4578063d6fa8abc14610572578063f186c67f14610598578063f2fde38b146105c657610172565b8063a59ac6dd146103b9578063af7d6ca3146103eb578063b004a46e1461041757610172565b80637bbdb96e146103425780638b3256721461034a5780638da5cb5b1461036f57806391b7f5ed146103775780639980ec8614610394578063a035b1fe146103b157610172565b80634665096d116101305780634665096d146102dd578063502f7446146102e5578063515a20ba146102ed578063715018a61461030c57806374d1f2f21461031457806377e6bfa61461033a57610172565b80628009a3146101775780630ff4c916146101b157806327e235e3146101e0578063387dd9e91461021f57806338af3eed146102b15780633dd21f8a146102d5575b600080fd5b61019d6004803603602081101561018d57600080fd5b50356001600160a01b03166105ec565b604080519115158252519081900360200190f35b6101ce600480360360208110156101c757600080fd5b5035610601565b60408051918252519081900360200190f35b610206600480360360208110156101f657600080fd5b50356001600160a01b031661061e565b6040805192835260208301919091528051918290030190f35b61023c6004803603602081101561023557600080fd5b5035610637565b6040805160208082528351818301528351919283929083019185019080838360005b8381101561027657818101518382015260200161025e565b50505050905090810190601f1680156102a35780820380516001836020036101000a031916815260200191505b509250505060405180910390f35b6102b96106d2565b604080516001600160a01b039092168252519081900360200190f35b6102b96106e1565b6101ce6106f0565b6102b96106f6565b61030a6004803603602081101561030357600080fd5b5035610705565b005b61030a61076c565b61030a6004803603602081101561032a57600080fd5b50356001600160a01b0316610818565b6102b961089c565b6102b96108ab565b6103526108ba565b604080516001600160e01b03199092168252519081900360200190f35b6102b96108c3565b61030a6004803603602081101561038d57600080fd5b50356108d2565b6101ce600480360360208110156103aa57600080fd5b5035610939565b6101ce610950565b61030a600480360360608110156103cf57600080fd5b506001600160a01b038135169060208101359060400135610956565b61030a6004803603604081101561040157600080fd5b506001600160a01b038135169060200135610ae2565b61030a6004803603604081101561042d57600080fd5b8135919081019060408101602082013564010000000081111561044f57600080fd5b82018360208201111561046157600080fd5b8035906020019184600183028401116401000000008311171561048357600080fd5b91908080601f016020809104026020016040519081016040528093929190818152602001838380828437600092019190915250929550610c1a945050505050565b61030a600480360360808110156104da57600080fd5b8101906020810181356401000000008111156104f557600080fd5b82018360208201111561050757600080fd5b8035906020019184602083028401116401000000008311171561052957600080fd5b9190808060200260200160405190810160405280939291908181526020018383602002808284376000920191909152509295505082359350505060208101359060400135610ca0565b61030a6004803603602081101561058857600080fd5b50356001600160a01b0316610f10565b61030a600480360360408110156105ae57600080fd5b506001600160a01b0381351690602001351515610f94565b61030a600480360360208110156105dc57600080fd5b50356001600160a01b0316611021565b60016020526000908152604090205460ff1681565b60006106186005548361112390919063ffffffff16565b92915050565b6008602052600090815260409020805460019091015482565b60096020908152600091825260409182902080548351601f6002600019610100600186161502019093169290920491820184900484028101840190945280845290918301828280156106ca5780601f1061069f576101008083540402835291602001916106ca565b820191906000526020600020905b8154815290600101906020018083116106ad57829003601f168201915b505050505081565b6004546001600160a01b031681565b6007546001600160a01b031681565b600b5481565b6006546001600160a01b031681565b61070d611183565b6001600160a01b031661071e6108c3565b6001600160a01b031614610767576040805162461bcd60e51b81526020600482018190526024820152600080516020611849833981519152604482015290519081900360640190fd5b600b55565b610774611183565b6001600160a01b03166107856108c3565b6001600160a01b0316146107ce576040805162461bcd60e51b81526020600482018190526024820152600080516020611849833981519152604482015290519081900360640190fd5b600080546040516001600160a01b03909116907f8be0079c531659141344cd1fd0a4f28419497f9722a3daafe3b4186f6b6457e0908390a3600080546001600160a01b0319169055565b610820611183565b6001600160a01b03166108316108c3565b6001600160a01b03161461087a576040805162461bcd60e51b81526020600482018190526024820152600080516020611849833981519152604482015290519081900360640190fd5b600780546001600160a01b0319166001600160a01b0392909216919091179055565b6003546001600160a01b031681565b6002546001600160a01b031681565b600a5460e01b81565b6000546001600160a01b031690565b6108da611183565b6001600160a01b03166108eb6108c3565b6001600160a01b031614610934576040805162461bcd60e51b81526020600482018190526024820152600080516020611849833981519152604482015290519081900360640190fd5b600555565b60006106186005548361118790919063ffffffff16565b60055481565b3360009081526001602052604090205460ff166109a45760405162461bcd60e51b81526004018080602001828103825260248152602001806118c66024913960400191505060405180910390fd5b6001600160a01b0383166000908152600860205260409020546109c790836111ee565b6001600160a01b0384166000908152600860205260409020908155600101546109f090836111ee565b6001600160a01b038416600090815260086020526040902060010155600a54600b54610a9a9160e01b90309086908690610a2b9042906111ee565b60405160240180856001600160a01b03168152602001846001600160a01b03168152602001838152602001828152602001945050505050604051602081830303815290604052906001600160e01b0319166020820180516001600160e01b038381831617835250505050611248565b604080518381526020810183905281516001600160a01b038616927fa9a40dec7a304e5915d11358b968c1e8d365992abf20f82285d1df1b30c8e24c928290030190a2505050565b6002546001600160a01b03163314610b2b5760405162461bcd60e51b81526004018080602001828103825260338152602001806118696033913960400191505060405180910390fd5b6001600160a01b038216600090815260086020526040902060010154811115610b9b576040805162461bcd60e51b815260206004820152601c60248201527f6e6f7420656e6f7567682073746f7261676520746f207370656e642e00000000604482015290519081900360640190fd5b6001600160a01b038216600090815260086020526040902060010154610bc1908261130f565b6001600160a01b038316600081815260086020908152604091829020600101939093558051848152905191927fd3eec71143c45f28685b24760ea218d476917aa0ac0392a55e5304cef40bd2b692918290030190a25050565b610c22611183565b6001600160a01b0316610c336108c3565b6001600160a01b031614610c7c576040805162461bcd60e51b81526020600482018190526024820152600080516020611849833981519152604482015290519081900360640190fd5b60008281526009602090815260409091208251610c9b92840190611748565b505050565b610ca8611183565b6001600160a01b0316610cb96108c3565b6001600160a01b031614610d02576040805162461bcd60e51b81526020600482018190526024820152600080516020611849833981519152604482015290519081900360640190fd5b6001845111610d48576040805162461bcd60e51b815260206004820152600d60248201526c3830ba341034b73b30b634b21760991b604482015290519081900360640190fd5b6006548451610d88916001600160a01b03169085908790600090610d6857fe5b60200260200101516001600160a01b031661136c9092919063ffffffff16565b6006546007546040516338ed173960e01b815260048101868152602482018690526001600160a01b03928316606483018190526084830186905260a060448401908152895160a4850152895194909516946338ed173994899489948c94938a939192909160c4909101906020808801910280838360005b83811015610e17578181015183820152602001610dff565b505050509050019650505050505050600060405180830381600087803b158015610e4057600080fd5b505af1158015610e54573d6000803e3d6000fd5b505050506040513d6000823e601f3d908101601f191682016040526020811015610e7d57600080fd5b8101908080516040519392919084640100000000821115610e9d57600080fd5b908301906020820185811115610eb257600080fd5b8251866020820283011164010000000082111715610ecf57600080fd5b82525081516020918201928201910280838360005b83811015610efc578181015183820152602001610ee4565b505050509050016040525050505050505050565b610f18611183565b6001600160a01b0316610f296108c3565b6001600160a01b031614610f72576040805162461bcd60e51b81526020600482018190526024820152600080516020611849833981519152604482015290519081900360640190fd5b600280546001600160a01b0319166001600160a01b0392909216919091179055565b610f9c611183565b6001600160a01b0316610fad6108c3565b6001600160a01b031614610ff6576040805162461bcd60e51b81526020600482018190526024820152600080516020611849833981519152604482015290519081900360640190fd5b6001600160a01b03919091166000908152600160205260409020805460ff1916911515919091179055565b611029611183565b6001600160a01b031661103a6108c3565b6001600160a01b031614611083576040805162461bcd60e51b81526020600482018190526024820152600080516020611849833981519152604482015290519081900360640190fd5b6001600160a01b0381166110c85760405162461bcd60e51b81526004018080602001828103825260268152602001806117dc6026913960400191505060405180910390fd5b600080546040516001600160a01b03808516939216917f8be0079c531659141344cd1fd0a4f28419497f9722a3daafe3b4186f6b6457e091a3600080546001600160a01b0319166001600160a01b0392909216919091179055565b60008261113257506000610618565b8282028284828161113f57fe5b041461117c5760405162461bcd60e51b81526004018080602001828103825260218152602001806118286021913960400191505060405180910390fd5b9392505050565b3390565b60008082116111dd576040805162461bcd60e51b815260206004820152601a60248201527f536166654d6174683a206469766973696f6e206279207a65726f000000000000604482015290519081900360640190fd5b8183816111e657fe5b049392505050565b60008282018381101561117c576040805162461bcd60e51b815260206004820152601b60248201527f536166654d6174683a206164646974696f6e206f766572666c6f770000000000604482015290519081900360640190fd5b6002546040516309813cdd60e31b81526020600482018181528451602484015284516001600160a01b0390941693634c09e6e893869383926044909201919085019080838360005b838110156112a8578181015183820152602001611290565b50505050905090810190601f1680156112d55780820380516001836020036101000a031916815260200191505b5092505050600060405180830381600087803b1580156112f457600080fd5b505af1158015611308573d6000803e3d6000fd5b5050505050565b600082821115611366576040805162461bcd60e51b815260206004820152601e60248201527f536166654d6174683a207375627472616374696f6e206f766572666c6f770000604482015290519081900360640190fd5b50900390565b8015806113f2575060408051636eb1769f60e11b81523060048201526001600160a01b03848116602483015291519185169163dd62ed3e91604480820192602092909190829003018186803b1580156113c457600080fd5b505afa1580156113d8573d6000803e3d6000fd5b505050506040513d60208110156113ee57600080fd5b5051155b61142d5760405162461bcd60e51b81526004018080602001828103825260368152602001806118ea6036913960400191505060405180910390fd5b604080516001600160a01b038416602482015260448082018490528251808303909101815260649091019091526020810180516001600160e01b031663095ea7b360e01b179052610c9b90849060606114cf826040518060400160405280602081526020017f5361666545524332303a206c6f772d6c6576656c2063616c6c206661696c6564815250856001600160a01b031661152b9092919063ffffffff16565b805190915015610c9b578080602001905160208110156114ee57600080fd5b5051610c9b5760405162461bcd60e51b815260040180806020018281038252602a81526020018061189c602a913960400191505060405180910390fd5b606061153a8484600085611542565b949350505050565b6060824710156115835760405162461bcd60e51b81526004018080602001828103825260268152602001806118026026913960400191505060405180910390fd5b61158c8561169e565b6115dd576040805162461bcd60e51b815260206004820152601d60248201527f416464726573733a2063616c6c20746f206e6f6e2d636f6e7472616374000000604482015290519081900360640190fd5b60006060866001600160a01b031685876040518082805190602001908083835b6020831061161c5780518252601f1990920191602091820191016115fd565b6001836020036101000a03801982511681845116808217855250505050505090500191505060006040518083038185875af1925050503d806000811461167e576040519150601f19603f3d011682016040523d82523d6000602084013e611683565b606091505b50915091506116938282866116a4565b979650505050505050565b3b151590565b606083156116b357508161117c565b8251156116c35782518084602001fd5b8160405162461bcd60e51b81526004018080602001828103825283818151815260200191508051906020019080838360005b8381101561170d5781810151838201526020016116f5565b50505050905090810190601f16801561173a5780820380516001836020036101000a031916815260200191505b509250505060405180910390fd5b828054600181600116156101000203166002900490600052602060002090601f016020900481019282601f1061178957805160ff19168380011785556117b6565b828001600101855582156117b6579182015b828111156117b657825182559160200191906001019061179b565b506117c29291506117c6565b5090565b5b808211156117c257600081556001016117c756fe4f776e61626c653a206e6577206f776e657220697320746865207a65726f2061646472657373416464726573733a20696e73756666696369656e742062616c616e636520666f722063616c6c536166654d6174683a206d756c7469706c69636174696f6e206f766572666c6f774f776e61626c653a2063616c6c6572206973206e6f7420746865206f776e65725265736f75726365576974684368616e6e656c3a2043616e2062652063616c6c6564206279206368616e6e656c206f6e6c792e5361666545524332303a204552433230206f7065726174696f6e20646964206e6f7420737563636565645065726d697461626c653a2063616c6c6572206973206e6f74207065726d69747465642e5361666545524332303a20617070726f76652066726f6d206e6f6e2d7a65726f20746f206e6f6e2d7a65726f20616c6c6f77616e6365a2646970667358221220ee987763e323ebbc3968d5b6c59661e5ed0120f08f7f98d05a15774c29f44f8564736f6c634300070300334f776e61626c653a206e6577206f776e657220697320746865207a65726f20616464726573738be0079c531659141344cd1fd0a4f28419497f9722a3daafe3b4186f6b6457e0"
}