{
  "address": "0x9F8144c391A90D2eeCEE9BbC1e21b0CA9eE21aE2",
  "abi": [
    {
      "inputs": [
        {
          "internalType": "address",
          "name": "owner",
          "type": "address"
        }
      ],
      "stateMutability": "nonpayable",
      "type": "constructor"
    },
    {
      "anonymous": false,
      "inputs": [
        {
          "indexed": true,
          "internalType": "address",
          "name": "previousOwner",
          "type": "address"
        },
        {
          "indexed": true,
          "internalType": "address",
          "name": "newOwner",
          "type": "address"
        }
      ],
      "name": "OwnershipTransferred",
      "type": "event"
    },
    {
      "anonymous": false,
      "inputs": [
        {
          "indexed": true,
          "internalType": "address",
          "name": "buyer",
          "type": "address"
        },
        {
          "indexed": true,
          "internalType": "uint8",
          "name": "operation",
          "type": "uint8"
        },
        {
          "indexed": true,
          "internalType": "bytes32",
          "name": "cidKey",
          "type": "bytes32"
        },
        {
          "indexed": false,
          "internalType": "bytes",
          "name": "cid",
          "type": "bytes"
        }
      ],
      "name": "Pin",
      "type": "event"
    },
    {
      "inputs": [
        {
          "internalType": "address",
          "name": "",
          "type": "address"
        },
        {
          "internalType": "bytes32",
          "name": "",
          "type": "bytes32"
        }
      ],
      "name": "cids",
      "outputs": [
        {
          "internalType": "bytes",
          "name": "data",
          "type": "bytes"
        },
        {
          "internalType": "uint256",
          "name": "deadline",
          "type": "uint256"
        }
      ],
      "stateMutability": "view",
      "type": "function"
    },
    {
      "inputs": [],
      "name": "owner",
      "outputs": [
        {
          "internalType": "address",
          "name": "",
          "type": "address"
        }
      ],
      "stateMutability": "view",
      "type": "function"
    },
    {
      "inputs": [
        {
          "internalType": "address",
          "name": "buyer",
          "type": "address"
        },
        {
          "internalType": "bytes",
          "name": "cid",
          "type": "bytes"
        },
        {
          "internalType": "uint256",
          "name": "deadline",
          "type": "uint256"
        }
      ],
      "name": "pinAdd",
      "outputs": [],
      "stateMutability": "nonpayable",
      "type": "function"
    },
    {
      "inputs": [
        {
          "internalType": "address",
          "name": "buyer",
          "type": "address"
        },
        {
          "internalType": "bytes",
          "name": "cid",
          "type": "bytes"
        }
      ],
      "name": "pinRemove",
      "outputs": [],
      "stateMutability": "nonpayable",
      "type": "function"
    },
    {
      "inputs": [],
      "name": "renounceOwnership",
      "outputs": [],
      "stateMutability": "nonpayable",
      "type": "function"
    },
    {
      "inputs": [
        {
          "internalType": "address",
          "name": "newOwner",
          "type": "address"
        }
      ],
      "name": "transferOwnership",
      "outputs": [],
      "stateMutability": "nonpayable",
      "type": "function"
    }
  ],
  "transactionHash": "0x8f00cf37bffaff0eaf6669e1b2ad209bfadde5d2b51877d340ad2a3da03b2462",
  "args": [
    "0xa995AE28b9cFf206C3971D1887cc934FC48e3a0F"
  ],
  "bytecode": "0x608060405234801561001057600080fd5b50604051610b1d380380610b1d8339818101604052602081101561003357600080fd5b5051600061003f610086565b600080546001600160a01b0319166001600160a01b038316908117825560405192935091600080516020610afd833981519152908290a3506100808161008a565b5061019b565b3390565b610092610086565b6001600160a01b03166100a361018c565b6001600160a01b0316146100fe576040805162461bcd60e51b815260206004820181905260248201527f4f776e61626c653a2063616c6c6572206973206e6f7420746865206f776e6572604482015290519081900360640190fd5b6001600160a01b0381166101435760405162461bcd60e51b8152600401808060200182810382526026815260200180610ad76026913960400191505060405180910390fd5b600080546040516001600160a01b0380851693921691600080516020610afd83398151915291a3600080546001600160a01b0319166001600160a01b0392909216919091179055565b6000546001600160a01b031690565b61092d806101aa6000396000f3fe608060405234801561001057600080fd5b50600436106100625760003560e01c806335dba24f146100675780634898bcf814610112578063715018a6146101cc5780638da5cb5b146101d4578063afc84079146101f8578063f2fde38b146102ae575b600080fd5b6100936004803603604081101561007d57600080fd5b506001600160a01b0381351690602001356102d4565b6040518080602001838152602001828103825284818151815260200191508051906020019080838360005b838110156100d65781810151838201526020016100be565b50505050905090810190601f1680156101035780820380516001836020036101000a031916815260200191505b50935050505060405180910390f35b6101ca6004803603606081101561012857600080fd5b6001600160a01b03823516919081019060408101602082013564010000000081111561015357600080fd5b82018360208201111561016557600080fd5b8035906020019184600183028401116401000000008311171561018757600080fd5b91908080601f0160208091040260200160405190810160405280939291908181526020018383808284376000920191909152509295505091359250610380915050565b005b6101ca6104da565b6101dc610598565b604080516001600160a01b039092168252519081900360200190f35b6101ca6004803603604081101561020e57600080fd5b6001600160a01b03823516919081019060408101602082013564010000000081111561023957600080fd5b82018360208201111561024b57600080fd5b8035906020019184600183028401116401000000008311171561026d57600080fd5b91908080601f0160208091040260200160405190810160405280939291908181526020018383808284376000920191909152509295506105a7945050505050565b6101ca600480360360208110156102c457600080fd5b50356001600160a01b03166106df565b600160208181526000938452604080852082529284529282902080548351600293821615610100026000190190911692909204601f810185900485028301850190935282825292909183918301828280156103705780601f1061034557610100808354040283529160200191610370565b820191906000526020600020905b81548152906001019060200180831161035357829003601f168201915b5050505050908060010154905082565b8151602e146103cb576040805162461bcd60e51b8152602060048201526012602482015271092dcecc2d8d2c840c6d2c840d8cadccee8d60731b604482015290519081900360640190fd5b81516020808401919091206040805180820182528581528084018590526001600160a01b03871660009081526001855282812084825285529190912081518051939492939192610420928492909101906107f7565b5060208201518160010155905050806000856001600160a01b03167f85649fa2ddf87841dd4bffe3b3ee6e887813bffa29e025b3986cb3185cb6794d866040518080602001828103825283818151815260200191508051906020019080838360005b8381101561049a578181015183820152602001610482565b50505050905090810190601f1680156104c75780820380516001836020036101000a031916815260200191505b509250505060405180910390a450505050565b6104e26107f3565b6001600160a01b03166104f3610598565b6001600160a01b03161461054e576040805162461bcd60e51b815260206004820181905260248201527f4f776e61626c653a2063616c6c6572206973206e6f7420746865206f776e6572604482015290519081900360640190fd5b600080546040516001600160a01b03909116907f8be0079c531659141344cd1fd0a4f28419497f9722a3daafe3b4186f6b6457e0908390a3600080546001600160a01b0319169055565b6000546001600160a01b031690565b8051602e146105f2576040805162461bcd60e51b8152602060048201526012602482015271092dcecc2d8d2c840c6d2c840d8cadccee8d60731b604482015290519081900360640190fd5b80516020808301919091206001600160a01b0384166000908152600183526040808220838352909352918220909161062a8282610875565b60018201600090555050806001846001600160a01b03167f85649fa2ddf87841dd4bffe3b3ee6e887813bffa29e025b3986cb3185cb6794d856040518080602001828103825283818151815260200191508051906020019080838360005b838110156106a0578181015183820152602001610688565b50505050905090810190601f1680156106cd5780820380516001836020036101000a031916815260200191505b509250505060405180910390a4505050565b6106e76107f3565b6001600160a01b03166106f8610598565b6001600160a01b031614610753576040805162461bcd60e51b815260206004820181905260248201527f4f776e61626c653a2063616c6c6572206973206e6f7420746865206f776e6572604482015290519081900360640190fd5b6001600160a01b0381166107985760405162461bcd60e51b81526004018080602001828103825260268152602001806108d26026913960400191505060405180910390fd5b600080546040516001600160a01b03808516939216917f8be0079c531659141344cd1fd0a4f28419497f9722a3daafe3b4186f6b6457e091a3600080546001600160a01b0319166001600160a01b0392909216919091179055565b3390565b828054600181600116156101000203166002900490600052602060002090601f016020900481019282601f1061083857805160ff1916838001178555610865565b82800160010185558215610865579182015b8281111561086557825182559160200191906001019061084a565b506108719291506108bc565b5090565b50805460018160011615610100020316600290046000825580601f1061089b57506108b9565b601f0160209004906000526020600020908101906108b991906108bc565b50565b5b8082111561087157600081556001016108bd56fe4f776e61626c653a206e6577206f776e657220697320746865207a65726f2061646472657373a264697066735822122019be2800dd0ab53bcef8aae1173260cc6bc7e83da1470b166616ce45aabb979764736f6c634300070300334f776e61626c653a206e6577206f776e657220697320746865207a65726f20616464726573738be0079c531659141344cd1fd0a4f28419497f9722a3daafe3b4186f6b6457e0"
}